:100000000C946A050C9492050C9492050C9492053C
:100010000C9492050C9492050C9492050C94920504
:100020000C9492050C9492050C9492050C949205F4
:100030000C9492050C9492050C9492050C949205E4
:100040000C9456110C9492050C94C6110C94A011AA
:100050000C9492050C9492050C9492050C949205C4
:100060000C9492050C9492050000000023002600D9
:1000700029004573706563653A0048656464796575
:100080007374756E65636174696E3A004C756D6961
:100090006E6F736974653A00414341423A00000053
:1000A0000000240027002A0000000000250028008E
:1000B0002B000404040404040404020202020202E9
:1000C000030303030303010204081020408001021C
:1000D000040810200102040810200000000800029B
:1000E0000100000304070000000000000000BF0042
:1000F00003020304030504060D00FE09FE0AFF01C6
:1001000082033109C62005006E0721094A434F8B3F
:10011000524B0022081C5B4F8B920023103E465727
:100120009225D12025C9202559120124104E425F65
:100130003824B524DCA24A32841900250E4E4257D9
:10014000A52949C39628698A00260F46425F98640C
:1001500049A6255145B2240027079A5B4FA20028E3
:100160000CDC3E5F548BB2C62C4C00290CDC3E4F9D
:100170009885595316D5002A0C3E465FA53248870C
:10018000A596012B0AAC4A57960C4916012C079BE1
:100190003E8F52022D068C52C7102E089B3E4FB246
:1001A00024002F0A4E426FB11AB6A60030114E42FB
:1001B0005F984459922599966451126600310C4D0E
:1001C000425F2625612D2C0D02320C4E42D794251C
:1001D00059D8EBA000330D4E42CFA086C5394CB2A2
:1001E0006802340D4D42674D4AA2A4346C61023559
:1001F0000F4E42CFA0A415494AC3248B2600360FC8
:100200004E42D79425693A65499664D104370CCD9E
:1002100042C720666156CCC21038124E42D7942590
:100220005992254392255992451300390F4E42D7D2
:1002300094255992456B258B26003A0BC43E5734C2
:10024000E5583445003B0AC43E5734E59854033C16
:100250000ACD4267D6354C2B003D09264ACFA0A3D4
:1002600083023E0A4E424FDC31D3C2143F0CCD42D2
:10027000CF926961D60E6500400F4E42D794255942
:100280009228FD541E120041124E425F984459922A
:1002900025D9B0644996640900420D4E42CF90457D
:1002A0003D4D7D192200430D4E42D794256931AD55
:1002B000451300440D4E42CF9045FD12F5324400E7
:1002C000450D4E42CFA0A4D52149AB8302460C4E2A
:1002D00042CFA0A4D521495B01470F4E42D79425B8
:1002E000693152B2248B260048124E424F9664491F
:1002F0009664C9B0255992255902490ACC42CF9437
:100300003565A5054A0B4E42DF9836A6514D034B85
:10031000114E424F96644954C9B4248B6A499600E1
:100320004C0A4D424FD82D2C0E024D114E424F9685
:100330006489A5172DC9922CC912004E114E424F47
:1003400096488994F4222959922559024F114E4218
:10035000D7942559922599966449164D00500F4E11
:1003600042CF1065499664C990A4AD005111563E24
:10037000D7942559922599966449D39C0052114EE1
:1003800042CF1065499664C99044DD922C01530E0A
:100390004E42D79425692CA749164D00540BCD42E7
:1003A000C720856D611B0055124E424F96644996D9
:1003B0006449A6255992451300560DCD4247E629BA
:1003C000899252926500570F4E424F966449966447
:1003D0004AFF53120158124E424F966451922561C2
:1003E000A8454996640900590DCD4247A625A52484
:1003F0000BB3B0065A0C4E42CFA08669D875500098
:100400005B0C5D3ED714D6C25A589C005C0BCC42A4
:10041000471666C52CCC025D0B5D3ED7D816D6C2FA
:10042000D2045E089D5A5796D4025F060D3EC7203F
:10043000600692634714610C3642D79C0C5B1259DC
:100440001200620F4E424F5A1DA24C4BB2244B86F3
:1004500008630A3642D794A9B56802640F4E426F0A
:10046000D390645A922559342400650C3642D794AF
:1004700025C39A451300660DCD42975409B321CA8E
:10048000C22200670F463AD7942599160D69924506
:100490001300680F4E42575A4C2429C9B4244BB25A
:1004A000046909C342572855A2646A0E553A678EFB
:1004B00088B53089922892006B0D4D4257588B9227
:1004C000929444952C6C0BCC429756CA4A59B4006E
:1004D0006D0C36428F12255D94BE25006E0E36429D
:1004E0004F224949A625599225006F0C3642D794D0
:1004F00025999664D104700E463ACF106549A62519
:1005000043945601710E463AD79064A2160D69982D
:100510004600720B36424F224949985601730C36F9
:1005200042D794457194451300740DC44257960CFC
:1005300049166551A200750D36424F96645A9225B0
:10054000912501760AB54247E694D43200770D36FC
:10055000424F96644945E9298900780C36424F1686
:1005600025614B942500790F463A4F96645A1259EB
:10057000D224CA34007A0B3642CF20D6B47450004D
:100580007B0C5D3E9F1436A9595855007C084A43A0
:100590004F17A5057D0C5E3E8F9C366B615A13018B
:1005A0007E099D5A4FA4245202A005006E07A10A9D
:1005B0004A434F96244A0B00A20E46465F38259DBB
:1005C000922C298D1900A30D4E429F1655C3B11AC6
:1005D000258904A40D36464F166D49946453960040
:1005E000A5114E424F9664519225D120658396669F
:1005F00000A6084A434FA7A405A70FD54297544920
:10060000A54A148949144900A807936347A204A97D
:100610000E4E42D794252D4E8BD22D9A00AA0D3E18
:100620004AD79C0C5B34E4C0A000AB0CB54657D253
:10063000531225599200AC099D4AC720660900ADA6
:10064000060B53C700AE104E46D794254BE2322816
:1006500089258B2600AF068D62C720B009A4568F6E
:1006600012498902B10BBC4657960C49160F01B2CC
:1006700009AC5657252A2D00B309AC568F986889C6
:1006800004B40692638F02B50C463A57972C892A18
:100690004AD714B612CD42CF302443322443D294E9
:1006A0004449942400B7068A538700B806123B8F4A
:1006B00002B909AB5657A244C900BA0D3E4AD794B5
:1006C000259916EDC8A000BB0BB5464F2D89922881
:1006D000E909BC0DD54257A685D91C2DA53101BD10
:1006E0000DD54257A685D99A25596D01BE0ED54222
:1006F0008F1A89910E444B694C00BF0C4D425F0E1E
:1007000085599B962C00C0105642579C8395284BC8
:10071000B261C9922C01C1105642671DAC44599276
:100720000D4B96640900C21256429F16E55098443C
:1007300059920D4B96640900C31256425F12253937
:100740001626519664C392255902C41256425792F6
:1007500025391626519664C392255902C512564270
:100760005F988469984459920D4B96640900C612AB
:100770004E4257A2D4922CC912654BB2244B16009C
:10078000C70D5E3AD794256931AD456311C80F5640
:1007900042579C438392A64392A68302C90F5642B6
:1007A000671D1A94341D92341D1400CA1056429FBE
:1007B00016E5C0A0A4E990A4E9A000CB11564257C9
:1007C0009225393228693A24693A2800CC0CD4425F
:1007D0004F184F59298B1600CD0CD4425F144F5936
:1007E000298B1600CE0CD5429754DEC25A984D0084
:1007F000CF0BD4424FD7292B65D102D00F4E42CF19
:100800009045BD2C51256A192200D11456425F1221
:100810002539922559222589922559922500D210F1
:100820005642579C6353966449A625593401D30F09
:100830005642671D9BB2244B322DC9A209D41156D2
:10084000429F16E5C8942559926949164D00D51264
:1008500056425F12253934654996645A9245130011
:10086000D61256425792253934654996645A9245B4
:100870001300D70C2E464F16259996445902D812CC
:100880005E3E6F3424911229BD28952559A2290571
:10089000D9115642579C4359922599966449164D51
:1008A00000DA105642671DCA922CC9B4244BB268B4
:1008B00002DB1256429F16E540966449A6255992DE
:1008C000451300DC125642579225399225599269F8
:1008D000499664D104DD0CD5425F1DC8B4A456AC62
:1008E00001DE0F4E424F3A44599225513244691568
:1008F000DF0E4D429754899252524A328B02E00EDB
:100900004E42579C6373326C49644900E10D4E427C
:10091000671D9B93614B224B02E20F4E429F16E5EF
:10092000C89C0C5B12591200E30F4E425F1225392E
:100930003427C396449604E40F4E42579225393427
:1009400027C396449604E50F56429F16653A34270E
:10095000C396449604E60D3642D7982443524B4A38
:100960004904E70C463AD79425619A456311E80E8D
:100970004E42579C6353960C6B164D00E90D4E4248
:10098000671D9BB26458B36802EA0F4E429F16E59A
:10099000C89425C39A451300EB0F4E425792253950
:1009A0003465C9B066D104EC0ACB424F164A95288B
:1009B00019ED0BCC425F146BA52C5A00EE0BCD4207
:1009C0009754166B613601EF0BCC424F57AD9445EF
:1009D0000B00F00F564257ACC9D99425999664D1B3
:1009E00004F1124E425F122539924852926949969B
:1009F000640900F20F4E42579C635396645A924525
:100A00001300F30E4E42671D9BB224D3922C9A0022
:100A1000F40F4E429F16E5C89425999664D104F5CB
:100A2000104E425F122539346549A625593401F626
:100A3000104E4257922539346549A625593401F79D
:100A40000BBD46579803831C6600F80E463E6F3474
:100A5000454A45A948D19402F90F4E42579C435943
:100A600092259996449604FA0F4E42671DCA922C1D
:100A7000C9B424B22400FB104E429F16E540966490
:100A800049A625912501FC114E4257922539922500
:100A900059926949644900FD105E3A671DCA924C3B
:100AA0004B224B9A449906FE10563A4F5A91A42471
:100AB000D3122949A43405FF125E3A579225399280
:100AC00025999644963489320D00000004FFFF00FA
:100AD0000000F81111241FBECFEFD8E0DEBFCDBF5C
:100AE00011E0A0E0B1E0EAE3F9E202C005900D9266
:100AF000AA38B107D9F723E0AAE8B1E001C01D92F6
:100B0000AA3CB207E1F715E0CAE6D5E004C0219798
:100B1000FE010E948E14C936D107C9F70E949212B5
:100B20000C949B140C940000662329F06A3019F091
:100B3000862F90E008958FEF9FEF0895CF92DF9278
:100B4000EF92FF920F931F93CF93DF93EC01842FCB
:100B50008770E1E0F0E0082E01C0EE0F0A94EAF79A
:100B60003E2F7E0199E7E90EF11CD7019C9110E020
:100B7000923018F41E2F913029F150E0487FE8ADF3
:100B8000F9ADC880D980D60150969C91949F6001A0
:100B9000959FD00C11246C0D7D2D711DDF01A60FCA
:100BA000B71F011115C08C91812B83278D93215084
:100BB000D1F7DF91CF911F910F91FF90EF90DF90D0
:100BC000CF90089530E0D9CF110F330F222389F34E
:100BD0009C91912B93279C938F5F8770215081115B
:100BE000F3CF9CADA90FB11DF7019081923028F48D
:100BF000913009F031E011E0E9CF31E0E7CF80E05A
:100C000008959B01DC011896ED91FC9141E067E1AC
:100C100009942091E001260F3327331F213231053B
:100C2000ECF420910402FC0190E080E0243069F0B3
:100C300082E00895A091E0012191AC0140545E4F03
:100C4000A40FB52FB11D2C930196861798F38091B0
:100C5000E001680F6093E00180E0089581E008956D
:100C600008958FEF9FEF08958FEF9FEF0895809184
:100C7000B90190E09195819591090895CF93DF9303
:100C8000CB01EA01642F0E940906CE01DF91CF91CA
:100C90000895CF93DF931F92CDB7DEB7698361E0EC
:100CA000CE0101960E94090681E090E00F90DF914D
:100CB000CF910895833081F028F4813099F082300B
:100CC000A9F008958730A9F08830C9F08430B1F4D4
:100CD000809180008F7D03C0809180008F7780930A
:100CE0008000089584B58F7784BD089584B58F7D85
:100CF000FBCF8091B0008F778093B00008958091F2
:100D0000B0008F7DF9CF1F93CF93DF93282F30E072
:100D1000F901E652FF4F8491F901EA53FF4FD49154
:100D2000F901EE54FF4FC491CC23A9F0162F811185
:100D30000E945A06EC2FF0E0EE0FFF1FE855FF4F20
:100D4000A591B4918FB7F894EC91111108C0D0958A
:100D5000DE23DC938FBFDF91CF911F910895DE2BAF
:100D6000F8CF90E0FC01EA53FF4F24918E549F4F3F
:100D7000FC018491882399F090E0880F991FFC0171
:100D8000E256FF4FA591B491FC01E855FF4F8591C4
:100D900094918FB7F894EC91E22BEC938FBF089568
:100DA0003FB7F8948091B5019091B601A091B70139
:100DB000B091B80126B5A89B05C02F3F19F0019648
:100DC000A11DB11D3FBFBA2FA92F982F8827BC01A5
:100DD000CD01620F711D811D911D42E0660F771FCD
:100DE000881F991F4A95D1F708958F929F92AF92CD
:100DF000BF92CF92DF92EF92FF926B017C010E9433
:100E0000D0064B015C01C114D104E104F104B9F036
:100E10000E94D006681979098A099B09683E7340C7
:100E20008105910580F321E0C21AD108E108F1089B
:100E300088EE880E83E0981EA11CB11CE4CFFF90C1
:100E4000EF90DF90CF90BF90AF909F908F900895DC
:100E5000AF92BF92CF92DF92EF92FF920F931F93C8
:100E6000CF93DF936C017B018B01040F151FEB0106
:100E70005E01AE18BF08C017D10759F06991D601BD
:100E8000ED91FC910190F081E02DC6010995892B2F
:100E900079F7C501DF91CF911F910F91FF90EF90EE
:100EA000DF90CF90BF90AF900895FC01538D448D9B
:100EB000252F30E0842F90E0821B930B541710F005
:100EC000CF96089501970895FC01918D828D981712
:100ED00061F0A28DAE0FBF2FB11D5D968C91928DEA
:100EE0009F5F9F73928F90E008958FEF9FEF08951B
:100EF000FC01918D828D981731F0828DE80FF11DE4
:100F0000858D90E008958FEF9FEF0895FC01918DFE
:100F1000228D892F90E0805C9F4F821B91098F73F7
:100F2000992708958AE292E00E94860721E0892BA2
:100F300009F420E0822F089580E090E0892B29F0C9
:100F40000E94920781110C9400000895FC01A48D69
:100F5000A80FB92FB11DA35ABF4F2C91848D90E0DB
:100F600001968F739927848FA689B7892C93A089BE
:100F7000B1898C91837080648C93938D848D981348
:100F800006C00288F389E02D80818F7D80830895DB
:100F9000EF92FF920F931F93CF93DF93EC0181E0C9
:100FA000888F9B8D8C8D98131AC0E889F989808170
:100FB00085FF15C09FB7F894EE89FF896083E889A3
:100FC000F98980818370806480839FBF81E090E095
:100FD000DF91CF911F910F91FF90EF900895F62E22
:100FE0000B8D10E00F5F1F4F0F731127E02E8C8DBC
:100FF0008E110CC00FB607FCFACFE889F989808101
:1010000085FFF5CFCE010E94A607F1CFEB8DEC0F47
:10101000FD2FF11DE35AFF4FF0829FB7F8940B8F1D
:10102000EA89FB8980818062CFCFCF93DF93EC0187
:10103000888D8823B9F0AA89BB89E889F9898C91C0
:1010400085FD03C0808186FD0DC00FB607FCF7CF7C
:101050008C9185FFF2CF808185FFEDCFCE010E947C
:10106000A607E9CFDF91CF910895DC011A96ED91A3
:10107000FC9130E020E00994DC011696ED91FC91A2
:1010800030E020E040E069E10994DC011696ED9142
:10109000FC9130E020E040E068E109949A01DC0135
:1010A0001696ED91FC91462F67E10994EF92FF921D
:1010B0000F931F93CF93DF931F92CDB7DEB77C01C1
:1010C0008B01D8016C91673129F150F46531A0F49E
:1010D0000F90DF91CF911F910F91FF90EF900895A6
:1010E0006A3118F16E3FA1F7F8014181498369E245
:1010F000C7010E9435080BC0F80141814983D7011F
:101100001696ED91FC9130E020E0C70109950E5F45
:101110001F4FD7CFF80181818983AE014F5F5F4FA9
:1011200061E0C7010E944E08F2CF0F5F1F4FD70149
:101130001696ED91FC9130E020E040E0C701099562
:10114000C0CF462FDC011696ED91FC9130E020E0F7
:1011500066E10994462FDC011696ED91FC9130E092
:1011600020E065E10994EF92FF920F931F93CF93D4
:10117000DF93EC01042F79016D3009F446C050F47F
:101180006B30C9F1693009F49FC06A3009F465C059
:1011900080E046C06E3009F452C06F3099F70E946B
:1011A0004508F7011381110F110F110F6C89160FEC
:1011B00060E4CE010E94AA08612F62956F706061A1
:1011C000CE010E94AA08612F6F70CE010E94A10873
:1011D000F7016481606BCE010E94A108F701408194
:1011E00051816281660F660F660FCE010E944E0824
:1011F0000150A1F72EC063E171E0442311F06EE0CD
:1012000071E0CE010E9456080AC0411110C067E08B
:1012100071E00E945608E881F98182898C8B81E017
:10122000DF91CF911F910F91FF90EF90089560E0B3
:1012300071E00E945608E881F9818389EFCF0E940E
:10124000450861E8CE010E94AA08602FCE010E94E5
:10125000A108CE010E943C08E2CFEA85FB8530E080
:1012600020E040E068E2CE010995EE81FF8130E0A8
:1012700020E040E064E1CE01099541E06BE4CE015D
:101280000E943508E881F981448169E2CE010E941B
:10129000350840E06BE4CE010E943508E881F98111
:1012A000448169E2CE010E94350841E06BE4CE0141
:1012B0000E943508E881F981458169E2CE010E94EA
:1012C000350868E171E09DCF8DE491E099838883D2
:1012D0001C8AA5CFCF93DF931F92CDB7DEB769836A
:1012E000BE016F5F7F4F0E9401060F90DF91CF918B
:1012F0000895462FDC011896ED91FC9130E020E036
:1013000060E20994EF92FF920F931F93CF93DF93C4
:101310008C01C62FD42F7901673130F46531B8F4D0
:10132000643131F080E01BC0673101F16A31D0F7E0
:10133000D8011896ED91FC9197014D2F6C2FC801A3
:10134000DF91CF911F910F91FF90EF90099460E092
:101350000E9479096D2FC8010E946A0981E0DF911E
:10136000CF911F910F91FF90EF90089561E00E943F
:101370007909DECF0F93DC01DE963C91DE97431BAB
:10138000D496ED91FC9109950F910895CF93DF9339
:10139000FC01A081B18182AD982F990F990F990F0F
:1013A00095AF50969C915097990F990F990F94AFC4
:1013B00023AD922F990F990F990F96AF51963C91AB
:1013C0005197682F620F7727771F3617170614F487
:1013D000832F821B97AFEF01C05CDF4F880F880F10
:1013E000880F890F8883219680EF888354968D918A
:1013F0009C915597813F910508F48883EE5BFF4FE0
:1014000056968C918083DF91CF9108950F93FC01C4
:10141000EB5BFF4F308131965081451730F4301728
:1014200038F0041728F080E013C03017D0F3FBCF5A
:10143000FC01ED5BFF4F30818C5B9F4FFC01808195
:10144000681740F481E0321718F081E0261758F74A
:101450000F9108953217C8F3E6CF2F923F924F9223
:101460005F926F927F928F929F92AF92BF92CF9234
:10147000DF92EF92FF920F931F93CF93DF93EC01D4
:101480004C0183E4880E911CF40110823297208075
:101490005E01F4E4AF0EB11CF50120823FAC6E0199
:1014A000F5E4CF0ED11CF6013082359740807E01E5
:1014B000F6E4EF0EF11CF70140823496108132976A
:1014C00060803196708032975080012F262D472DF5
:1014D000652DCE010E94060ACD58DF4F811114C040
:1014E0001882DF91CF911F910F91FF90EF90DF90C5
:1014F000CF90BF90AF909F908F907F906F905F90B4
:101500004F903F902F90089581E08883552011F0EF
:10151000F4015082621410F4F5016082371410F463
:10152000F60170821415E8F6F7011083DACF0F93F5
:10153000DC01802FFD01ED58FF4F90819923E9F1E7
:101540002223D9F1223020F0023079F56F5F621B3F
:10155000082F0170FD0180FD32C0EB5BFF4F8081E1
:10156000481758F131968081481738F532979081A5
:1015700031978081260F2617F0F46917D8F42FEFE2
:10158000290F8217D0F4681708F4682F291708F478
:10159000922F961BD696ED91FC91D7970480F581FA
:1015A000E02D292FCD01099508C0033089F64F5F42
:1015B000421BCECF682F691720F30F910895ED5B82
:1015C000FF4F80816817C8F3319680816817A8F7AC
:1015D0003296908131978081240F241778F449172F
:1015E00060F42FEF290F821740F7481708F4482FAF
:1015F000291708F4922F941BCDCF482F4917E8F6EE
:10160000F2CF213039F020F0223031F0840F0895EC
:10161000860F0895841B0895861B0895213039F0A4
:1016200020F0223031F0861B0895840F0895860F34
:101630000895841B08955F926F927F928F929F927C
:10164000AF92BF92CF92DF92EF92FF920F931F93D0
:10165000CF93DF935C01162F642EEC01C15BDF4F4B
:10166000DC80ED804C0189E7880E911CFE80FD181E
:10167000C12EF11608F4CF2C5B800C85202F4E2D47
:101680006D2D8A810E94010B782E202F4E2D6D2DFD
:10169000852D0E940E0B482F662071F08A85F4017B
:1016A00080832C2D672DC5010E94970A1F1548F0D5
:1016B0001F19E394D12CDACF89858111F7CF8B855F
:1016C000EECF1D0D1C83ED82DF91CF911F910F9105
:1016D000FF90EF90DF90CF90BF90AF909F908F9052
:1016E0007F906F905F900895DC0118964C91189749
:1016F000ED91FC911197249130E0042E02C03595B4
:1017000027950A94E2F7842F860F883068F0319687
:101710001196FC93EE93E49198E0941B01C0EE0FB8
:101720009A95EAF72E2B885018968C938FEF9FEF9F
:1017300001C0880F6A95EAF7809582230895FC011D
:10174000E60FF11D849190E0982F88273196E4915F
:101750008E0F911D0895CF93DF93EC016BAFEEA92F
:10176000FFA90190F081E02D0995EEA9FFA9028063
:10177000F381E02DCE01DF91CF910994AF92BF921A
:10178000CF92DF92EF92FF920F931F93CF93DF934D
:1017900000D000D01F92CDB7DEB78C01DC01DA9605
:1017A000AC90DA97DB96EC90DB97ED91FC91B188E9
:1017B000FE2CD12CC12CD801ED91FC911197808980
:1017C000D8962D913C911C82FD828B83B8E08B9F33
:1017D000C00111248C9DA0018D9D500D9C9D500D2C
:1017E0001124240F351F3A832983D8011496ED91D3
:1017F000FC919E012F5F3F4F41E06FE0C8010995CA
:10180000F3948F2D8E198A1528F4BFEFCB1ADB0ABB
:10181000FB1488F20F900F900F900F900F90DF91B4
:10182000CF911F910F91FF90EF90DF90CF90BF90DD
:10183000AF9008956A3148F46831E0F46431A1F062
:10184000F901673141F080E008956032E1F76AE420
:101850000E9435080FC0442369F081918EBD0DB4FC
:1018600007FEFDCF4150F7CF2A9A80E58CBD579AED
:10187000259A239A81E008950F931F93CF93DF93C6
:10188000EC01862F642F8C3208F03AC08A3208F0BF
:1018900060C0883209F44BC0893209F460C08034DA
:1018A00008F475C0982F9F73FE01E90FF11D868D16
:1018B0008F3F09F44EC0903108F436C0282F30E035
:1018C000F901E652FF4F8491F901EA53FF4F049169
:1018D000F901EE54FF4F1491112379F081110E9408
:1018E0005A06E12FF0E0EE0FFF1FE859FF4FA591D8
:1018F000B491EC910E2381E009F480E0898F29C036
:101900008D3299F108F4CBCF94EB980F923008F018
:10191000C6CF8F73C80FD11D8E8D411134C061E0C9
:101920000E94B10660E08E8D0E94830612C08E0177
:10193000025E1F4FD0E0F80181918F018F3F31F09F
:1019400061E0D03108F062E00E94B106DF5FD6317D
:1019500091F781E0DF91CF911F910F91089570E091
:1019600090E080E00E94F506F4CF85E090E04330FF
:1019700010F082E090E0880F991F880F991F05975B
:101980000197F1F7E6CF62E00E94B106E2CF80E076
:10199000E1CFCF92DF92EF92FF920F931F93CF93FD
:1019A000DF936C01EB017B01E40EF51E10E000E01B
:1019B000CE15DF0561F06991D601ED91FC910190A2
:1019C000F081E02DC6010995080F191FF1CFC8015C
:1019D000DF91CF911F910F91FF90EF90DF90CF900B
:1019E00008952F923F924F925F926F927F928F92C3
:1019F0009F92AF92BF92CF92DF92EF92FF920F939E
:101A00001F93CF93DF9300D000D000D0CDB7DEB7C7
:101A10007C016C0124E0C20ED11CFC01E158FF4F97
:101A20000190F081E02DC60109958C018E3F9F4FFA
:101A300008F05BC0370182E8680E711CF301F08189
:101A4000FB83470121E8820E911CF401F081FD83A4
:101A50009701215A3F4F3A832983F90180818130D0
:101A600009F46AC008F45CC0823009F471C08330A4
:101A700009F47AC0F701EB5AFF4F2D81208331968C
:101A80003B81308337978081918147969C838B83FC
:101A90000F3F110511F008F015C1B496013611057C
:101AA00030F40134110558F0F701EF58FF4F8081F1
:101AB00091812B813C81280F391F3C832B838B81A3
:101AC0009C810196FC01249121115AC0412CE9818D
:101AD000FA818081813009F492C108F48BC182308F
:101AE00009F48FC1833009F491C181E090E026961A
:101AF0000FB6F894DEBF0FBECDBFDF91CF911F911F
:101B00000F91FF90EF90DF90CF90BF90AF909F909C
:101B10008F907F906F905F904F903F902F9008959F
:101B2000F701EF5AFF4F0190F081E02DC6010995B2
:101B3000FB81F80FFB839ECFF701EF5AFF4F019017
:101B4000F081E02DC60109952D81281B2D8392CFB0
:101B5000F701EF5AFF4F0190F081E02DC601099582
:101B60003B81381B3B8386CFF701EF5AFF4F019033
:101B7000F081E02DC60109959D81980F9D837ACF54
:101B8000EB81FC8124912017110609F094C0CF014C
:101B90000296009709F49ACFF701ED5AFF4FFE83A2
:101BA000ED83918380831086719660818D819E8103
:101BB0000E94740BED81FE818683F701EB59FF4F84
:101BC00060818D819E810E94740B582EED81FE8173
:101BD0008783970123583F4F3C832B83F9019081E2
:101BE000ED81FE81928781E0911180E0ED81FE819F
:101BF0008387F701EA59FF4FB0806B2D8D819E815D
:101C00000E94740B382EF701E959FF4F2080622D96
:101C10008D819E810E94740B182FF701E859FF4FA8
:101C20000081602F8D819E810E94740B015021E004
:101C300030E0A90101C0440F0A95EAF7482E441A82
:101C4000ED81FE81068110160CF041CFBA94C901D6
:101C500001C0880FBA94EAF7381AB484150D2A9493
:101C600001C0220F2A94EAF7A22EA11A2B2D4A2D89
:101C7000632D82810E94010B182FED81FE818283EA
:101C80002B2D4A2D632D83810E940E0BED81FE8149
:101C90008383F1E0BF1609F493C0BF1608F450C067
:101CA00022E0B21609F492C033E0B31609F499C0E9
:101CB000082F212F49C0FC0184912B813C81280FE2
:101CC000311DFBCEF701EB58FF4F80819181EB81F5
:101CD000FC81E80FF91FFC83EB835F0160E0C50125
:101CE0000E949F0B2B813C81280F391F3C832B8343
:101CF00062E0C5010E949F0B34E0A30EB11C801767
:101D0000910760F3EB81FC81849190E0982F882704
:101D10003196E4918E2B009709F4D8CE0817190755
:101D200021F48B819C81039634CFEB81FC81329628
:101D3000E4912B813C812E0F311D3C832B83E2CF1C
:101D4000202F210F082F050D482F612FC6010E945B
:101D5000060A882309F4BBCEED81FE811482158228
:101D60005701F2E6AF0EB11C23E6E20EF11CF501BD
:101D700060818D819E810E94740B082FF701608124
:101D80008D819E810E94740B182F40E0602FC60148
:101D90000E941B0B41E0612FC6010E941B0B61E0FA
:101DA0008D819E810E94740B8111EFCFED81FE81A8
:101DB00085818515E4F28285EB81FC81808387CE65
:101DC000B51821E0210F080F1B0DBECF91E0392F70
:101DD000301B21E0210F951901E0080F890F130F27
:101DE000B3CF212F250D982F901B01E0080F81E024
:101DF000890FAACFF4018081480E408276CEF3018C
:101E0000FACFF4018081841980836FCEF301FACF79
:101E10000F931F93CF93DF938C01D0E0C0E0F801C4
:101E2000EC0FFD1F6491662341F087E493E00E946C
:101E3000F10C892B11F02196F2CFCE01DF91CF91D9
:101E40001F910F910895089590E080E008958F927A
:101E50009F92AF92BF920F931F93CF93DF93CDB713
:101E6000DEB7A1970FB6F894DEBF0FBECDBF19A2A3
:101E7000423008F44AE08E010F5D1F4F842E912CF2
:101E8000B12CA12CA50194010E946C14E62FB9017C
:101E9000CA01EA3044F5E05DD801EE938D01232BB1
:101EA000242B252B79F790E080E0109769F0FD0155
:101EB00001900020E9F73197AF014A1B5B0BBD0190
:101EC00087E493E00E94C90CA1960FB6F894DEBF98
:101ED0000FBECDBFDF91CF911F910F91BF90AF90FB
:101EE0009F908F900895E95CD7CF1F93CF93DF9396
:101EF00085ED8093BC008091BC019091BD01A091C3
:101F0000BE01B091BF010796A11DB11D23E0B6959A
:101F1000A795979587952A95D1F72091BC0024FD28
:101F200003C01092040252C04091BC015091BD0107
:101F30006091BE017091BF01452B462B472B69F381
:101F40000097A105B10541F025E32A95F1F70000BE
:101F50000197A109B109E1CF8091BB01C1E0C09314
:101F6000BA01882399F1D091B8001091BA008091FC
:101F7000BC008A7B8093BC0060E082E10E94830603
:101F800060E083E10E94830610920402C09306027F
:101F90001092050261E082E10E94830661E083E124
:101FA0000E9483068091B9008E7F8093B900809152
:101FB000B9008D7F8093B90088E48093B80085E4F0
:101FC0008093BC001093BA00D093B800DF91CF91FA
:101FD0001F910895FC01A081B18150962C9182AD92
:101FE00038E0839FC0011124289FA001299F500D34
:101FF000112470E060E080AD91AD0C9494141F93B7
:10200000CF93DF93EC010E94BE0B1BAD8AAD180F7E
:10201000E881F9818189181768F0EC81FD8130E051
:1020200020E040E060E1CE01099580E0DF91CF91B2
:102030001F910895FE01E658FF4F8081882319F013
:10204000CE010E94EA0F612FCE010E94AB0B81E00E
:10205000EDCFCF93DF93EC01FC01E658FF4F808179
:10206000882319F0CE010E94EA0F60E0CE01DF91D3
:10207000CF910C94AB0B1F920F920FB60F921124BD
:102080002F933F934F935F936F937F938F939F9380
:10209000AF93BF93EF93FF938091B900887F803611
:1020A00009F44AC0F0F5883209F4A5C018F580316A
:1020B00009F499C0B8F4882309F4F5C0883009F40C
:1020C00092C0FF91EF91BF91AF919F918F917F91BE
:1020D0006F915F914F913F912F910F900FBE0F9095
:1020E0001F901895883109F486C0803251F780938B
:1020F000030214C0803409F49BC040F48033B9F368
:102100008833F9F68093030285ECAEC0803509F47C
:1021100083C0883509F494C0883499F60E94750FFD
:10212000D0CF883909F48AC038F5883729F050F4BF
:10213000883611F0803729F683E0809304021092EC
:10214000020255C0883809F479C0803919F0803806
:1021500009F0B7CF80910202803208F06FC0E091A1
:10216000020281E08E0F809302028091BB00F0E0BA
:10217000EE51FE4F80833BC0803B39F0D0F4803A73
:1021800009F477C0883A09F09CCF84E08093040278
:102190001092E1011092E001F0E0E0E009958091F9
:1021A000E00181110FC081E08093E0011092C00135
:1021B00009C0803C09F4A8CF883C09F4A5CF883B2E
:1021C00009F07FCFE091E10181E08E0F8093E10182
:1021D000F0E0E054FE4F80818093BB009091E101DC
:1021E0008091E00129C0809129028093BB0085EC99
:1021F0008093BC0066CF90912802809127029817A7
:1022000058F5E091280281E08E0F80932802F0E0DB
:10221000E95FFD4F8081E9CFE091280281E08E0FD8
:10222000809328028091BB00F0E0E95FFD4F80833E
:1022300090912802809127029817C8F285E8D8CF9C
:10224000E091280281E08E0F809328028091BB00EC
:10225000F0E0E95FFD4F80838091060281115ECF3F
:1022600081E08093050284EA8093BC00109204020E
:1022700028CF85EC8093BC0010920402809102026A
:10228000803230F4E0910202F0E0EE51FE4F108215
:102290006091020270E082EE91E0F0E0E0E00995EA
:1022A000109202020ECF1092030238CF1F920F92AB
:1022B0000FB60F9211242F933F938F939F93AF9359
:1022C000BF938091B1019091B201A091B301B091FF
:1022D000B4013091B00123E0230F2D3758F501965A
:1022E000A11DB11D2093B0018093B1019093B20163
:1022F000A093B301B093B4018091B5019091B60160
:10230000A091B701B091B8010196A11DB11D8093B4
:10231000B5019093B601A093B701B093B801BF91F6
:10232000AF919F918F913F912F910F900FBE0F9082
:102330001F90189526E8230F0296A11DB11DD2CF3C
:102340001F920F920FB60F9211242F933F934F932A
:102350005F936F937F938F939F93AF93BF93EF930D
:10236000FF938AE292E00E94A607FF91EF91BF914E
:10237000AF919F918F917F916F915F914F913F911D
:102380002F910F900FBE0F901F9018951F920F92D4
:102390000FB60F9211242F938F939F93EF93FF9378
:1023A000E0913A02F0913B028081E0914002F0918D
:1023B000410282FD1BC09081809143028F5F8F7329
:1023C00020914402821741F0E0914302F0E0E65D83
:1023D000FD4F958F80934302FF91EF919F918F91D5
:1023E0002F910F900FBE0F901F9018958081F4CF02
:1023F000CF93DF93EAE2F2E01382128288EE93E059
:10240000A0E0B0E084839583A683B78389E691E05A
:102410009183808385EC90E09587848784EC90E0BD
:102420009787868780EC90E0918B808B81EC90E0A1
:10243000938B828B82EC90E0958B848B86EC90E082
:10244000978B868B118E128E138E148EC7E4D3E079
:102450001B821A8284E995E09093C7038093C60398
:102460001092C8031092C9031C8E8BE791E09983E8
:10247000888383EB98E09987888782E899E09B8737
:102480008A878AE19CE09D878C878CE39CE09F870C
:102490008E8730E020E040E069E08BE493E00E942A
:1024A000B30810929703109296038EE995E099AFC6
:1024B00088AF87EC92E09DAF8CAF81E08EAF1FAE0E
:1024C0001092A3031092C3038093C4038093C503A7
:1024D00083E891E09BAF8AAF8BE493E00E94C6094A
:1024E00010929203109294038FEF80939303809342
:1024F0009503EAADFBAD0280F381E02D8BE493E020
:1025000009958FEF95E0909399038093980310922B
:10251000A60387E08BA786E08CA788E08DA7DF91D4
:10252000CF910895789484B5826084BD84B581602C
:1025300084BD85B5826085BD85B5816085BD80918E
:102540006E00816080936E00109281008091810006
:1025500082608093810080918100816080938100FE
:10256000809180008160809380008091B1008460C0
:102570008093B1008091B00081608093B000809121
:102580007A00846080937A0080917A0082608093E0
:102590007A0080917A00816080937A0080917A003D
:1025A000806880937A001092C100E0913A02F09125
:1025B0003B0282E08083E0913602F0913702108284
:1025C000E0913802F09139028FEC80831092420240
:1025D000E0913E02F0913F0286E08083E0913C0270
:1025E000F0913D02808180618083E0913C02F09116
:1025F0003D02808188608083E0913C02F0913D0241
:10260000808180688083E0913C02F0913D0280816E
:102610008F7D8083E0914F03F091500330E020E004
:1026200040E06AE08BE493E009958BE493E00E943C
:1026300029108BE493E00E94FF0F8111FACF60E034
:102640008BE493E00E94AB0BE0914F03F0915003B9
:1026500030E020E040E06BE08BE493E00995CEEEC3
:10266000D0E008EF10E069EFE62E60E0F62E7AEF9A
:10267000C72E70E0D72E80919603909197038E5EBF
:10268000904009F492C0D0939703C0939603EEEE66
:10269000F0E084918093A703EFEEF0E084918093C3
:1026A000A803E0EFF0E084918093A903E1EFF0E06C
:1026B00084918093AA03E2EFF0E084918093AB03CE
:1026C000E3EFF0E084918093AC03E4EFF0E08491D9
:1026D0008093AD03E5EFF0E084918093AE03E6EFE5
:1026E000F0E084918093AF03E7EFF0E08491809372
:1026F000B003F80184918093B103F7018491809332
:10270000B203F60184918093B303EBEFF0E0E49120
:10271000E093B403ECEFF0E0E491E093B503EDEF68
:10272000F0E0E491E093B603EEEFF0E0E491E093A3
:10273000B70361E18EEE90E00E949F0B9093B90386
:102740008093B80363E18EEE90E00E949F0B90931C
:10275000BB038093BA0365E18EEE90E00E949F0B6D
:102760009093BD038093BC0380919603909197034F
:10277000892BD9F08091B4038093C0036091B50395
:102780006093C1039091BF03992379F0913009F0D0
:1027900088C09091B603891714F49093C003809178
:1027A000B703861714F48093C1038BE493E00E946F
:1027B000291080E4482E9AE0392E29E1722E36E461
:1027C000232E48E2542E57E3652E40927C008091E0
:1027D0007A00806480937A0080917A0086FDFCCF35
:1027E00080917800909179009093AF018093AE0131
:1027F0001092C8033092C90388E990E00E94080F44
:102800001092C8037092C9038CE890E00E94080FF0
:102810002092C8037092C9038090AE019090AF01DE
:10282000092C000CAA08BB084AE0C501B401B7FE98
:102830000DC06DE287E493E00E94F10C66277727D4
:10284000CB01681979098A099B094AE00E94270F80
:102850001092C8035092C9038AE790E00E94080FC3
:102860001092C8036092C90382E790E00E94080FAB
:102870008BE493E00E94FF0F8111A7CF64E670E024
:1028800080E090E00E94F50680E090E0892B09F45A
:10289000F2CE0E949207882309F4E3CE0E94000042
:1028A000E0CE5091B1034091B303082E000C990B78
:1028B000242F042E000C330B250F311D57FD3A95A4
:1028C000821793071CF4540F5093C00346170CF063
:1028D0006CCF4093C10369CFA1E21A2EAA1BBB1B88
:1028E000FD010DC0AA1FBB1FEE1FFF1FA217B307DC
:1028F000E407F50720F0A21BB30BE40BF50B661FF2
:10290000771F881F991F1A9469F7609570958095B5
:1029100090959B01AC01BD01CF010895EE0FFF1F03
:102920000590F491E02D0994DC0101C06D934150B4
:0A2930005040E0F70895F894FFCF3F
:10293A001815A015C019FF1815A115C819FF1815E3
:10294A00AE19FF1815AF19FF1815AE15D516801553
:10295A00A8163F15D316001540158D161415201606
:10296A000015A115C815DA1612158116CF15D91634
:10297A00F115DB1640152E15A415A619FF00011432
:10298A000A6464323200127A0000042896100800A1
:10299A00008000400000000000C8072807550715FE
:1029AA000886076407780700000000F10CC90C24A8
:0A29BA000F230FC6092D0ABA090009
:00000001FF
