:100000000C9434000C9451000C9451000C94510049
:100010000C9451000C9451000C9451000C9451001C
:100020000C9451000C9451000C9451000C9451000C
:100030000C9451000C9451000C9451000C945100FC
:100040000C9451000C9451000C9451000C945100EC
:100050000C9451000C9451000C9451000C945100DC
:100060000C94E1020C94510011241FBECFEFD8E094
:10007000DEBFCDBF11E0A0E0B1E0E4ECFCE002C0E7
:1000800005900D92A632B107D9F721E0A6E2B1E0C2
:1000900001C01D92A439B207E1F70E947E000C94C2
:1000A00097050C9400000F93CF93DF9300D0CDB74A
:1000B000DEB788E4898301E021E041E060E070E0A0
:1000C00089810E94B601CE01029621E042E0BC0186
:1000D00089810E943B0101E021E040E060E070E0A6
:1000E00089810E94B601CE010296FC018081918136
:1000F0000F900F90DF91CF910F910895CF93DF93E1
:10010000CDB7DEB72A970FB6F894DEBF0FBECDBFCE
:100110008FE590E0FC0120818FE590E02068FC01F4
:1001200020830E9491048EE30E94AC0480E094EC52
:10013000A9E0B0E089839A83AB83BC830000898106
:100140009A81AB81BC81AC01BD014150510961096B
:10015000710949835A836B837C83892B8A2B8B2B70
:1001600071F70E9453009E838D8380E094ECA9E098
:10017000B0E089839A83AB83BC8380E091E00E94E6
:10018000C7048D819E819C0140E050E02F83388719
:1001900049875A876F81788589859A850E94E70407
:1001A0008DE091E00E94C704BECFCF93DF93CDB71F
:1001B000DEB71092260181E0809328011092290178
:1001C00088E290E0FC018081482F82E1282F30E016
:1001D00081E090E002C0880F991F2A95E2F7242F52
:1001E000282B88E290E0FC01208388E290E0FC016B
:1001F0008081482F83E1282F30E081E090E002C029
:10020000880F991F2A95E2F7242F282B88E290E087
:10021000FC01208389EB90E0FC01208189EB90E0D8
:100220002E7FFC01208389EB90E0FC01208189EB8B
:1002300090E02D7FFC01208388EB90E028E4FC0116
:1002400020838CEB90E025E4FC0120830000DF910B
:10025000CF910895CF93DF930F92CDB7DEB7898307
:100260008AEB90E02981220FFC01208300000F908F
:10027000DF91CF910895CF93DF9300D000D000D0CD
:10028000CDB7DEB78A837C836B834D832E838D81CC
:10029000813218F080E061C000008091260188233F
:1002A000D9F781E0809326018E81809328018FEF1A
:1002B0008093930110924E018D81815080934F0164
:1002C00081E0809327018A81882F90E0880F991F11
:1002D000982F80912701892B8093270180912901F4
:1002E000813071F4109229018BEB90E0209127016D
:1002F000FC0120838CEB90E025ECFC01208307C0FF
:100300008CEB90E025EEFC01208301C00000809181
:1003100026018130D9F380914E019D81891718F40F
:1003200080914E018D83198213C08981282F30E07E
:100330008981882F90E04B815C81840F951F225D1D
:100340003E4FF9012081FC01208389818F5F8983E1
:1003500099818D81981748F38D8126960FB6F89470
:10036000DEBF0FBECDBFDF91CF9108950F93CF9326
:10037000DF9300D000D000D00F92CDB7DEB78A83D4
:100380007C836B834D832E830F838D81813218F0A4
:1003900081E06CC00000809126018823D9F782E0BB
:1003A000809326018F81809328018FEF80939301A2
:1003B00010924E018D8180934F01198213C0898163
:1003C000882F90E02B813C81280F391F8981882F4D
:1003D00090E0F9012081825D9E4FFC01208389819C
:1003E0008F5F898399818D81981748F31092270137
:1003F0008A81882F90E0880F991F982F809127017C
:10040000892B8093270180912901813071F410920A
:1004100029018BEB90E020912701FC0120838CEBDC
:1004200090E025ECFC01208307C08CEB90E025EEEA
:10043000FC01208301C000008E81882321F080917F
:1004400026018230C1F3809193018F3F11F480E047
:100450000DC080919301803211F482E007C0809139
:100460009301803311F483E001C084E027960FB636
:10047000F894DEBF0FBECDBFDF91CF910F910895ED
:10048000CF93DF9300D000D0CDB7DEB79B838A83B4
:100490006C838C81813210F081E023C08091260131
:1004A000843011F082E01DC08C818093710119822B
:1004B00013C08981882F90E02A813B81280F391F42
:1004C0008981882F90E0F9012081805B9E4FFC019B
:1004D000208389818F5F898399818C81981748F364
:1004E00080E00F900F900F900F90DF91CF910895C3
:1004F000CF93DF9300D0CDB7DEB79A83898389810C
:100500009A8190932D0180932C0100000F900F9001
:10051000DF91CF910895CF93DF9300D0CDB7DEB7B1
:100520009A83898389819A8190932B0180932A01F0
:1005300000000F900F90DF91CF910895CF93DF933C
:100540000F92CDB7DEB789838981882331F08CEB98
:1005500090E025ECFC01208305C08CEB90E025E8C1
:10056000FC01208300000F90DF91CF910895CF937D
:10057000DF93CDB7DEB78CEB90E025EDFC01208357
:1005800001C000008CEB90E0FC018081882F90E09E
:1005900080719927892BA9F7109226010000DF911D
:1005A000CF910895CF93DF93CDB7DEB78CEB90E07A
:1005B00025ECFC012083109226010000DF91CF91F1
:1005C00008951F920F920FB60F9211242F933F930D
:1005D0004F935F936F937F938F939F93AF93BF934B
:1005E000EF93FF93CF93DF93CDB7DEB789EB90E026
:1005F000FC018081882F90E0887F9927893C9105B4
:100600000CF025C199230CF423C1092E000CAA0B70
:10061000BB0B893C9105A105B10508F019C18756AE
:100620009A4FFC010C9479058BEB90E02091270107
:10063000FC01208381E00E949E020AC190914E013C
:1006400080914F019817A0F480914E0191E0980F8E
:1006500090934E01282F30E08BEB90E0225D3E4FCF
:10066000F9012081FC01208381E00E949E02F0C0FC
:1006700080912801882319F00E94B702E9C081E027
:10068000809329018CEB90E024EAFC0120831092F6
:100690002601DEC080E2809393010E94B702D8C099
:1006A00080E3809393010E94B702D2C088E38093D5
:1006B00093010E94D202CCC02BEB30E080914E011E
:1006C00091E0980F90934E01882F90E0F9012081DE
:1006D000825D9E4FFC01208390914E0180914F01DD
:1006E000981720F481E00E949E02B2C080E00E9430
:1006F0009E02AEC02BEB30E080914E0191E0980F4E
:1007000090934E01882F90E0F9012081825D9E4FE9
:10071000FC01208380912801882319F00E94B702F0
:1007200097C081E0809329018CEB90E024EAFC01E2
:100730002083109226018CC00E94B70289C083E0FA
:10074000809326011092920181E00E949E0280C057
:10075000809192018032A0F42BEB30E080919201E5
:1007600091E0980F90939201882F90E0F9012081F9
:100770008E589E4FFC01208381E00E949E0268C03B
:1007800080E00E949E0264C080919201803240F419
:1007900080919201882F90E08E589E4FFC0110822C
:1007A0000E94B70220912C0130912D01809192017D
:1007B000882F90E0BC0182E791E0F9010995109241
:1007C00092010E94D20244C080E00E949E0240C07A
:1007D00084E0809326011092700110927101809143
:1007E0002A0190912B01FC010995809171018823C8
:1007F00029F481E080937101109250018091700181
:1008000091E0980F90937001282F30E08BEB90E0EF
:10081000205B3E4FF9012081FC0120839091700103
:1008200080917101981720F481E00E949E0210C00F
:1008300080E00E949E020CC081E00E949E02109205
:10084000260106C0109293010E94B70201C0000069
:100850000000DF91CF91FF91EF91BF91AF919F91F8
:100860008F917F916F915F914F913F912F910F9059
:100870000FBE0F901F9018958F929F92AF92BF92CC
:10088000CF92DF92EF92FF92CF93DF93CDB7DEB797
:1008900028970FB6F894DEBF0FBECDBF29833A83E9
:1008A0004B835C836D837E838F8398870000898070
:1008B0009A80AB80BC80CD80DE80EF80F884282DCC
:1008C000392D4A2D5B2D6C2D7D2D8E2D9F2DAFEF5B
:1008D0000E947F0529833A834B835C836D837E83EB
:1008E0008F839887282D392D4A2D5B2D6C2D7D2DDA
:1008F0008E2D9F2DA0E00E948B05C9F60000000000
:1009000028960FB6F894DEBF0FBECDBFDF91CF9112
:10091000FF90EF90DF90CF90BF90AF909F908F901F
:100920000895CF93DF93CDB7DEB784EC90E028E055
:10093000FC01208381EC90E0FC01208181EC90E0BF
:100940002860FC01208382EC90E026E0FC012083FB
:100950000000DF91CF910895CF93DF930F92CDB731
:10096000DEB78983000080EC90E0FC018081882F55
:1009700090E080729927892BB1F386EC90E0298171
:10098000FC01208300000F90DF91CF910895CF9359
:10099000DF9300D0CDB7DEB79A8389830BC08981FE
:1009A0009A81FC0180810E94AC0489819A81019620
:1009B0009A83898389819A81FC018081882379F7D0
:1009C000000000000F900F90DF91CF9108950F93DA
:1009D0001F93CF93DF93CDB7DEB768970FB6F89428
:1009E000DEBF0FBECDBF69837A838B839C838981F1
:1009F0009A81AB81BC810A97A105B10508F447C073
:100A000089819A81AB81BC818D879E87AF87B88BA6
:100A10000AE010E020E030E06D857E858F859889C2
:100A2000A90198010E945705DA01C9018D839E83AF
:100A3000AF83B8876D817E818F8198850E94E7049E
:100A400089819A81AB81BC81898B9A8BAB8BBC8B62
:100A50000AE010E020E030E069897A898B899C897E
:100A6000A90198010E9457056D8B7E8B8F8B988F03
:100A70008D899E89AF89B88D89879A87AB87BC8716
:100A800069857A858B859C850E94E70404C08981ED
:100A9000805D0E94AC04000068960FB6F894DEBF3B
:100AA0000FBECDBFDF91CF911F910F910895A1E2AD
:100AB0001A2EAA1BBB1BFD010DC0AA1FBB1FEE1FD8
:100AC000FF1FA217B307E407F50720F0A21BB30B23
:100AD000E40BF50B661F771F881F991F1A9469F79F
:100AE00060957095809590959B01AC01BD01CF01FB
:100AF0000895EE0FFF1F0590F491E02D0994002456
:100B0000A7FD00942A0F301D401D501D601D701D53
:100B1000801D901D08950024A7FD00942A1730051C
:100B20004005500560057005800590050895F8940E
:100B3000FFCF2204280428042804280428042804B9
:100B4000280414032804280428042804280428045A
:100B5000280414032804280428042804280428044A
:100B600028041E0328042804280428042804280430
:100B700028044A03280428042804280428042804F4
:100B800028041E0328042804280428042804280410
:100B900028045003280428042804280428042804CE
:100BA00028045603280428042804280428042804B8
:100BB00028046C0328042804280428042804280492
:100BC00028049C0328042804280428042804280452
:100BD00028045C0328042804280428042804280482
:100BE00028047A0328042804280428042804280454
:100BF00028049F032804280428042804280428041F
:100C000028049F032804280428042804280428040E
:100C100028049F03280428042804280428042804FE
:100C200028049F03280428042804280428042804EE
:100C30002804A803280428042804280428042804D5
:100C40002804E40328042804280428042804280489
:100C50002804A803280428042804280428042804B5
:100C60002804E40328042804280428042804280469
:100C70002804C40328042804280428042804280479
:100C80002804E80328042804280428042804280445
:100C90002804E80328042804280428042804280435
:100CA0002804FE032804280428042804280428040F
:100CB00028041C04280428042804280428042804E0
:040CC00028041C04E4
:100CC400207C2054454D50204953203A00207C205C
:100CD400656E64207C20000A0B0C0D12130E0F109D
:060CE400111213141500AB
:00000001FF
