:100000000C9434000C9451000C9451000C94510049
:100010000C9451000C9451000C9451000C9451001C
:100020000C9451000C9451000C9451000C9451000C
:100030000C9451000C9451000C9451000C945100FC
:100040000C9451000C9451000C9451000C945100EC
:100050000C9451000C9451000C9451000C945100DC
:100060000C94CB020C94510011241FBECFEFD8E0AA
:10007000DEBFCDBF11E0A0E0B1E0E8E9FCE002C0E6
:1000800005900D92AE30B107D9F721E0AEE0B1E0B6
:1000900001C01D92AC37B207E1F70E9484000C94B6
:1000A00081050C9400000F93CF93DF9300D0CDB760
:1000B000DEB788E4898382E40E94960401E021E0AF
:1000C00041E060E070E089810E94940183E40E9435
:1000D0009604CE01029621E042E0BC0189810E9493
:1000E000190101E021E040E060E070E089810E94B8
:1000F0009401CE010296FC01808191810F900F90B6
:10010000DF91CF910F910895CF93DF9300D000D06E
:1001100000D00F92CDB7DEB70E947B0481E48D83BF
:100120008D810E94960480E094ECA9E0B0E0898380
:100130009A83AB83BC83000089819A81AB81BC81A7
:10014000AC01BD01415051096109710949835A83CC
:100150006B837C83892B8A2B8B2B71F70E94530036
:100160009F838E83DDCFCF93DF93CDB7DEB7109221
:100170000E0181E0809310011092110188E290E05D
:10018000FC018081482F82E1282F30E081E090E05F
:1001900002C0880F991F2A95E2F7242F282B88E2A6
:1001A00090E0FC01208388E290E0FC018081482FF0
:1001B00083E1282F30E081E090E002C0880F991F92
:1001C0002A95E2F7242F282B88E290E0FC01208377
:1001D00089EB90E0FC01208189EB90E02E7FFC010F
:1001E000208389EB90E0FC01208189EB90E02D7F5A
:1001F000FC01208388EB90E028E4FC0120838CEB59
:1002000090E025E4FC0120830000DF91CF91089568
:10021000CF93DF930F92CDB7DEB789838AEB90E05F
:100220002981220FFC01208300000F90DF91CF91E4
:100230000895CF93DF9300D000D000D0CDB7DEB7C4
:100240008A837C836B834D832E838D81813218F06A
:1002500080E061C0000080910E018823D9F781E021
:1002600080930E018E81809310018FEF80937B012C
:10027000109236018D8181508093370181E0809307
:100280000F018A81882F90E0880F991F982F809105
:100290000F01892B80930F0180911101813071F43E
:1002A000109211018BEB90E020910F01FC01208353
:1002B0008CEB90E025ECFC01208307C08CEB90E0F8
:1002C00025EEFC01208301C0000080910E018130E9
:1002D000D9F3809136019D81891718F480913601F8
:1002E0008D83198213C08981282F30E08981882F5E
:1002F00090E04B815C81840F951F2A5E3E4FF9018F
:100300002081FC01208389818F5F898399818D8180
:10031000981748F38D8126960FB6F894DEBF0FBE6E
:10032000CDBFDF91CF9108950F93CF93DF9300D08E
:1003300000D000D00F92CDB7DEB78A837C836B8369
:100340004D832E830F8381E390E00E9496048D817C
:10035000813218F081E074C0000080910E01882382
:10036000D9F782E080930E018F81809310018FEF87
:1003700080937B01109236018D8180933701198221
:1003800013C08981882F90E02B813C81280F391F71
:100390008981882F90E0F90120818A5E9E4FFC01BF
:1003A000208389818F5F898399818D81981748F394
:1003B00010920F018A81882F90E0880F991F982F43
:1003C00080910F01892B80930F0180911101813061
:1003D00071F4109211018BEB90E020910F01FC0160
:1003E00020838CEB90E025ECFC01208305C08CEB96
:1003F00090E025EEFC01208382E390E00E949604C9
:1004000001C000008E81882321F080910E0182308E
:10041000C1F383E390E00E94960480917B018F3FBB
:1004200011F480E00DC080917B01803211F482E0F4
:1004300007C080917B01803311F483E001C084E028
:1004400027960FB6F894DEBF0FBECDBFDF91CF91D8
:100450000F910895CF93DF9300D000D0CDB7DEB7D2
:100460009B838A836C838C81813210F081E023C06E
:1004700080910E01843011F082E01DC08C81809348
:100480005901198213C08981882F90E02A813B810C
:10049000280F391F8981882F90E0F9012081885C1D
:1004A0009E4FFC01208389818F5F898399818C8194
:1004B000981748F380E00F900F900F900F90DF9106
:1004C000CF910895CF93DF9300D0CDB7DEB79A8355
:1004D000898389819A81909315018093140100008A
:1004E0000F900F90DF91CF910895CF93DF9300D0BD
:1004F000CDB7DEB79A83898389819A81909313015E
:100500008093120100000F900F90DF91CF9108951A
:10051000CF93DF930F92CDB7DEB78983898188238C
:1005200031F08CEB90E025ECFC01208305C08CEBD6
:1005300090E025E8FC01208300000F90DF91CF912F
:100540000895CF93DF93CDB7DEB78CEB90E025ED28
:10055000FC01208301C000008CEB90E0FC01808155
:10056000882F90E080719927892BA9F710920E01AE
:100570000000DF91CF910895CF93DF93CDB7DEB721
:100580008CEB90E025ECFC01208310920E01000022
:10059000DF91CF9108951F920F920FB60F92112401
:1005A0002F933F934F935F936F937F938F939F937B
:1005B000AF93BF93EF93FF93CF93DF93CDB7DEB7A6
:1005C00089EB90E0FC018081882F90E0887F99275B
:1005D000893C91050CF025C199230CF423C1092E07
:1005E000000CAA0BBB0B893C9105A105B10508F0D5
:1005F00019C18D579A4FFC010C9463058BEB90E069
:1006000020910F01FC01208381E00E9488020AC131
:1006100090913601809137019817A0F480913601AE
:1006200091E0980F90933601282F30E08BEB90E00B
:100630002A5E3E4FF9012081FC01208381E00E9467
:100640008802F0C080911001882319F00E94A10255
:10065000E9C081E0809311018CEB90E024EAFC0179
:10066000208310920E01DEC080E280937B010E9405
:10067000A102D8C080E380937B010E94A102D2C076
:1006800088E380937B010E94BC02CCC02BEB30E05E
:100690008091360191E0980F90933601882F90E079
:1006A000F90120818A5E9E4FFC01208390913601E2
:1006B00080913701981720F481E00E948802B2C02F
:1006C00080E00E948802AEC02BEB30E080913601C2
:1006D00091E0980F90933601882F90E0F9012081E6
:1006E0008A5E9E4FFC01208380911001882319F0BF
:1006F0000E94A10297C081E0809311018CEB90E0F1
:1007000024EAFC01208310920E018CC00E94A102F9
:1007100089C083E080930E0110927A0181E00E94EB
:10072000880280C080917A018032A0F42BEB30E007
:1007300080917A0191E0980F90937A01882F90E050
:10074000F9012081865A9E4FFC01208381E00E949E
:10075000880268C080E00E94880264C080917A01AB
:10076000803240F480917A01882F90E0865A9E4F23
:10077000FC0110820E94A102209114013091150108
:1007800080917A01882F90E0BC018AE591E0F9011F
:10079000099510927A010E94BC0244C080E00E9438
:1007A000880240C084E080930E011092580110929C
:1007B00059018091120190911301FC0109958091DA
:1007C0005901882329F481E080935901109238015E
:1007D0008091580191E0980F90935801282F30E0B4
:1007E0008BEB90E0285C3E4FF9012081FC012083D7
:1007F0009091580180915901981720F481E00E944E
:10080000880210C080E00E9488020CC081E00E9433
:10081000880210920E0106C010927B010E94A10274
:1008200001C000000000DF91CF91FF91EF91BF91D7
:10083000AF919F918F917F916F915F914F913F9178
:100840002F910F900FBE0F901F9018958F929F922F
:10085000AF92BF92CF92DF92EF92FF92CF93DF934E
:10086000CDB7DEB728970FB6F894DEBF0FBECDBF69
:1008700029833A834B835C836D837E838F83988740
:10088000000089809A80AB80BC80CD80DE80EF80C4
:10089000F884282D392D4A2D5B2D6C2D7D2D8E2D24
:1008A0009F2DAFEF0E94690529833A834B835C83B8
:1008B0006D837E838F839887282D392D4A2D5B2D5C
:1008C0006C2D7D2D8E2D9F2DA0E00E947505C9F603
:1008D0000000000028960FB6F894DEBF0FBECDBF13
:1008E000DF91CF91FF90EF90DF90CF90BF90AF90CE
:1008F0009F908F900895CF93DF93CDB7DEB784ECB0
:1009000090E028E0FC01208381EC90E0FC01208154
:1009100081EC90E02860FC01208382EC90E026E0EE
:10092000FC0120830000DF91CF910895CF93DF93E6
:100930000F92CDB7DEB78983000080EC90E0FC0118
:100940008081882F90E080729927892BB1F386EC03
:1009500090E02981FC01208300000F90DF91CF916E
:100960000895CF93DF9300D0CDB7DEB79A83898304
:100970000BC089819A81FC0180810E949604898143
:100980009A8101969A83898389819A81FC01808169
:10099000882379F7000000000F900F90DF91CF912E
:1009A00008950F931F93CF93DF93CDB7DEB768976A
:1009B0000FB6F894DEBF0FBECDBF69837A838B83F9
:1009C0009C8389819A81AB81BC810A97A105B1057D
:1009D00008F447C089819A81AB81BC818D879E874D
:1009E000AF87B88B0AE010E020E030E06D857E85AF
:1009F0008F859889A90198010E944105DA01C901F2
:100A00008D839E83AF83B8876D817E818F8198852A
:100A10000E94D10489819A81AB81BC81898B9A8B98
:100A2000AB8BBC8B0AE010E020E030E069897A896A
:100A30008B899C89A90198010E9441056D8B7E8B51
:100A40008F8B988F8D899E89AF89B88D89879A877A
:100A5000AB87BC8769857A858B859C850E94D1048C
:100A600004C08981805D0E949604000068960FB6DC
:100A7000F894DEBF0FBECDBFDF91CF911F910F91D4
:100A80000895A1E21A2EAA1BBB1BFD010DC0AA1FCF
:100A9000BB1FEE1FFF1FA217B307E407F50720F0E7
:100AA000A21BB30BE40BF50B661F771F881F991F62
:100AB0001A9469F760957095809590959B01AC01AB
:100AC000BD01CF010895EE0FFF1F0590F491E02DB9
:100AD00009940024A7FD00942A0F301D401D501DCD
:100AE000601D701D801D901D08950024A7FD0094B9
:100AF0002A173005400550056005700580059005F2
:100B00000895F894FFCF0C04120412041204120486
:100B1000120412041204FE0212041204120412043B
:100B2000120412041204FE0212041204120412042B
:100B30001204120412040803120412041204120410
:100B400012041204120434031204120412041204D4
:100B500012041204120408031204120412041204F0
:100B60001204120412043A031204120412041204AE
:100B70001204120412044003120412041204120498
:100B80001204120412045603120412041204120472
:100B90001204120412048603120412041204120432
:100BA0001204120412044603120412041204120462
:100BB0001204120412046403120412041204120434
:100BC00012041204120489031204120412041204FF
:100BD00012041204120489031204120412041204EF
:100BE00012041204120489031204120412041204DF
:100BF00012041204120489031204120412041204CF
:100C000012041204120492031204120412041204B5
:100C1000120412041204CE03120412041204120469
:100C20001204120412049203120412041204120495
:100C3000120412041204CE03120412041204120449
:100C4000120412041204AE03120412041204120459
:100C5000120412041204D203120412041204120425
:100C6000120412041204D203120412041204120415
:100C7000120412041204E8031204120412041204EF
:100C800012041204120406041204120412041204C0
:080C9000120412041204060410
:0E0C98000A0B0C0D12130E0F1011121314156F
:00000001FF
