:100000000C9434000C9451000C9451000C94510049
:100010000C9451000C9451000C9451000C9451001C
:100020000C9451000C9451000C9451000C9451000C
:100030000C9451000C9451000C9451000C945100FC
:100040000C9451000C9451000C9451000C945100EC
:100050000C9451000C9451000C9451000C945100DC
:100060000C9462030C94510011241FBECFEFD8E012
:10007000DEBFCDBF11E0A0E0B1E0EAEAFDE002C0E2
:1000800005900D92A832B107D9F721E0A8E2B1E0BE
:1000900001C01D92A639B207E1F70E941A010C9423
:1000A0000A060C9400000F93CF93DF93CDB7DEB711
:1000B000A7970FB6F894DEBF0FBECDBF88E48A8342
:1000C0001C821B8219820DC0898191E0980F99834F
:1000D000882F90E09E01285F3F4F820F931FFC0105
:1000E00010828981803280F301E021E041E060E00C
:1000F00070E08A810E943702CE01089621E042E03A
:10010000BC018A810E94BC018D838885882F90E084
:10011000982F88279C838B838985882F90E09F83E5
:100120008E832B813C818E819F81822B932B9C839C
:100130008B8301E021E040E060E070E08A810E9472
:1001400037028EE30E942D0588850E94AA058CE760
:100150000E942D0589850E94AA0581E20E942D0535
:10016000CE010896FC0180819181A7960FB6F89484
:10017000DEBF0FBECDBFDF91CF910F910895CF931A
:10018000DF93CDB7DEB72F970FB6F894DEBF0FBE63
:10019000CDBF9F878E8719820DC0898191E0980F0E
:1001A0009983882F90E09E01295F3F4F820F931F14
:1001B000FC0110828981873080F3CE010E969B83EB
:1001C0008A838A819B81FC0180818F778C838A81DD
:1001D0009B81FC018081881F8827881F8D838A81ED
:1001E0009B8101969B838A838A819B81FC0180810C
:1001F000881F8827881F8E838D81882319F08DE2C0
:100200000E942D058C810E94AA058E81882321F0F1
:1002100080E091E00E94480583E091E00E9448055B
:1002200000002F960FB6F894DEBF0FBECDBFDF9152
:10023000CF910895CF93DF9300D000D000D0CDB7F9
:10024000DEB78FE590E0FC0120818FE590E020682B
:10025000FC0120831E821D820E94120580E094EC26
:10026000A9E0B0E089839A83AB83BC8300008981D5
:100270009A81AB81BC81AC01BD014150510961093A
:10028000710949835A836B837C83892B8A2B8B2B3F
:1002900071F78AE091E00E9448050E9453000E9495
:1002A000BF0085E191E00E944805D8CFCF93DF934E
:1002B000CDB7DEB71092280181E080932A01109219
:1002C0002B0188E290E0FC018081482F82E1282FF9
:1002D00030E081E090E002C0880F991F2A95E2F794
:1002E000242F282B88E290E0FC01208388E290E014
:1002F000FC018081482F83E1282F30E081E090E0ED
:1003000002C0880F991F2A95E2F7242F282B88E234
:1003100090E0FC01208389EB90E0FC01208189EBD7
:1003200090E02E7FFC01208389EB90E0FC0120818E
:1003300089EB90E02D7FFC01208388EB90E028E49E
:10034000FC0120838CEB90E025E4FC01208300007D
:10035000DF91CF910895CF93DF930F92CDB7DEB7A2
:1003600089838AEB90E02981220FFC012083000021
:100370000F90DF91CF910895CF93DF9300D000D0FD
:1003800000D0CDB7DEB78A837C836B834D832E8309
:100390008D81813218F080E061C0000080912801D9
:1003A0008823D9F781E0809328018E8180932A01E8
:1003B0008FEF80939501109250018D818150809331
:1003C000510181E0809329018A81882F90E0880F74
:1003D000991F982F80912901892B80932901809161
:1003E0002B01813071F410922B018BEB90E0209166
:1003F0002901FC0120838CEB90E025ECFC0120839B
:1004000007C08CEB90E025EEFC01208301C00000CA
:10041000809128018130D9F3809150019D81891705
:1004200018F4809150018D83198213C08981282F7F
:1004300030E08981882F90E04B815C81840F951F8B
:10044000205D3E4FF9012081FC01208389818F5F6F
:10045000898399818D81981748F38D8126960FB6EF
:10046000F894DEBF0FBECDBFDF91CF9108950F93FB
:10047000CF93DF9300D000D000D00F92CDB7DEB77E
:100480008A837C836B834D832E830F838D8181329E
:1004900018F081E06CC00000809128018823D9F712
:1004A00082E0809328018F8180932A018FEF8093CF
:1004B0009501109250018D8180935101198213C0D2
:1004C0008981882F90E02B813C81280F391F8981F9
:1004D000882F90E0F9012081805D9E4FFC012083F0
:1004E00089818F5F898399818D81981748F3109254
:1004F00029018A81882F90E0880F991F982F809179
:100500002901892B8093290180912B01813071F47D
:1005100010922B018BEB90E020912901FC012083AC
:100520008CEB90E025ECFC01208307C08CEB90E085
:1005300025EEFC01208301C000008E81882321F07C
:10054000809128018230C1F3809195018F3F11F491
:1005500080E00DC080919501803211F482E007C0E7
:1005600080919501803311F483E001C084E02796E7
:100570000FB6F894DEBF0FBECDBFDF91CF910F91C4
:100580000895CF93DF9300D000D0CDB7DEB79B8323
:100590008A836C838C81813210F081E023C080914A
:1005A0002801843011F082E01DC08C81809373019A
:1005B000198213C08981882F90E02A813B81280FFE
:1005C000391F8981882F90E0F90120818E5A9E4F32
:1005D000FC01208389818F5F898399818C819817A1
:1005E00048F380E00F900F900F900F90DF91CF9124
:1005F0000895CF93DF9300D0CDB7DEB79A83898378
:1006000089819A8190932F0180932E0100000F9091
:100610000F90DF91CF910895CF93DF9300D0CDB7A6
:10062000DEB79A83898389819A8190932D01809383
:100630002C0100000F900F90DF91CF910895CF9380
:10064000DF930F92CDB7DEB789838981882331F09C
:100650008CEB90E025ECFC01208305C08CEB90E056
:1006600025E8FC01208300000F90DF91CF910895D1
:10067000CF93DF93CDB7DEB78CEB90E025EDFC0197
:10068000208301C000008CEB90E0FC018081882F6A
:1006900090E080719927892BA9F71092280100001A
:1006A000DF91CF910895CF93DF93CDB7DEB78CEB79
:1006B00090E025ECFC012083109228010000DF91DE
:1006C000CF9108951F920F920FB60F9211242F937E
:1006D0003F934F935F936F937F938F939F93AF93CA
:1006E000BF93EF93FF93CF93DF93CDB7DEB789EB43
:1006F00090E0FC018081882F90E0887F9927893CD9
:1007000091050CF025C199230CF423C1092E000C8E
:10071000AA0BBB0B893C9105A105B10508F019C1D5
:10072000845F994FFC010C94DD058BEB90E02091E8
:100730002901FC01208381E00E941F030AC19091DE
:100740005001809151019817A0F48091500191E0DF
:10075000980F90935001282F30E08BEB90E0205DB4
:100760003E4FF9012081FC01208381E00E941F039C
:10077000F0C080912A01882319F00E943803E9C053
:1007800081E080932B018CEB90E024EAFC01208334
:1007900010922801DEC080E2809395010E94380308
:1007A000D8C080E3809395010E943803D2C088E3CB
:1007B000809395010E945303CCC02BEB30E08091D5
:1007C000500191E0980F90935001882F90E0F9012B
:1007D0002081805D9E4FFC0120839091500180918B
:1007E0005101981720F481E00E941F03B2C080E0FD
:1007F0000E941F03AEC02BEB30E08091500191E0CE
:10080000980F90935001882F90E0F9012081805D2E
:100810009E4FFC01208380912A01882319F00E94B9
:10082000380397C081E080932B018CEB90E024EAA1
:10083000FC012083109228018CC00E94380389C0DB
:1008400083E0809328011092940181E00E941F03AD
:1008500080C0809194018032A0F42BEB30E0809135
:10086000940191E0980F90939401882F90E0F90102
:1008700020818C589E4FFC01208381E00E941F0341
:1008800068C080E00E941F0364C0809194018032A0
:1008900040F480919401882F90E08C589E4FFC0189
:1008A00010820E94380320912E0130912F018091F7
:1008B0009401882F90E0BC0184E791E0F90109954B
:1008C000109294010E94530344C080E00E941F03D1
:1008D00040C084E08093280110927201109273014D
:1008E00080912C0190912D01FC010995809173015B
:1008F000882329F481E08093730110925201809142
:10090000720191E0980F90937201282F30E08BEBE9
:1009100090E02E5A3E4FF9012081FC0120839091F6
:10092000720180917301981720F481E00E941F03E7
:1009300010C080E00E941F030CC081E00E941F03D2
:100940001092280106C0109295010E94380301C040
:1009500000000000DF91CF91FF91EF91BF91AF9127
:100960009F918F917F916F915F914F913F912F91C7
:100970000F900FBE0F901F9018958F929F92AF927D
:10098000BF92CF92DF92EF92FF92CF93DF93CDB7DA
:10099000DEB728970FB6F894DEBF0FBECDBF298310
:1009A0003A834B835C836D837E838F8398870000BB
:1009B00089809A80AB80BC80CD80DE80EF80F88417
:1009C000282D392D4A2D5B2D6C2D7D2D8E2D9F2DA3
:1009D000AFEF0E94F20529833A834B835C836D83DA
:1009E0007E838F839887282D392D4A2D5B2D6C2D82
:1009F0007D2D8E2D9F2DA0E00E94FE05C9F60000E2
:100A0000000028960FB6F894DEBF0FBECDBFDF9171
:100A1000CF91FF90EF90DF90CF90BF90AF909F90DD
:100A20008F900895CF93DF93CDB7DEB784EC90E03D
:100A300028E0FC01208381EC90E0FC01208181EC26
:100A400090E02860FC01208382EC90E026E0FC012D
:100A500020830000DF91CF910895CF93DF930F9211
:100A6000CDB7DEB78983000080EC90E0FC01808187
:100A7000882F90E080729927892BB1F386EC90E063
:100A80002981FC01208300000F90DF91CF91089510
:100A9000CF93DF9300D0CDB7DEB79A8389830BC0A5
:100AA00089819A81FC0180810E942D0589819A812A
:100AB00001969A83898389819A81FC0180818823A8
:100AC00079F7000000000F900F90DF91CF9108950B
:100AD000CF93DF9300D0CDB7DEB79A838983898126
:100AE0009A810A9768F189819A819C01ADECBCECEE
:100AF0000E94E30596958795969587959695879597
:100B00000E94680549815A819A01ADECBCEC0E94B3
:100B1000E3059C01369527953695279536952795BB
:100B2000C901880F991F880F991F820F931F880F83
:100B3000991F9A01281B390BC9010E94680504C03E
:100B40008981805D0E942D0500000F900F90DF913C
:100B5000CF910895CF93DF930F92CDB7DEB78983FE
:100B600089818A3008F199818DEC989F812D11241B
:100B7000869586958695882F90E00E946805298144
:100B80008DEC289F812D1124982F969596959695FA
:100B9000892F880F880F890F880F922F981B892F14
:100BA00090E00E94680504C08981805D0E942D0547
:100BB00000000F90DF91CF910895EE0FFF1F059079
:100BC000F491E02D0994A29FB001B39FC001A39FAF
:100BD000700D811D1124911DB29F700D811D112476
:100BE000911D08950024A7FD00942A0F301D401D7B
:100BF000501D601D701D801D901D08950024A7FDCF
:100C000000942A17300540055005600570058005E1
:100C100090050895F894FFCFA304A904A904A9049A
:100C2000A904A904A904A9049503A904A904A90471
:100C3000A904A904A904A9049503A904A904A90461
:100C4000A904A904A904A9049F03A904A904A90447
:100C5000A904A904A904A904CB03A904A904A9040B
:100C6000A904A904A904A9049F03A904A904A90427
:100C7000A904A904A904A904D103A904A904A904E5
:100C8000A904A904A904A904D703A904A904A904CF
:100C9000A904A904A904A904ED03A904A904A904A9
:100CA000A904A904A904A9041D04A904A904A90468
:100CB000A904A904A904A904DD03A904A904A90499
:100CC000A904A904A904A904FB03A904A904A9046B
:100CD000A904A904A904A9042004A904A904A90435
:100CE000A904A904A904A9042004A904A904A90425
:100CF000A904A904A904A9042004A904A904A90415
:100D0000A904A904A904A9042004A904A904A90404
:100D1000A904A904A904A9042904A904A904A904EB
:100D2000A904A904A904A9046504A904A904A9049F
:100D3000A904A904A904A9042904A904A904A904CB
:100D4000A904A904A904A9046504A904A904A9047F
:100D5000A904A904A904A9044504A904A904A9048F
:100D6000A904A904A904A9046904A904A904A9045B
:100D7000A904A904A904A9046904A904A904A9044B
:100D8000A904A904A904A9047F04A904A904A90425
:100D9000A904A904A904A9049D04A904A904A904F7
:0A0DA000A904A904A904A9049D04F4
:100DAA002E350020432E6465670054454D50204976
:100DBA0053203A2000207C20000A0B0C0D12130E3F
:080DCA000F10111213141500A3
:00000001FF
