:100000000C9434000C9451000C9451000C94510049
:100010000C9451000C9451000C9451000C9451001C
:100020000C9451000C9451000C9451000C9451000C
:100030000C9451000C9451000C9451000C945100FC
:100040000C9451000C9451000C9451000C945100EC
:100050000C9451000C9451000C9451000C945100DC
:100060000C9451000C94510011241FBECFEFD8E026
:10007000DEBFCDBF11E0A0E0B1E0E2EBF5E002C0F1
:1000800005900D92A630B107D9F721E0A6E0B1E0C6
:1000900001C01D92A031B207E1F70E9409010C9442
:1000A000D7020C9400009C01F999FECF32BD21BD0E
:1000B00060BDFA9AF99A08959C01F999FECF32BD74
:1000C00021BDF89A80B50895EF92FF920F931F9388
:1000D000CF93DF938C01EA017B01E40EF51ECE1570
:1000E000DF0539F4DF91CF911F910F91FF90EF90D1
:1000F00008956991C8010E9453000F5F1F4FEFCF11
:10010000EF92FF920F931F93CF93DF938C01EA013D
:100110007B01E40EF51ECE15DF0539F4DF91CF919A
:100120001F910F91FF90EF900895C8010E945C000D
:1001300089930F5F1F4FEFCF9091C00095FFFCCFC9
:100140008093C60090E080E008958091C00087FF12
:10015000FCCF8091C60090E008959093C5008093F5
:10016000C40088E98093C1006093C20065EA70E032
:100170008CE990E00C944201089588E08093C400DB
:10018000E1ECF0E080818860808386E08093C200AB
:1001900008959091C00095FFFCCF8093C60008950C
:1001A000CF93DF93EC018991811103C0DF91CF914F
:1001B00008950E94C900F7CF0F931F93CF93DF9349
:1001C0000AE010E08A30910558F0B8010E942E0133
:1001D000D82FC92FCB010E94DC008D2F9C2FF2CF8E
:1001E000805DDF91CF911F910F910C94C900CF9347
:1001F000DF93DAE08A3040F06D2F0E942201C92F90
:100200000E94F7008C2FF6CF805DDF91CF910C9488
:10021000C9000E94BD00C4E06C2F81E090E00E9404
:10022000530081E090E00E945C0090E00E94DC00BE
:1002300081E094ECA9E0B0E00197A109B109E1F7F0
:10024000CF5FEACF991B79E004C0991F961708F099
:10025000961B881F7A95C9F780950895AA1BBB1B2A
:1002600051E107C0AA1FBB1FA617B70710F0A61BB6
:10027000B70B881F991F5A95A9F780959095BC01D7
:10028000CD0108950F931F93CF93DF93EC018B0162
:10029000892B51F4672B41F4F0E0E0E0CF01DF91CE
:1002A000CF911F910F9108956EE070E081E090E092
:1002B0000E948C01FC01892B79F380E8838301156E
:1002C000110571F01387028781E88383809106010D
:1002D00090910701892B21F4F0930701E093060127
:1002E0002097E1F2D187C0878381826083838091E8
:1002F000080190910901892B89F6F0930901E09397
:10030000080180910A0190910B01892B39F6F09335
:100310000B01E0930A01C2CF0F931F93CF93DF939A
:10032000869F8001879F100D969F100D1124C80194
:100330000E94A801EC01009729F0A80170E060E09C
:100340000E94D002CE01DF91CF911F910F910895AD
:100350000F931F93CF93DF939C01029710F422E039
:1003600030E0E0910E01F0910F0190E080E0B0E00C
:10037000A0E0309791F4009709F445C0821B930BDD
:1003800084309105B8F58A819B816115710569F109
:10039000FB0193838283FE0111C040815181028160
:1003A000138142175307F0F04217530799F410973F
:1003B00061F012960C93129713961C933296CF010C
:1003C000DF91CF911F910F91089500930E0110932B
:1003D0000F01F4CF009719F04817590718F4CA0114
:1003E000BD01EF01DF01F801C4CF90930F018093AD
:1003F0000E01D1CFFE01E80FF91F2193319302972F
:1004000099838883DCCF80910C0190910D01892B19
:1004100041F4809102019091030190930D0180932A
:100420000C018091000190910101009741F48DB77A
:100430009EB74091040150910501841B950B40919A
:100440000C0150910D014817590708F0B8CF841BD3
:10045000950B8217930708F4B2CFB9016E5F7F4FF7
:100460008617970708F4ABCF640F751F70930D01C3
:1004700060930C01FA0121933193A1CFCF93DF93C5
:100480009C010097E9F0FC01329713821282C0911F
:100490000E01D0910F01DE0190E080E02097A1F4E1
:1004A00080819181280F391F80910C0190910D015D
:1004B0008217930709F067C0F0930D01E0930C01D8
:1004C000DF91CF910895DA01AE17BF0708F041C060
:1004D00012964D915C911397CD014115510599F7F5
:1004E000DC011396FC93EE9312974D915D91A40F4E
:1004F000B51FEA17FB0781F4208131812E5F3F4F42
:10050000240F351FDC0111963C932E9322813381F9
:1005100013963C932E931297B0E0A0E08A819B81C2
:100520000097B1F5FE0181919191E80FF91F80913B
:100530000C0190910D018E179F0711F6109759F538
:1005400010920F0110920E01D0930D01C0930C0177
:10055000B7CFB383A28340815181240F351FA217E7
:10056000B30771F44E5F5F4F2D913C911197420F8D
:10057000531F5183408312962D913C9133832283E4
:10058000009709F0ADCFF0930F01E0930E0198CFE3
:10059000DE01EC01C3CF13961C921E921297D4CFAA
:1005A000DC0101C06D9341505040E0F70895F8948C
:0205B000FFCF7B
:0605B20000001001200012
:00000001FF
