:100000000C9434000C9451000C94DF040C945100B7
:100010000C9451000C9451000C9451000C9451001C
:100020000C9451000C9451000C9451000C9451000C
:100030000C9451000C9451000C9451000C945100FC
:100040000C9451000C9451000C9451000C945100EC
:100050000C9451000C9451000C9451000C945100DC
:100060000C94230C0C94510011241FBECFEFD8E048
:10007000DEBFCDBF13E0A0E0B1E0E4E5FFE102C0E8
:1000800005900D92A83FB107D9F725E0A8EFB3E09E
:1000900001C01D92A131B207E1F70E947A050C94CC
:1000A000DF0E0C940000CF93DF9300D00F92CDB7FA
:1000B000DEB79A8389836B8300008FE390E0FC01B5
:1000C0008081882F90E082709927892BB1F781E495
:1000D00090E029813A81FC013183208380E490E023
:1000E0002B81FC0120838FE390E0FC0120818FE3D2
:1000F00090E02460FC0120838FE390E0FC012081EC
:100100008FE390E02260FC01208300000F900F90AD
:100110000F90DF91CF910895CF93DF9300D0CDB7AB
:10012000DEB79A83898300008FE390E0FC01808131
:10013000882F90E082709927892BB1F781E490E0B5
:1001400029813A81FC01318320838FE390E0FC0117
:1001500020818FE390E02160FC01208380E490E027
:10016000FC0180810F900F90DF91CF910895CF9384
:10017000DF93CDB7DEB728970FB6F894DEBF0FBE7A
:10018000CDBF9C838B837E836D8358874F831A8278
:10019000198216C02F81388589819A81820F931F19
:1001A000FC0140812B813C8189819A81820F931FC0
:1001B000642F0E94530089819A8101969A838983D2
:1001C00029813A818D819E812817390718F3000013
:1001D000000028960FB6F894DEBF0FBECDBFDF91AA
:1001E000CF9108950F931F93CF93DF93CDB7DEB7D1
:1001F00028970FB6F894DEBF0FBECDBF9C838B83CC
:100200007E836D8358874F831A82198218C02B8191
:100210003C8189819A81A901480F591F2F81388516
:1002200089819A818901080F191FCA010E948C00D7
:10023000F801808389819A8101969A838983298133
:100240003A818D819E812817390708F3000000004C
:1002500028960FB6F894DEBF0FBECDBFDF91CF91C9
:100260001F910F910895CF93DF9300D0CDB7DEB7E4
:100270009A83898389819A8148E050E06DE071E03A
:100280000E94D60E89819A81089620910000FC0177
:10029000208389819A8109962091C800FC012083DE
:1002A00089819A810A9620910000FC01208389812E
:1002B0009A810B9620917800FC01208389819A8194
:1002C0000C9620911E00FC01208389819A810D9655
:1002D00020911800FC01208389819A810E9620913B
:1002E0000200FC01208389819A810F9628B7FC01C6
:1002F000208389819A81409620910100FC0120830E
:1003000089819A8141962CB1FC01208389819A814F
:10031000429648E050E066E171E00E94D60E898185
:100320009A814A9620910000FC01208389819A815C
:100330004B962091C800FC01208389819A814C96BC
:1003400020910000FC01208389819A814D962091A3
:100350007800FC01208389819A814E9620911E00AD
:10036000FC01208389819A814F9620911800FC011D
:10037000208389819A81809620910200FC0120834C
:1003800089819A81819628B7FC01208389819A818D
:10039000829620910100FC01208389819A818396B5
:1003A0002CB1FC01208300000F900F90DF91CF91C2
:1003B0000895CF93DF93CDB7DEB7A4970FB6F89427
:1003C000DEBF0FBECDBFCE0101960E943301CE012C
:1003D0000196AC0164E270E080E090E00E94B7001A
:1003E0000000A4960FB6F894DEBF0FBECDBFDF911C
:1003F000CF910895CF93DF930F92CDB7DEB71982D7
:100400000AC08981482F60E08FE191E00E94EC05ED
:1004100089818F5F89838981883098F381E00F908B
:10042000DF91CF910895CF93DF9300D000D0CDB767
:10043000DEB79A8389837C836B8389819A81FC01EF
:100440008081883031F489819A8123E1FC01208305
:100450000BC089819A81FC018081833129F48981D3
:100460009A8128E0FC01208300000F900F900F90EC
:100470000F90DF91CF910895CF93DF9300D000D0FC
:10048000CDB7DEB79A8389837C836B8389E290E062
:10049000FC018081882F90E080719927892B59F188
:1004A0008B819C81FC018081282F89819A81FC01AC
:1004B0008081422F682F84E391E00E94EC058B81BC
:1004C0009C81FC01808121E0280F8B819C81FC01B3
:1004D00020838B819C81FC018081883060F02B819E
:1004E0003C8189819A81B9010E9413028B819C8190
:1004F00023E0FC01208389E290E0FC018081882FC9
:1005000090E080729927892B59F18B819C81FC01A5
:100510008081282F89819A81FC018081422F682F58
:1005200084E391E00E94EC058B819C81FC01808139
:100530002FEF280F8B819C81FC0120838B819C8174
:10054000FC018081833060F42B813C8189819A8118
:10055000B9010E9413028B819C8127E0FC0120835A
:1005600000000F900F900F900F90DF91CF910895A2
:10057000CF93DF93CDB7DEB740E062E086E391E052
:100580000E94EC0541E067E087E491E00E94EC0501
:100590000000DF91CF910895CF93DF93CDB7DEB701
:1005A00028970FB6F894DEBF0FBECDBF0E94B802E9
:1005B000CE010196AC0168E070E080E090E00E941E
:1005C000F20043E060E0CE0101960E94EC05CE010E
:1005D0000196AC0168E070E082E190E00E94F200D8
:1005E00044E060E0CE0101960E94EC0500002896F0
:1005F0000FB6F894DEBF0FBECDBFDF91CF91089547
:10060000CF93DF93CDB7DEB761E071E080E091E09A
:100610000E943C020E94CC0280910101982F80919F
:100620000001492F682F8EE491E00E94EC05809133
:100630000001823111F485E001C080E09091010158
:10064000890F8250809368040E9462080000DF9145
:10065000CF9108950F93CF93DF93CDB7DEB7A397D4
:100660000FB6F894DEBF0FBECDBF88E48A8319822F
:100670000DC0898191E0980F9983882F90E09E01A9
:100680002C5F3F4F820F931FFC01108289818032C3
:1006900080F301E021E041E060E070E08A810E94A7
:1006A000F80ACE01049621E042E0BC018A810E9452
:1006B0007D0A8B8301E021E040E060E070E08A8108
:1006C0000E94F80ACE010496FC0180819181A396D4
:1006D0000FB6F894DEBF0FBECDBFDF91CF910F9163
:1006E0000895CF93DF9300D000D000D00F92CDB704
:1006F000DEB79F838E83CE0106969A838983898194
:100700009A81FC0180818F778B8389819A81FC019A
:100710008081881F8827881F8C8389819A81019610
:100720009A83898389819A81FC018081881F882727
:10073000881F8D8344E060E080E591E00E94EC0535
:100740008C81882331F044E06CE085E691E00E94E2
:10075000EC058B8144E06DE00E94EA068D818823E0
:1007600069F08B818A3010F48EE001C08FE044E0A4
:10077000682F87E691E00E94EC050CC08B818A30DF
:1007800010F48EE001C08FE044E0682F8AE691E02B
:100790000E94EC058B818A3010F480E101C081E178
:1007A00044E0682F8DE691E00E94EC05000027965A
:1007B0000FB6F894DEBF0FBECDBFDF91CF91089585
:1007C000CF93DF9300D0CDB7DEB78CE790E0FC018C
:1007D00020818CE790E0207FFC0120838AE790E075
:1007E000FC0120818AE790E02064FC012083000066
:1007F0008AE790E0FC018081882F90E0807499273F
:10080000892BB1F788E790E0FC018081882F90E088
:100810009A83898389E790E0FC018081882F90E0AA
:1008200081709927892B29F089819A8191609A8317
:10083000898389E790E0FC018081882F90E08270B5
:100840009927892B29F089819A8192609A838983DB
:1008500089819A810F900F90DF91CF910895CF9366
:10086000DF9300D0CDB7DEB78CE790E0FC012081AC
:100870008CE790E02160FC0120838CE790E0FC0194
:1008800020818CE790E0217FFC0120838AE790E0C3
:10089000FC0120818AE790E02064FC0120830000B5
:1008A0008AE790E0FC018081882F90E0807499278E
:1008B000892BB1F788E790E0FC018081882F90E0D8
:1008C0009A83898389E790E0FC018081882F90E0FA
:1008D00081709927892B29F089819A8191609A8367
:1008E000898389E790E0FC018081882F90E0827005
:1008F0009927892B29F089819A8192609A8389832B
:1009000089819A810F900F90DF91CF910895CF93B5
:10091000DF9300D0CDB7DEB78CE790E0FC012081FB
:100920008CE790E02560FC0120838CE790E0FC01DF
:1009300020818CE790E0257FFC0120838AE790E00E
:10094000FC0120818AE790E02064FC012083000004
:100950008AE790E0FC018081882F90E080749927DD
:10096000892BB1F788E790E0FC018081882F90E027
:100970009A83898389E790E0FC018081882F90E049
:1009800081709927892B29F089819A8191609A83B6
:10099000898389E790E0FC018081882F90E0827054
:1009A0009927892B29F089819A8192609A8389837A
:1009B00089819A810F900F90DF91CF9108951F92B6
:1009C0000F920FB60F9211242F933F934F935F9383
:1009D0006F937F938F939F93AF93BF93EF93FF9307
:1009E000CF93DF93CDB7DEB70E94FA018091660402
:1009F000882319F01092660403C081E08093660496
:100A000020E83CE040E050E060E070E080E090E012
:100A10000E947E0D0000DF91CF91FF91EF91BF9179
:100A2000AF919F918F917F916F915F914F913F9186
:100A30002F910F900FBE0F901F901895CF93DF93BB
:100A4000CDB7DEB72D970FB6F894DEBF0FBECDBF82
:100A500080916804082E000C990B0197982F82E171
:100A6000989F802D112489830E94E0039B838A83B1
:100A700040E060E080E791E00E94EC058A8140E080
:100A80006DE00E94EA060E942F049D838C8342E061
:100A900060E085E891E00E94EC058C8142E06DE029
:100AA0000E94EA060E942A030E94710346E060E069
:100AB0008AE991E00E94EC058981082E000C990BCF
:100AC0009E012A5F3F4FA90168E070E00E94F2009A
:100AD000CE01069646E06BE00E94EC050E9462089B
:100AE00000002D960FB6F894DEBF0FBECDBFDF918C
:100AF000CF910895CF93DF93CDB7DEB728970FB688
:100B0000F894DEBF0FBECDBF1092680489E690E076
:100B1000FC01208189E690E02C60FC0120838FE5B8
:100B200090E0FC0120818FE590E02068FC012083AB
:100B30008DE390E0FC0120818DE390E02260FC01D8
:100B400020838AE790E0FC0120818AE790E020681A
:100B5000FC0120838CE790E0FC0120818CE790E091
:100B60002064FC0120830E94880981E08093660450
:100B70008AE290E0FC0120818AE290E02460FC019E
:100B800020830E94D30D18861E821D821A8219822C
:100B90001C821B8285EA91E00E94170E0E94EA0DDA
:100BA0008F833B812981CE010796432F622F0E94BC
:100BB000EC0589819A8101969A83898389819A813A
:100BC000459739F41A8219828B819C8101969C8306
:100BD0008B830E946208E2CFCF93DF9300D000D0D6
:100BE00000D0CDB7DEB79C838B836D834E838E811F
:100BF000482F880F550B8D81082E000C990B65E14D
:100C0000649F9001659F300D1124820F931F8759B7
:100C10009B4F9A838983CCC08B819C81FC0180810E
:100C200081348CF08B819C81FC0180818B355CF45C
:100C30008B819C81FC0180818054282F89819A813D
:100C4000FC012083ABC08B819C81FC0180818033BF
:100C50008CF08B819C81FC0180818A335CF48B81D8
:100C60009C81FC0180818551282F89819A81FC011A
:100C7000208394C08B819C81FC018081803229F487
:100C800089819A81FC01108289C08B819C81FC0141
:100C900080818A3331F489819A8125E2FC012083A5
:100CA0007DC08B819C81FC0180818D3231F48981F2
:100CB0009A8127E2FC01208371C08B819C81FC0119
:100CC00080818C3331F489819A8128E2FC01208370
:100CD00065C08B819C81FC0180818E3331F48981D8
:100CE0009A8129E2FC01208359C08B819C81FC01FF
:100CF0008081863731F489819A812AE2FC01208340
:100D00004DC08B819C81FC0180818E3531F48981BD
:100D10009A812BE2FC01208341C08B819C81FC01E4
:100D200080818C3731F489819A812CE2FC01208307
:100D300035C08B819C81FC0180818C3231F48981AA
:100D40009A812DE2FC01208329C08B819C81FC01CA
:100D500080818E3231F489819A812EE2FC012083D8
:100D60001DC08B819C81FC0180818F3631F489818B
:100D70009A812FE2FC01208311C08B819C81FC01B0
:100D800080818F3331F489819A8120E3FC012083B3
:100D900005C089819A8126E2FC0120838B819C8198
:100DA00001969C838B8389819A8101969A8389839A
:100DB0008B819C81FC018081882309F02DCF00006C
:100DC000000026960FB6F894DEBF0FBECDBFDF91B0
:100DD000CF910895CF93DF9300D000D000D0CDB74E
:100DE000DEB79C838B836D834E838E81482F880F63
:100DF000550B8D81082E000C990B65E1649F9001C5
:100E0000659F300D1124820F931F87599B4F9A8342
:100E100089838B819C818436910508F456C08B812F
:100E20009C8196958795969587959C01ABE7B4E153
:100E30000E94AF0E96958795855E282F89819A81AD
:100E4000FC01208389819A8101969A8389834B8151
:100E50005C81CA0196958795969587959C01ABE72D
:100E6000B4E10E94AF0E9695879564E6689F900165
:100E7000699F300D1124CA01821B930B0A9750F40D
:100E800089819A812BE1FC01208389819A810196D5
:100E90009A8389834B815C81CA0196958795969543
:100EA00087959C01ABE7B4E10E94AF0E9C0136959B
:100EB000279564E6629FC001639F900D11249A01FB
:100EC000281B390BC9019C838B838B819C810A97DA
:100ED00008F44FC08B819C819C01ADECBCEC0E945E
:100EE000AF0EAC0156954795569547955695479543
:100EF0009A01ADECBCEC0E94AF0E9C013695279593
:100F00003695279536952795C901880F991F880F23
:100F1000991F820F931F880F991F9A01281B390B65
:100F2000822F855E282F89819A81FC012083898107
:100F30009A8101969A8389834B815C819A01ADECF9
:100F4000BCEC0E94AF0E9C013695279536952795EF
:100F500036952795C901880F991F880F991F820F11
:100F6000931F880F991F9A01281B390BC9019C8375
:100F70008B838B81855E282F89819A81FC01208358
:100F800089819A8101969A838983000026960FB6FB
:100F9000F894DEBF0FBECDBFDF91CF910895CF9300
:100FA000DF9300D000D0CDB7DEB79A8389836B83FF
:100FB0004C8389819A810A97A0F18B818F5F582F8A
:100FC00089819A819C01ADECBCEC0E94AF0E969594
:100FD000879596958795969587954C81652F0E9464
:100FE000CF0749815A819A01ADECBCEC0E94AF0E4B
:100FF0009C01369527953695279536952795C901F5
:10100000880F991F880F991F820F931F880F991FB0
:101010009A01281B390B4C816B81C9010E94EA0699
:1010200006C089819A814C816B810E94EA0600008A
:101030000F900F900F900F90DF91CF910895CF9365
:10104000DF9300D000D0CDB7DEB71A82198221C05D
:101050001C821B8215C089819A8145E1489F9001BD
:10106000499F300D11248B819C81820F931F8759DA
:101070009B4FFC0110828B819C8101969C838B830A
:101080008B819C8145973CF389819A8101969A8353
:10109000898389819A810897DCF2000000000F9013
:1010A0000F900F900F90DF91CF910895CF93DF9322
:1010B000CDB7DEB70E941F080E9462080000DF91D2
:1010C000CF910895CF93DF93CDB7DEB7CA58D1093A
:1010D0000FB6F894DEBF0FBECDBF8BE290E0FC01EF
:1010E00020818BE290E02F7BFC01208380E090E068
:1010F0000E94700980E190E00E9470098BE290E00C
:10110000FC0120818BE290E02064FC0120831A82A4
:101110001982D5C029813A8145E1429FC001439F90
:10112000900D112487599B4F98878F831C821B82B7
:1011300098C08B819C812F813885820F931FFC0181
:101140008081282F880F330BC901880F991F820FC8
:10115000931F880F991F86559E4F9A8789872B81E9
:101160003C81C901880F991F820F931F880F991F17
:101170009C0189859A85FC014081CE010B96820FE6
:10118000931FFC0140832B813C81C901880F991F6B
:10119000820F931F880F991F019629853A85F901BF
:1011A00041819E01255F3F4F820F931FFC014083C9
:1011B0002B813C81C901880F991F820F931F880FD3
:1011C000991F029629853A85F90142819E01255F82
:1011D0003F4F820F931FFC0140832B813C81C9014B
:1011E000880F991F820F931F880F991F03962985D7
:1011F0003A85F90143819E01255F3F4F820F931F7E
:10120000FC0140832B813C81C901880F991F820F0B
:10121000931F880F991F049629853A85F901448107
:101220009E01255F3F4F820F931FFC0140832B815E
:101230003C81C901880F991F820F931F880F991F46
:10124000059629853A85F90145819E01255F3F4F25
:10125000820F931FFC0140838B819C8101969C83AC
:101260008B838B819C8145970CF463CFCE0187578C
:101270009F4FFC011082CE0186579F4FFC011082C8
:101280001E821D8212C09E01255F3F4F8D819E816F
:10129000820F931FFC018081882F90E00E947009CB
:1012A0008D819E8101969E838D838D819E81803864
:1012B00091054CF389819A8101969A83898389816A
:1012C0009A8108970CF426CF00000000C657DF4F24
:1012D0000FB6F894DEBF0FBECDBFDF91CF9108955A
:1012E000CF93DF930F92CDB7DEB789838EE490E082
:1012F0002981FC01208300008DE490E0FC018081C5
:101300008823D4F7000000000F90DF91CF9108955B
:10131000CF93DF9300D00F92CDB7DEB78AE290E093
:10132000FC0120818AE290E02064FC0120838AE2B3
:1013300090E0FC0120818AE290E02068FC0120839B
:1013400084E290E0FC01208184E290E02160FC01D5
:10135000208385E290E0FC01208185E290E024601A
:10136000FC0120838CE490E020E5FC0120838AE2EC
:1013700090E0FC0120818AE290E02068FC0120835B
:1013800084E290E0FC01208184E290E02062FC0194
:10139000208384E290E0FC01208184E290E02860D8
:1013A000FC01208385E290E0FC01208185E290E051
:1013B0002160FC0120838BE290E0FC0120818BE224
:1013C00090E02F7BFC01208319820CC0898191E081
:1013D000980F9983882F90E08E5F9E4FFC0180814B
:1013E0000E94700989818B3088F38BE290E0FC01C8
:1013F00020818BE290E02064FC0120831B821A8212
:1014000008C080E00E9470098A819B8101969B83BD
:101410008A838A819B81811594409CF30E941F08D6
:1014200000000F900F900F90DF91CF910895CF9310
:10143000DF93CDB7DEB71092F80381E08093FA0313
:101440001092FB0388E290E0FC018081482F82E14A
:10145000282F30E081E090E002C0880F991F2A9584
:10146000E2F7242F282B88E290E0FC01208388E219
:1014700090E0FC018081482F83E1282F30E081E05B
:1014800090E002C0880F991F2A95E2F7242F282B9D
:1014900088E290E0FC01208389EB90E0FC01208150
:1014A00089EB90E02E7FFC01208389EB90E0FC012A
:1014B000208189EB90E02D7FFC01208388EB90E078
:1014C00028E4FC0120838CEB90E025E4FC012083E0
:1014D0000000DF91CF910895CF93DF930F92CDB7A6
:1014E000DEB789838AEB90E02981220FFC012083FB
:1014F00000000F90DF91CF910895CF93DF9300D03C
:1015000000D000D0CDB7DEB78A837C836B834D8358
:101510002E838D81813218F080E061C000008091BF
:10152000F8038823D9F781E08093F8038E818093B4
:10153000FA038FEF80936504109220048D8181500F
:101540008093210481E08093F9038A81882F90E0C1
:10155000880F991F982F8091F903892B8093F903A5
:101560008091FB03813071F41092FB038BEB90E0D0
:101570002091F903FC0120838CEB90E025ECFC0129
:10158000208307C08CEB90E025EEFC01208301C096
:1015900000008091F8038130D9F3809120049D816F
:1015A000891718F4809120048D83198213C08981D2
:1015B000282F30E08981882F90E04B815C81840F57
:1015C000951F20503C4FF9012081FC012083898127
:1015D0008F5F898399818D81981748F38D81269635
:1015E0000FB6F894DEBF0FBECDBFDF91CF91089547
:1015F0000F93CF93DF9300D000D000D00F92CDB7E0
:10160000DEB78A837C836B834D832E830F838D812A
:10161000813218F081E06CC000008091F8038823CB
:10162000D9F782E08093F8038F818093FA038FEFDC
:1016300080936504109220048D8180932104198287
:1016400013C08981882F90E02B813C81280F391F9E
:101650008981882F90E0F901208180509C4FFC0106
:10166000208389818F5F898399818D81981748F3C1
:101670001092F9038A81882F90E0880F991F982F84
:101680008091F903892B8093F9038091FB038130CA
:1016900071F41092FB038BEB90E02091F903FC01B5
:1016A00020838CEB90E025ECFC01208307C08CEBC1
:1016B00090E025EEFC01208301C000008E8188238C
:1016C00021F08091F8038230C1F3809165048F3F4F
:1016D00011F480E00DC080916504803211F482E045
:1016E00007C080916504803311F483E001C084E079
:1016F00027960FB6F894DEBF0FBECDBFDF91CF9116
:101700000F910895CF93DF9300D000D0CDB7DEB70F
:101710009B838A836C838C81813210F081E023C0AB
:101720008091F803843011F082E01DC08C81809399
:101730004304198213C08981882F90E02A813B815C
:10174000280F391F8981882F90E0F90120818E5D53
:101750009B4FFC01208389818F5F898399818C81D4
:10176000981748F380E00F900F900F900F90DF9143
:10177000CF910895CF93DF9300D0CDB7DEB79A8392
:10178000898389819A819093FF038093FE030000EF
:101790000F900F90DF91CF910895CF93DF9300D0FA
:1017A000CDB7DEB79A83898389819A819093FD03AF
:1017B0008093FC0300000F900F90DF91CF9108956C
:1017C000CF93DF930F92CDB7DEB7898389818823CA
:1017D00031F08CEB90E025ECFC01208305C08CEB14
:1017E00090E025E8FC01208300000F90DF91CF916D
:1017F0000895CF93DF93CDB7DEB78CEB90E025ED66
:10180000FC01208301C000008CEB90E0FC01808192
:10181000882F90E080719927892BA9F71092F803FF
:101820000000DF91CF910895CF93DF93CDB7DEB75E
:101830008CEB90E025ECFC0120831092F803000073
:10184000DF91CF9108951F920F920FB60F9211243E
:101850002F933F934F935F936F937F938F939F93B8
:10186000AF93BF93EF93FF93CF93DF93CDB7DEB7E3
:1018700089EB90E0FC018081882F90E0887F992798
:10188000893C91050CF025C199230CF423C1092E44
:10189000000CAA0BBB0B893C9105A105B10508F012
:1018A00019C18F51914FFC010C94A90E8BEB90E064
:1018B0002091F903FC01208381E00E94E00B0AC122
:1018C00090912004809121049817A0F48091200425
:1018D00091E0980F90932004282F30E08BEB90E05C
:1018E00020503C4FF9012081FC01208381E00E94BF
:1018F000E00BF0C08091FA03882319F00E94F90BE5
:10190000E9C081E08093FB038CEB90E024EAFC01CA
:1019100020831092F803DEC080E2809365040E9469
:10192000F90BD8C080E3809365040E94F90BD2C004
:1019300088E3809365040E94140CCCC02BEB30E04C
:101940008091200491E0980F90932004882F90E0DC
:10195000F901208180509C4FFC012083909120044C
:1019600080912104981720F481E00E94E00BB2C01E
:1019700080E00E94E00BAEC02BEB30E080912004B1
:1019800091E0980F90932004882F90E0F901208136
:1019900080509C4FFC0120838091FA03882319F02A
:1019A0000E94F90B97C081E08093FB038CEB90E0E1
:1019B00024EAFC0120831092F8038CC00E94F90BEA
:1019C00089C083E08093F8031092640481E00E9450
:1019D000E00B80C0809164048032A0F42BEB30E0F7
:1019E0008091640491E0980F90936404882F90E0B4
:1019F000F90120818C5B9B4FFC01208381E00E94D8
:101A0000E00B68C080E00E94E00B64C08091640439
:101A1000803240F480916404882F90E08C5B9B4F6F
:101A2000FC0110820E94F90B2091FE033091FF030C
:101A300080916404882F90E0BC0184E494E0F90173
:101A40000995109264040E94140C44C080E00E9426
:101A5000E00B40C084E08093F8031092420410929F
:101A600043048091FC039091FD03FC010995809152
:101A70004304882329F481E08093430410922204D4
:101A80008091420491E0980F90934204282F30E017
:101A90008BEB90E02E5D3B4FF9012081FC01208310
:101AA0009091420480914304981720F481E00E94B1
:101AB000E00B10C080E00E94E00B0CC081E00E94AF
:101AC000E00B1092F80306C0109265040E94F90B17
:101AD00001C000000000DF91CF91FF91EF91BF9115
:101AE000AF919F918F917F916F915F914F913F91B6
:101AF0002F910F900FBE0F901F9018958F929F926D
:101B0000AF92BF92CF92DF92EF92FF92CF93DF938B
:101B1000CDB7DEB728970FB6F894DEBF0FBECDBFA6
:101B200029833A834B835C836D837E838F8398877D
:101B3000000089809A80AB80BC80CD80DE80EF8001
:101B4000F884282D392D4A2D5B2D6C2D7D2D8E2D61
:101B50009F2DAFEF0E94BE0E29833A834B835C8397
:101B60006D837E838F839887282D392D4A2D5B2D99
:101B70006C2D7D2D8E2D9F2DA0E00E94CA0EC9F6E2
:101B80000000000028960FB6F894DEBF0FBECDBF50
:101B9000DF91CF91FF90EF90DF90CF90BF90AF900B
:101BA0009F908F900895CF93DF93CDB7DEB784ECED
:101BB00090E027E6FC01208381EC90E028E1FC0125
:101BC000208382EC90E026E0FC0120830000DF917E
:101BD000CF910895CF93DF93CDB7DEB7000080ECAF
:101BE00090E0FC0180818823D4F786EC90E0FC0132
:101BF0008081DF91CF910895CF93DF930F92CDB77E
:101C0000DEB78983000080EC90E0FC018081882FA2
:101C100090E080729927892BB1F386EC90E02981BE
:101C2000FC01208300000F90DF91CF910895CF93A6
:101C3000DF9300D0CDB7DEB79A8389830BC089814B
:101C40009A81FC0180810E94FC0D89819A81019614
:101C50009A83898389819A81FC018081882379F71D
:101C6000000000000F900F90DF91CF910895CF9367
:101C7000DF9300D0CDB7DEB79A83898389819A81BB
:101C80000A9768F189819A819C01ADECBCEC0E94B5
:101C9000AF0E9695879596958795969587950E9410
:101CA000370E49815A819A01ADECBCEC0E94AF0E0F
:101CB0009C01369527953695279536952795C90128
:101CC000880F991F880F991F820F931F880F991FE4
:101CD0009A01281B390BC9010E94370E04C0898163
:101CE000805D0E94FC0D00000F900F90DF91CF915E
:101CF0000895CF93DF930F92CDB7DEB789838981A3
:101D00008A30F0F099818DEC989F812D1124869571
:101D1000869586950E94790E29818DEC289F812DCC
:101D20001124982F969596959695892F880F880F50
:101D3000890F880F922F981B892F0E94790E04C05B
:101D40008981805D0E94FC0D00000F90DF91CF9192
:101D50000895EE0FFF1F0590F491E02D0994A29FC6
:101D6000B001B39FC001A39F700D811D1124911D6F
:101D7000B29F700D811D1124911D08950024A7FDAF
:101D800000942A0F301D401D501D601D701D801DC8
:101D9000901D08950024A7FD00942A1730054005E2
:101DA000500560057005800590050895FB01DC0174
:101DB00002C001900D9241505040D8F70895F89418
:101DC000FFCF640D6A0D6A0D6A0D6A0D6A0D6A0D0A
:101DD0006A0D560C6A0D6A0D6A0D6A0D6A0D6A0D60
:101DE0006A0D560C6A0D6A0D6A0D6A0D6A0D6A0D50
:101DF0006A0D600C6A0D6A0D6A0D6A0D6A0D6A0D36
:101E00006A0D8C0C6A0D6A0D6A0D6A0D6A0D6A0DF9
:101E10006A0D600C6A0D6A0D6A0D6A0D6A0D6A0D15
:101E20006A0D920C6A0D6A0D6A0D6A0D6A0D6A0DD3
:101E30006A0D980C6A0D6A0D6A0D6A0D6A0D6A0DBD
:101E40006A0DAE0C6A0D6A0D6A0D6A0D6A0D6A0D97
:101E50006A0DDE0C6A0D6A0D6A0D6A0D6A0D6A0D57
:101E60006A0D9E0C6A0D6A0D6A0D6A0D6A0D6A0D87
:101E70006A0DBC0C6A0D6A0D6A0D6A0D6A0D6A0D59
:101E80006A0DE10C6A0D6A0D6A0D6A0D6A0D6A0D24
:101E90006A0DE10C6A0D6A0D6A0D6A0D6A0D6A0D14
:101EA0006A0DE10C6A0D6A0D6A0D6A0D6A0D6A0D04
:101EB0006A0DE10C6A0D6A0D6A0D6A0D6A0D6A0DF4
:101EC0006A0DEA0C6A0D6A0D6A0D6A0D6A0D6A0DDB
:101ED0006A0D260D6A0D6A0D6A0D6A0D6A0D6A0D8E
:101EE0006A0DEA0C6A0D6A0D6A0D6A0D6A0D6A0DBB
:101EF0006A0D260D6A0D6A0D6A0D6A0D6A0D6A0D6E
:101F00006A0D060D6A0D6A0D6A0D6A0D6A0D6A0D7D
:101F10006A0D2A0D6A0D6A0D6A0D6A0D6A0D6A0D49
:101F20006A0D2A0D6A0D6A0D6A0D6A0D6A0D6A0D39
:101F30006A0D400D6A0D6A0D6A0D6A0D6A0D6A0D13
:101F40006A0D5E0D6A0D6A0D6A0D6A0D6A0D6A0DE5
:041F50006A0D5E0DAB
:101F54000803AE408D142000A1C8A4A6AF4341439A
:101F6400545553000000504554554E49410000203B
:101F7400202020202020202020202020202020205D
:101F840020202000200043484F4953495353455AC9
:101F940020564F54524500455350454345003C009C
:101FA40054454D50455241545552453A2020202025
:101FB40020202020002D002E35002E30006F4300FD
:101FC4004C554D494E4F534954453A20202020202A
:101FD400202020200048554D49444954453A2020AA
:101FE4002020202020202020200045535045434518
:101FF4003A2020200041540D0A0000000000000097
:102004007C0A090A7C007F49494E30003E41414127
:1020140022007F4141221C007F49494941007F0938
:10202400090901003E4149493A007F0808087F0038
:1020340000417F4100000020413F01007F0814223D
:1020440041007F40404040007F020C027F007F0639
:1020540008307F003E4141413E007F0909090600E6
:102064003E4151215E007F091929460046494949EC
:10207400310001017F0101003F4040403F001F202B
:1020840040201F003F4038403F00631408146300A1
:102094000708700807006151494543003E5149450E
:1020A4003E0000427F400000426151494600214108
:1020B400454B31001814127F10004745454539003F
:1020C4003C4A494930000171090503003649494930
:1020D4003600064949291E0000363600000000007B
:1020E4005F000000080808080800081C2A08080007
:1020F40008082A1C080010207E20100008047E0412
:10210400080000007E0000000000603000000000B5
:10211400606000000000020502000402B10A04002D
:1021240000000000000000000000000000000000AB
:10213400000000000000000000000000000000009B
:10214400000000000000000000000000000000008B
:10215400000000000000000000000000000000007B
:10216400000000000000000000000000000000006B
:10217400000000000000000000000000000000005B
:10218400000000000000000000000000000000004B
:10219400000000000000000000000000000000003B
:1021A400000000000000000000000000000000002B
:1021B400000000000000000000000000000000001B
:1021C400000000000000000000000000000000000B
:1021D40000000000000000000000000000000000FB
:1021E40000000000000000000000000000000000EB
:1021F40000000000000000000000000000000000DB
:1022040000000000000000000000000000000000CA
:1022140000000000000000000000000000000000BA
:1022240000000000000000000000000000000000AA
:10223400000000000000000000000A0B0C0D121347
:082244000E0F10111213141506
:00000001FF
