:100000000C9434000C943E000C943E000C943E0082
:100010000C943E000C943E000C943E000C943E0068
:100020000C943E000C943E000C943E000C94A700EF
:100030000C943E000C943E000C943E000C943E0048
:100040000C943E000C943E000C943E000C943E0038
:100050000C943E000C943E000C943E000C943E0028
:100060000C943E000C943E0011241FBECFEFD8E04C
:10007000DEBFCDBF0E9461010C9497010C9400007B
:10008000CF93DF9300D000D000D0CDB7DEB79C83F4
:100090008B837E836D838B819C819A8389830DC042
:1000A00049815A812B813C81429FC001439F900D21
:1000B000529F900D11249A8389838D819E8101978F
:1000C0009E838D838D819E81892B51F789819A81B1
:1000D00026960FB6F894DEBF0FBECDBFDF91CF914D
:1000E0000895CF93DF93CDB7DEB784EC90E028E09E
:1000F000FC01208381EC90E0FC01208181EC90E008
:100100002860FC01208382EC90E026E0FC01208343
:100110000000DF91CF910895CF93DF930F92CDB779
:10012000DEB78983000080EC90E0FC018081882F9D
:1001300090E080729927892BB1F386EC90E02981B9
:10014000FC01208300000F90DF91CF9108951F9252
:100150000F920FB60F9211242F933F934F935F93FB
:100160006F937F938F939F93AF93BF93EF93FF937F
:10017000CF93DF9300D0CDB7DEB71A82198280E229
:100180000E948C008CE70E948C008CE70E948C00FF
:1001900080E20E948C008AE790E0FC0120818AE7DF
:1001A00090E02064FC01208300008AE790E0FC01DD
:1001B0008081882F90E080749927892BB1F788E798
:1001C00090E0FC018081882F90E09A83898389E701
:1001D00090E0FC018081882F90E081709927892B25
:1001E00029F089819A8191609A83898389E790E0D7
:1001F000FC018081882F90E082709927892B29F05B
:1002000089819A8192609A83898389819A810E94E7
:100210001F0100000F900F90DF91CF91FF91EF91A0
:10022000BF91AF919F918F917F916F915F914F910E
:100230003F912F910F900FBE0F901F901895CF9365
:10024000DF9300D0CDB7DEB79A83898389819A8105
:100250000A9768F189819A819C01ADECBCEC0E94FF
:1002600088019695879596958795969587950E948E
:100270001F0149815A819A01ADECBCEC0E948801B2
:100280009C01369527953695279536952795C90172
:10029000880F991F880F991F820F931F880F991F2E
:1002A0009A01281B390BC9010E941F0104C08981D2
:1002B000805D0E948C0000000F900F90DF91CF9125
:1002C0000895CF93DF9300D000D0CDB7DEB70E9462
:1002D000710080E094ECA9E0B0E089839A83AB835D
:1002E000BC83000089819A81AB81BC81AC01BD01D6
:1002F000415051096109710949835A836B837C8399
:10030000892B8A2B8B2B71F782E40E948C00E1CF22
:10031000A29FB001B39FC001A39F700D811D112446
:10032000911DB29F700D811D1124911D0895F894A7
:02033000FFCFFD
:00000001FF
