:100000000C9434000C9451000C94DF040C945100B7
:100010000C9451000C9451000C9451000C9451001C
:100020000C9451000C9451000C9451000C9451000C
:100030000C9451000C9451000C9451000C945100FC
:100040000C9451000C9451000C9451000C945100EC
:100050000C9451000C9451000C9451000C945100DC
:100060000C94AD0B0C94510011241FBECFEFD8E0BF
:10007000DEBFCDBF13E0A0E0B1E0ECE4FEE102C0E2
:1000800005900D92A43FB107D9F725E0A4EFB3E0A6
:1000900001C01D92AD30B207E1F70E947A050C94C1
:1000A0005B0E0C940000CF93DF9300D00F92CDB77E
:1000B000DEB79A8389836B8300008FE390E0FC01B5
:1000C0008081882F90E082709927892BB1F781E495
:1000D00090E029813A81FC013183208380E490E023
:1000E0002B81FC0120838FE390E0FC0120818FE3D2
:1000F00090E02460FC0120838FE390E0FC012081EC
:100100008FE390E02260FC01208300000F900F90AD
:100110000F90DF91CF910895CF93DF9300D0CDB7AB
:10012000DEB79A83898300008FE390E0FC01808131
:10013000882F90E082709927892BB1F781E490E0B5
:1001400029813A81FC01318320838FE390E0FC0117
:1001500020818FE390E02160FC01208380E490E027
:10016000FC0180810F900F90DF91CF910895CF9384
:10017000DF93CDB7DEB728970FB6F894DEBF0FBE7A
:10018000CDBF9C838B837E836D8358874F831A8278
:10019000198216C02F81388589819A81820F931F19
:1001A000FC0140812B813C8189819A81820F931FC0
:1001B000642F0E94530089819A8101969A838983D2
:1001C00029813A818D819E812817390718F3000013
:1001D000000028960FB6F894DEBF0FBECDBFDF91AA
:1001E000CF9108950F931F93CF93DF93CDB7DEB7D1
:1001F00028970FB6F894DEBF0FBECDBF9C838B83CC
:100200007E836D8358874F831A82198218C02B8191
:100210003C8189819A81A901480F591F2F81388516
:1002200089819A818901080F191FCA010E948C00D7
:10023000F801808389819A8101969A838983298133
:100240003A818D819E812817390708F3000000004C
:1002500028960FB6F894DEBF0FBECDBFDF91CF91C9
:100260001F910F910895CF93DF9300D0CDB7DEB7E4
:100270009A83898389819A8148E050E06DE071E03A
:100280000E94520E89819A81089620910000FC01FB
:10029000208389819A8109962091C800FC012083DE
:1002A00089819A810A9620910000FC01208389812E
:1002B0009A810B9620917800FC01208389819A8194
:1002C0000C9620911E00FC01208389819A810D9655
:1002D00020911800FC01208389819A810E9620913B
:1002E0000200FC01208389819A810F9628B7FC01C6
:1002F000208389819A81409620910100FC0120830E
:1003000089819A8141962CB1FC01208389819A814F
:10031000429648E050E066E171E00E94520E898109
:100320009A814A9620910000FC01208389819A815C
:100330004B962091C800FC01208389819A814C96BC
:1003400020910000FC01208389819A814D962091A3
:100350007800FC01208389819A814E9620911E00AD
:10036000FC01208389819A814F9620911800FC011D
:10037000208389819A81809620910200FC0120834C
:1003800089819A81819628B7FC01208389819A818D
:10039000829620910100FC01208389819A818396B5
:1003A0002CB1FC01208300000F900F90DF91CF91C2
:1003B0000895CF93DF93CDB7DEB7A4970FB6F89427
:1003C000DEBF0FBECDBFCE0101960E943301CE012C
:1003D0000196AC0164E270E080E090E00E94B7001A
:1003E0000000A4960FB6F894DEBF0FBECDBFDF911C
:1003F000CF910895CF93DF930F92CDB7DEB71982D7
:100400000AC08981482F60E08FE191E00E94C90510
:1004100089818F5F89838981883098F381E00F908B
:10042000DF91CF910895CF93DF9300D000D0CDB767
:10043000DEB79A8389837C836B8389819A81FC01EF
:100440008081883031F489819A8123E1FC01208305
:100450000BC089819A81FC018081833129F48981D3
:100460009A8128E0FC01208300000F900F900F90EC
:100470000F90DF91CF910895CF93DF9300D000D0FC
:10048000CDB7DEB79A8389837C836B8389E290E062
:10049000FC018081882F90E080719927892B59F188
:1004A0008B819C81FC018081282F89819A81FC01AC
:1004B0008081422F682F84E391E00E94C9058B81DF
:1004C0009C81FC01808121E0280F8B819C81FC01B3
:1004D00020838B819C81FC018081883060F02B819E
:1004E0003C8189819A81B9010E9413028B819C8190
:1004F00023E0FC01208389E290E0FC018081882FC9
:1005000090E080729927892B59F18B819C81FC01A5
:100510008081282F89819A81FC018081422F682F58
:1005200084E391E00E94C9058B819C81FC0180815C
:100530002FEF280F8B819C81FC0120838B819C8174
:10054000FC018081833060F42B813C8189819A8118
:10055000B9010E9413028B819C8127E0FC0120835A
:1005600000000F900F900F900F90DF91CF910895A2
:10057000CF93DF93CDB7DEB740E062E086E391E052
:100580000E94C90541E067E087E491E00E94C90547
:100590000000DF91CF910895CF93DF93CDB7DEB701
:1005A00028970FB6F894DEBF0FBECDBF0E94B802E9
:1005B000CE010196AC0168E070E080E090E00E941E
:1005C000F20043E060E0CE0101960E94C905CE0131
:1005D0000196AC0168E070E082E190E00E94F200D8
:1005E00044E060E0CE0101960E94C9050000289613
:1005F0000FB6F894DEBF0FBECDBFDF91CF91089547
:10060000CF93DF93CDB7DEB761E071E080E091E09A
:100610000E943C020E94CC0280910101982F80919F
:100620000001492F682F8EE491E00E94C905809156
:100630000001823111F485E001C080E09091010158
:10064000890F8250809364040E94EC070000DF91C0
:10065000CF9108950F93CF93DF93CDB7DEB7A397D4
:100660000FB6F894DEBF0FBECDBF88E48A8319822F
:100670000DC0898191E0980F9983882F90E09E01A9
:100680002C5F3F4F820F931FFC01108289818032C3
:1006900080F301E021E041E060E070E08A810E94A7
:1006A000820ACE01049621E042E0BC018A810E94C8
:1006B000070A8B8301E021E040E060E070E08A817E
:1006C0000E94820ACE010496FC0180819181A3964A
:1006D0000FB6F894DEBF0FBECDBFDF91CF910F9163
:1006E0000895CF93DF9300D000D000D00F92CDB704
:1006F000DEB79F838E83CE0106969A838983898194
:100700009A81FC0180818F778B8389819A81FC019A
:100710008081881F8827881F8C8389819A81019610
:100720009A83898389819A81FC018081881F882727
:10073000881F8D8344E060E080E591E00E94C90558
:100740008C81882331F044E06CE085E691E00E94E2
:10075000C9058B8144E06DE00E94C1068D8188232C
:1007600069F08B818A3010F48EE001C08FE044E0A4
:10077000682F87E691E00E94C9050CC08B818A3002
:1007800010F48EE001C08FE044E0682F8AE691E02B
:100790000E94C9058B818A3010F480E101C081E19B
:1007A00044E0682F8DE691E00E94C905000027967D
:1007B0000FB6F894DEBF0FBECDBFDF91CF91089585
:1007C000CF93DF9300D0CDB7DEB78CE790E0FC018C
:1007D00020818CE790E0207FFC0120838AE790E075
:1007E000FC0120818AE790E02064FC012083000066
:1007F0008AE790E0FC018081882F90E0807499273F
:10080000892BB1F788E790E0FC018081882F90E088
:100810009A83898389E790E0FC018081882F90E0AA
:1008200081709927892B29F089819A8191609A8317
:10083000898389E790E0FC018081882F90E08270B5
:100840009927892B29F089819A8192609A838983DB
:1008500089819A810F900F90DF91CF910895CF9366
:10086000DF9300D0CDB7DEB78CE790E0FC012081AC
:100870008CE790E02160FC0120838CE790E0FC0194
:1008800020818CE790E0217FFC0120838AE790E0C3
:10089000FC0120818AE790E02064FC0120830000B5
:1008A0008AE790E0FC018081882F90E0807499278E
:1008B000892BB1F788E790E0FC018081882F90E0D8
:1008C0009A83898389E790E0FC018081882F90E0FA
:1008D00081709927892B29F089819A8191609A8367
:1008E000898389E790E0FC018081882F90E0827005
:1008F0009927892B29F089819A8192609A8389832B
:1009000089819A810F900F90DF91CF910895CF93B5
:10091000DF9300D0CDB7DEB78CE790E0FC012081FB
:100920008CE790E02560FC0120838CE790E0FC01DF
:1009300020818CE790E0257FFC0120838AE790E00E
:10094000FC0120818AE790E02064FC012083000004
:100950008AE790E0FC018081882F90E080749927DD
:10096000892BB1F788E790E0FC018081882F90E027
:100970009A83898389E790E0FC018081882F90E049
:1009800081709927892B29F089819A8191609A83B6
:10099000898389E790E0FC018081882F90E0827054
:1009A0009927892B29F089819A8192609A8389837A
:1009B00089819A810F900F90DF91CF9108951F92B6
:1009C0000F920FB60F9211242F933F934F935F9383
:1009D0006F937F938F939F93AF93BF93EF93FF9307
:1009E000CF93DF93CDB7DEB70E94FA018091620406
:1009F000882319F01092620403C081E0809362049E
:100A000020E436E040E050E060E070E080E090E01C
:100A10000E94080D0000DF91CF91FF91EF91BF91EF
:100A2000AF919F918F917F916F915F914F913F9186
:100A30002F910F900FBE0F901F901895CF93DF93BB
:100A4000CDB7DEB72D970FB6F894DEBF0FBECDBF82
:100A500080916404082E000C990B0197982F82E175
:100A6000989F802D112489830E94E0039B838A83B1
:100A700040E060E080E791E00E94C9058A8140E0A3
:100A80006DE00E94C1060E942F049D838C8342E08A
:100A900060E085E891E00E94C9058C8142E06DE04C
:100AA0000E94C1060E942A030E94710346E060E092
:100AB0008AE991E00E94C9058981082E000C990BF2
:100AC0009E012A5F3F4FA90168E070E00E94F2009A
:100AD000CE01069646E06BE00E94C9050E94EC0735
:100AE00000002D960FB6F894DEBF0FBECDBFDF918C
:100AF000CF910895CF93DF93CDB7DEB71092640402
:100B000089E690E0FC01208189E690E02C60FC0100
:100B100020838FE590E0FC0120818FE590E0206844
:100B2000FC0120838DE390E0FC0120818DE390E0C7
:100B30002260FC0120838AE790E0FC0120818AE7A3
:100B400090E02068FC0120838CE790E0FC0120818C
:100B50008CE790E02064FC0120830E94120981E070
:100B60008093620481E40E94780D80916204813058
:100B700019F40E94000302C00E941E0520E43FE118
:100B800040E050E060E070E080E090E00E94080DFE
:100B9000ECCFCF93DF9300D000D000D0CDB7DEB73D
:100BA0009C838B836D834E838E81482F880F550BDA
:100BB0008D81082E000C990B65E1649F9001659F63
:100BC000300D1124820F931F8B599B4F9A83898379
:100BD000C6C08B819C81FC01808181348CF08B812B
:100BE0009C81FC0180818B355CF48B819C81FC01B4
:100BF00080818054282F89819A81FC012083A5C09F
:100C00008B819C81FC01808180338CF08B819C8165
:100C1000FC0180818A335CF48B819C81FC018081A2
:100C20008551282F89819A81FC0120838EC08B8178
:100C30009C81FC018081803229F489819A81FC01A8
:100C4000108283C08B819C81FC0180818A3331F4C6
:100C500089819A8125E2FC01208377C08B819C8168
:100C6000FC018081813231F489819A8126E2FC0184
:100C700020836BC08B819C81FC0180818D3231F49B
:100C800089819A8127E2FC0120835FC08B819C814E
:100C9000FC0180818C3331F489819A8128E2FC0146
:100CA000208353C08B819C81FC0180818E3331F481
:100CB00089819A8129E2FC01208347C08B819C8134
:100CC000FC018081863731F489819A812AE2FC0116
:100CD00020833BC08B819C81FC0180818E3531F467
:100CE00089819A812BE2FC0120832FC08B819C811A
:100CF000FC0180818C3731F489819A812CE2FC01DE
:100D0000208323C08B819C81FC0180818C3231F453
:100D100089819A812DE2FC01208317C08B819C81FF
:100D2000FC0180818E3231F489819A812EE2FC01AE
:100D300020830BC08B819C81FC0180818F3629F43C
:100D400089819A812FE2FC0120838B819C8101960D
:100D50009C838B8389819A8101969A8389838B8175
:100D60009C81FC018081882309F033CF00000000C2
:100D700026960FB6F894DEBF0FBECDBFDF91CF91A0
:100D80000895CF93DF9300D000D000D0CDB7DEB769
:100D90009C838B836D834E838E81482F880F550BE8
:100DA0008D81082E000C990B65E1649F9001659F71
:100DB000300D1124820F931F8B599B4F9A83898387
:100DC0008B819C818436910508F457C08B819C816E
:100DD00096958795969587959C01ABE7B4E10E941F
:100DE0002B0E969587954BE1480F89819A819C013E
:100DF0002F5F3F4F3A832983242FFC0120834B81AF
:100E00005C81CA0196958795969587959C01ABE77D
:100E1000B4E10E942B0E9695879564E6689F900139
:100E2000699F300D1124CA01821B930B0A9750F45D
:100E300089819A819C012F5F3F4F3A8329832BE15F
:100E4000FC0120834B815C81CA019695879596951C
:100E500087959C01ABE7B4E10E942B0E9C0136956F
:100E6000279564E6629FC001639F900D11249A014B
:100E7000281B390BC9019C838B838B819C810A972A
:100E800008F450C08B819C819C01ADECBCEC0E94AD
:100E90002B0EAC0156954795569547955695479517
:100EA0009A01ADECBCEC0E942B0E9C013695279567
:100EB0003695279536952795C901880F991F880F74
:100EC000991F820F931F880F991F9A01281B390BB6
:100ED000822F4BE1480F89819A819C012F5F3F4F00
:100EE0003A832983242FFC0120834B815C819A0162
:100EF000ADECBCEC0E942B0E9C01369527953695E7
:100F0000279536952795C901880F991F880F991F36
:100F1000820F931F880F991F9A01281B390BC90153
:100F20009C838B838B814BE1480F89819A819C0143
:100F30002F5F3F4F3A832983242FFC012083000039
:100F400026960FB6F894DEBF0FBECDBFDF91CF91CE
:100F50000895CF93DF9300D000D0CDB7DEB71A82CB
:100F6000198221C01C821B8215C089819A8145E1AA
:100F7000489F9001499F300D11248B819C81820FE5
:100F8000931F8B599B4FFC0110828B819C81019692
:100F90009C838B838B819C8145973CF389819A81CB
:100FA00001969A83898389819A810897DCF20000EF
:100FB00000000F900F900F900F90DF91CF91089548
:100FC000CF93DF93CDB7DEB70E94A9070E94EC074D
:100FD0000000DF91CF910895CF93DF93CDB7DEB7B7
:100FE000CA58D1090FB6F894DEBF0FBECDBF8BE251
:100FF00090E0FC0120818BE290E02F7BFC012083BC
:1010000080E090E00E94FA0880E190E00E94FA08F7
:101010008BE290E0FC0120818BE290E02064FC01F7
:1010200020831A821982D5C029813A8145E1429FE5
:10103000C001439F900D11248B599B4F98878F833C
:101040001C821B8298C08B819C812F813885820FE6
:10105000931FFC018081282F880F330BC901880F53
:10106000991F820F931F880F991F8B559E4F9A8748
:1010700089872B813C81C901880F991F820F931F9B
:10108000880F991F9C0189859A85FC014081CE01BA
:101090000B96820F931FFC0140832B813C81C90179
:1010A000880F991F820F931F880F991F019629851A
:1010B0003A85F90141819E01255F3F4F820F931FC1
:1010C000FC0140832B813C81C901880F991F820F4D
:1010D000931F880F991F029629853A85F90142814D
:1010E0009E01255F3F4F820F931FFC0140832B81A0
:1010F0003C81C901880F991F820F931F880F991F88
:10110000039629853A85F90143819E01255F3F4F6A
:10111000820F931FFC0140832B813C81C901880F02
:10112000991F820F931F880F991F049629853A856E
:10113000F90144819E01255F3F4F820F931FFC01FF
:1011400040832B813C81C901880F991F820F931F17
:10115000880F991F059629853A85F90145819E01D9
:10116000255F3F4F820F931FFC0140838B819C8141
:1011700001969C838B838B819C8145970CF463CF74
:10118000CE0187579F4FFC011082CE0186579F4F9B
:10119000FC0110821E821D8212C09E01255F3F4FFE
:1011A0008D819E81820F931FFC018081882F90E0AA
:1011B0000E94FA088D819E8101969E838D838D8188
:1011C0009E81803891054CF389819A8101969A839A
:1011D000898389819A8108970CF426CF000000004A
:1011E000C657DF4F0FB6F894DEBF0FBECDBFDF91FD
:1011F000CF910895CF93DF930F92CDB7DEB7898358
:101200008EE490E02981FC01208300008DE490E0D1
:10121000FC0180818823D4F7000000000F90DF914B
:10122000CF910895CF93DF9300D00F92CDB7DEB763
:101230008AE290E0FC0120818AE290E02064FC01D7
:1012400020838AE290E0FC0120818AE290E020681D
:10125000FC01208384E290E0FC01208184E290E0A4
:101260002160FC01208385E290E0FC01208185E281
:1012700090E02460FC0120838CE490E020E5FC01F8
:1012800020838AE290E0FC0120818AE290E02068DD
:10129000FC01208384E290E0FC01208184E290E064
:1012A0002062FC01208384E290E0FC01208184E242
:1012B00090E02860FC01208385E290E0FC01208121
:1012C00085E290E02160FC0120838BE290E0FC014C
:1012D00020818BE290E02F7BFC01208319820CC0DF
:1012E000898191E0980F9983882F90E08E5F9E4FBF
:1012F000FC0180810E94FA0889818B3088F38BE29F
:1013000090E0FC0120818BE290E02064FC012083CE
:101310001B821A8208C080E00E94FA088A819B81A1
:1013200001969B838A838A819B81811594409CF3DB
:101330000E94A90700000F900F900F90DF91CF91AE
:101340000895CF93DF93CDB7DEB71092F40381E019
:101350008093F6031092F70388E290E0FC0180810D
:10136000482F82E1282F30E081E090E002C0880F12
:10137000991F2A95E2F7242F282B88E290E0FC01A0
:10138000208388E290E0FC018081482F83E1282FB0
:1013900030E081E090E002C0880F991F2A95E2F7C3
:1013A000242F282B88E290E0FC01208389EB90E039
:1013B000FC01208189EB90E02E7FFC01208389EBEA
:1013C00090E0FC01208189EB90E02D7FFC012083DF
:1013D00088EB90E020E2FC0120838CEB90E025E498
:1013E000FC0120830000DF91CF910895CF93DF931C
:1013F0000F92CDB7DEB789838AEB90E02981220F67
:10140000FC01208300000F90DF91CF910895CF93CE
:10141000DF9300D000D000D0CDB7DEB78A837C83C5
:101420006B834D832E838D81813218F080E061C003
:1014300000008091F4038823D9F781E08093F403BE
:101440008E818093F6038FEF8093610410921C04C9
:101450008D81815080931D0481E08093F5038A8102
:10146000882F90E0880F991F982F8091F503892B82
:101470008093F5038091F703813071F41092F703A4
:101480008BEB90E02091F503FC0120838CEB90E046
:1014900025ECFC01208307C08CEB90E025EEFC01DD
:1014A000208301C000008091F4038130D9F3809142
:1014B0001C049D81891718F480911C048D83198266
:1014C00013C08981282F30E08981882F90E04B81DB
:1014D0005C81840F951F24503C4FF9012081FC0151
:1014E000208389818F5F898399818D81981748F343
:1014F0008D8126960FB6F894DEBF0FBECDBFDF916B
:10150000CF9108950F93CF93DF9300D000D000D0F8
:101510000F92CDB7DEB78A837C836B834D832E8396
:101520000F838D81813218F081E06CC000008091C2
:10153000F4038823D9F782E08093F4038F818093AA
:10154000F6038FEF8093610410921C048D818093C9
:101550001D04198213C08981882F90E02B813C8162
:10156000280F391F8981882F90E0F901208184504C
:101570009C4FFC01208389818F5F898399818D81B4
:10158000981748F31092F5038A81882F90E0880F0E
:10159000991F982F8091F503892B8093F5038091F3
:1015A000F703813071F41092F7038BEB90E02091F8
:1015B000F503FC0120838CEB90E025ECFC012083FB
:1015C00007C08CEB90E025EEFC01208301C00000F9
:1015D0008E81882321F08091F4038230C1F38091C1
:1015E00061048F3F11F480E00DC08091610480326E
:1015F00011F482E007C080916104803311F483E02C
:1016000001C084E027960FB6F894DEBF0FBECDBFB1
:10161000DF91CF910F910895CF93DF9300D000D049
:10162000CDB7DEB79B838A836C838C81813210F0C7
:1016300081E023C08091F403843011F082E01DC06A
:101640008C8180933F04198213C08981882F90E098
:101650002A813B81280F391F8981882F90E0F90169
:101660002081825E9B4FFC01208389818F5F89836B
:1016700099818C81981748F380E00F900F900F901C
:101680000F90DF91CF910895CF93DF9300D0CDB726
:10169000DEB79A83898389819A819093FB03809333
:1016A000FA0300000F900F90DF91CF910895CF9330
:1016B000DF9300D0CDB7DEB79A83898389819A8181
:1016C0009093F9038093F80300000F900F90DF913F
:1016D000CF910895CF93DF930F92CDB7DEB7898373
:1016E0008981882331F08CEB90E025ECFC0120838C
:1016F00005C08CEB90E025E8FC01208300000F90F2
:10170000DF91CF910895CF93DF93CDB7DEB78CEB08
:1017100090E025EDFC01208301C000008CEB90E0FF
:10172000FC018081882F90E080719927892BA9F78F
:101730001092F4030000DF91CF910895CF93DF93CF
:10174000CDB7DEB78CEB90E025ECFC012083109246
:10175000F4030000DF91CF9108951F920F920FB60E
:101760000F9211242F933F934F935F936F937F9327
:101770008F939F93AF93BF93EF93FF93CF93DF9399
:10178000CDB7DEB789EB90E0FC018081882F90E037
:10179000887F9927893C91050CF025C199230CF489
:1017A00023C1092E000CAA0BBB0B893C9105A10596
:1017B000B10508F019C1835A914FFC010C94250E14
:1017C0008BEB90E02091F503FC01208381E00E94E7
:1017D0006A0B0AC190911C0480911D049817A0F413
:1017E00080911C0491E0980F90931C04282F30E006
:1017F0008BEB90E024503C4FF9012081FC012083C9
:1018000081E00E946A0BF0C08091F603882319F0F2
:101810000E94830BE9C081E08093F7038CEB90E09A
:1018200024EAFC0120831092F403DEC080E280935E
:1018300061040E94830BD8C080E3809361040E94FE
:10184000830BD2C088E3809361040E949E0BCCC0BE
:101850002BEB30E080911C0491E0980F90931C04D6
:10186000882F90E0F901208184509C4FFC01208357
:1018700090911C0480911D04981720F481E00E942F
:101880006A0BB2C080E00E946A0BAEC02BEB30E066
:1018900080911C0491E0980F90931C04882F90E095
:1018A000F901208184509C4FFC0120838091F60334
:1018B000882319F00E94830B97C081E08093F7037F
:1018C0008CEB90E024EAFC0120831092F4038CC09E
:1018D0000E94830B89C083E08093F403109260041C
:1018E00081E00E946A0B80C0809160048032A0F485
:1018F0002BEB30E08091600491E0980F90936004AE
:10190000882F90E0F9012081805C9B4FFC012083AF
:1019100081E00E946A0B68C080E00E946A0B64C08C
:1019200080916004803240F480916004882F90E0C0
:10193000805C9B4FFC0110820E94830B2091FA0374
:101940003091FB0380916004882F90E0BC0180E41B
:1019500094E0F9010995109260040E949E0B44C026
:1019600080E00E946A0B40C084E08093F4031092F0
:101970003E0410923F048091F8039091F903FC011A
:10198000099580913F04882329F481E080933F04E6
:1019900010921E0480913E0491E0980F90933E04B3
:1019A000282F30E08BEB90E0225E3B4FF901208145
:1019B000FC01208390913E0480913F04981720F40D
:1019C00081E00E946A0B10C080E00E946A0B0CC08C
:1019D00081E00E946A0B1092F40306C01092610429
:1019E0000E94830B01C000000000DF91CF91FF91A6
:1019F000EF91BF91AF919F918F917F916F915F9187
:101A00004F913F912F910F900FBE0F901F901895FF
:101A10008F929F92AF92BF92CF92DF92EF92FF92FE
:101A2000CF93DF93CDB7DEB728970FB6F894DEBF1C
:101A30000FBECDBF29833A834B835C836D837E8346
:101A40008F839887000089809A80AB80BC80CD808E
:101A5000DE80EF80F884282D392D4A2D5B2D6C2DEA
:101A60007D2D8E2D9F2DAFEF0E943A0E29833A8354
:101A70004B835C836D837E838F839887282D392DDC
:101A80004A2D5B2D6C2D7D2D8E2D9F2DA0E00E946B
:101A9000460EC9F60000000028960FB6F894DEBF87
:101AA0000FBECDBFDF91CF91FF90EF90DF90CF9031
:101AB000BF90AF909F908F900895CF93DF93CDB755
:101AC000DEB784EC90E028E0FC01208381EC90E01C
:101AD000FC01208181EC90E02860FC01208382ECF5
:101AE00090E026E0FC0120830000DF91CF91089573
:101AF000CF93DF930F92CDB7DEB78983000080ECE0
:101B000090E0FC018081882F90E080729927892BDA
:101B1000B1F386EC90E02981FC01208300000F9056
:101B2000DF91CF910895CF93DF9300D0CDB7DEB78B
:101B30009A8389830BC089819A81FC0180810E94EC
:101B4000780D89819A8101969A83898389819A8106
:101B5000FC018081882379F7000000000F900F902E
:101B6000DF91CF910895CF93DF9300D0CDB7DEB74B
:101B70009A83898389819A810A9768F189819A81F8
:101B80009C01ADECBCEC0E942B0E9695879596952A
:101B90008795969587950E94B30D49815A819A0140
:101BA000ADECBCEC0E942B0E9C013695279536952A
:101BB000279536952795C901880F991F880F991F7A
:101BC000820F931F880F991F9A01281B390BC90197
:101BD0000E94B30D04C08981805D0E94780D0000D1
:101BE0000F900F90DF91CF910895CF93DF930F92D5
:101BF000CDB7DEB7898389818A30F0F099818DEC89
:101C0000989F812D11248695869586950E94F50DC5
:101C100029818DEC289F812D1124982F96959695DA
:101C20009695892F880F880F890F880F922F981B00
:101C3000892F0E94F50D04C08981805D0E94780D76
:101C400000000F90DF91CF910895EE0FFF1F0590D8
:101C5000F491E02D0994A29FB001B39FC001A39F0E
:101C6000700D811D1124911DB29F700D811D1124D5
:101C7000911D08950024A7FD00942A0F301D401DDA
:101C8000501D601D701D801D901D08950024A7FD2E
:101C900000942A1730054005500560057005800541
:101CA00090050895FB01DC0102C001900D924150A6
:101CB0005040D8F70895F894FFCFEE0CF40CF40CD4
:101CC000F40CF40CF40CF40CF40CE00BF40CF40C29
:101CD000F40CF40CF40CF40CF40CE00BF40CF40C19
:101CE000F40CF40CF40CF40CF40CEA0BF40CF40CFF
:101CF000F40CF40CF40CF40CF40C160CF40CF40CC2
:101D0000F40CF40CF40CF40CF40CEA0BF40CF40CDE
:101D1000F40CF40CF40CF40CF40C1C0CF40CF40C9B
:101D2000F40CF40CF40CF40CF40C220CF40CF40C85
:101D3000F40CF40CF40CF40CF40C380CF40CF40C5F
:101D4000F40CF40CF40CF40CF40C680CF40CF40C1F
:101D5000F40CF40CF40CF40CF40C280CF40CF40C4F
:101D6000F40CF40CF40CF40CF40C460CF40CF40C21
:101D7000F40CF40CF40CF40CF40C6B0CF40CF40CEC
:101D8000F40CF40CF40CF40CF40C6B0CF40CF40CDC
:101D9000F40CF40CF40CF40CF40C6B0CF40CF40CCC
:101DA000F40CF40CF40CF40CF40C6B0CF40CF40CBC
:101DB000F40CF40CF40CF40CF40C740CF40CF40CA3
:101DC000F40CF40CF40CF40CF40CB00CF40CF40C57
:101DD000F40CF40CF40CF40CF40C740CF40CF40C83
:101DE000F40CF40CF40CF40CF40CB00CF40CF40C37
:101DF000F40CF40CF40CF40CF40C900CF40CF40C47
:101E0000F40CF40CF40CF40CF40CB40CF40CF40C12
:101E1000F40CF40CF40CF40CF40CB40CF40CF40C02
:101E2000F40CF40CF40CF40CF40CCA0CF40CF40CDC
:101E3000F40CF40CF40CF40CF40CE80CF40CF40CAE
:0C1E4000F40CF40CF40CF40CF40CE80CA2
:101E4C000803AE408D142000A1C8A4A6AF434143A3
:101E5C00545553000000504554554E494100002044
:101E6C002020202020202020202020202020202066
:101E7C0020202000200043484F4953495353455AD2
:101E8C0020564F54524500455350454345003C00A5
:101E9C0054454D50455241545552453A202020202E
:101EAC0020202020002D002E35002E30006F430006
:101EBC004C554D494E4F534954453A202020202033
:101ECC00202020200048554D49444954453A2020B3
:101EDC002020202020202020200045535045434521
:101EEC003A202020000000000000007C0A090A7C37
:101EFC00007F49494E30003E41414122007F414123
:101F0C00221C007F49494941007F09090901003E13
:101F1C004149493A007F0808087F0000417F410091
:101F2C00000020413F01007F08142241007F404007
:101F3C004040007F020C027F007F0608307F003E8D
:101F4C004141413E007F09090906003E4151215E95
:101F5C00007F091929460046494949310001017F92
:101F6C000101003F4040403F001F2040201F003F28
:101F7C004038403F006314081463000708700807DA
:101F8C00006151494543003E5149453E0000427FA6
:101F9C004000004261514946002141454B31001837
:101FAC0014127F10004745454539003C4A494930D9
:101FBC0000017109050300364949493600064949B3
:101FCC00291E0000363600000000005F00000008EB
:101FDC000808080800081C2A08080008082A1C0819
:101FEC000010207E20100008047E04080000007EF3
:101FFC000000000000603000000000606000000085
:10200C0000020502000000000000000000000000BB
:10201C0000000000000000000000000000000000B4
:10202C0000000000000000000000000000000000A4
:10203C000000000000000000000000000000000094
:10204C000000000000000000000000000000000084
:10205C000000000000000000000000000000000074
:10206C000000000000000000000000000000000064
:10207C000000000000000000000000000000000054
:10208C000000000000000000000000000000000044
:10209C000000000000000000000000000000000034
:1020AC000000000000000000000000000000000024
:1020BC000000000000000000000000000000000014
:1020CC000000000000000000000000000000000004
:1020DC0000000000000000000000000000000000F4
:1020EC0000000000000000000000000000000000E4
:1020FC0000000000000000000000000000000000D4
:10210C0000000000000000000000000000000000C3
:10211C0000000000000000000000000000000000B3
:10212C0000000000000A0B0C0D12130E0F10111200
:04213C001314150063
:00000001FF
