:100000000C9434000C9451000C9451000C94510049
:100010000C9451000C9451000C9451000C9451001C
:100020000C9451000C9451000C9451000C9451000C
:100030000C9451000C9451000C9451000C945100FC
:100040000C9451000C9451000C9451000C945100EC
:100050000C9451000C9451000C9451000C945100DC
:100060000C94F0070C94510011241FBECFEFD8E080
:10007000DEBFCDBF13E0A0E0B1E0E0ECF6E102C0EE
:1000800005900D92A839B107D9F724E0A8E9B3E0AB
:1000900001C01D92AE3AB207E1F70E9419020C941A
:1000A000950A0C9400000F93CF93DF93CDB7DEB782
:1000B000A3970FB6F894DEBF0FBECDBF88E48A8346
:1000C00019820DC0898191E0980F9983882F90E063
:1000D0009E012C5F3F4F820F931FFC01108289818C
:1000E000803280F301E021E041E060E070E08A814D
:1000F0000E94C506CE01049621E042E0BC018A813F
:100100000E944A068B8301E021E040E060E070E05D
:100110008A810E94C506CE010496FC0180819181EE
:10012000A3960FB6F894DEBF0FBECDBFDF91CF917F
:100130000F910895CF93DF9300D000D000D00F929D
:10014000CDB7DEB79F838E83CE0106969A838983CF
:1001500089819A81FC0180818F778B8389819A8143
:10016000FC018081881F8827881F8C8389819A8160
:1001700001969A83898389819A81FC018081881FF5
:100180008827881F8D8344E050E060E070E08BE0BA
:1001900091E00E9475028C81882341F044E050E098
:1001A0006DE070E080E291E00E9475028B81882F03
:1001B00090E044E050E06EE070E00E946D038D81BD
:1001C000882381F08B818A3018F48FE090E002C0A0
:1001D00080E190E044E050E0BC0182E291E00E94C6
:1001E00075020FC08B818A3018F48FE090E002C056
:1001F00080E190E044E050E0BC0185E291E00E94A3
:1002000075028B818A3018F481E190E002C082E1AE
:1002100090E044E050E0BC0188E291E00E94750269
:10022000000027960FB6F894DEBF0FBECDBFDF915A
:10023000CF910895CF93DF9300D0CDB7DEB78CE791
:1002400090E0FC0120818CE790E0207FFC0120837E
:100250008AE790E0FC0120818AE790E02064FC01BD
:10026000208300008AE790E0FC018081882F90E0E5
:1002700080749927892BB1F788E790E0FC01808191
:10028000882F90E09A83898389E790E0FC01808140
:10029000882F90E081709927892B29F089819A8194
:1002A00091609A83898389E790E0FC018081882F9F
:1002B00090E082709927892B29F089819A81926038
:1002C0009A83898389819A810F900F90DF91CF91D2
:1002D0000895CF93DF9300D0CDB7DEB78CE790E0E1
:1002E000FC0120818CE790E02160FC0120838CE7F9
:1002F00090E0FC0120818CE790E0217FFC012083CD
:100300008AE790E0FC0120818AE790E02064FC010C
:10031000208300008AE790E0FC018081882F90E034
:1003200080749927892BB1F788E790E0FC018081E0
:10033000882F90E09A83898389E790E0FC0180818F
:10034000882F90E081709927892B29F089819A81E3
:1003500091609A83898389E790E0FC018081882FEE
:1003600090E082709927892B29F089819A81926087
:100370009A83898389819A810F900F90DF91CF9121
:100380000895CF93DF9300D0CDB7DEB78CE790E030
:10039000FC0120818CE790E02560FC0120838CE744
:1003A00090E0FC0120818CE790E0257FFC01208318
:1003B0008AE790E0FC0120818AE790E02064FC015C
:1003C000208300008AE790E0FC018081882F90E084
:1003D00080749927892BB1F788E790E0FC01808130
:1003E000882F90E09A83898389E790E0FC018081DF
:1003F000882F90E081709927892B29F089819A8133
:1004000091609A83898389E790E0FC018081882F3D
:1004100090E082709927892B29F089819A819260D6
:100420009A83898389819A810F900F90DF91CF9170
:100430000895CF93DF9300D000D0CDB7DEB78FE51E
:1004400090E0FC0120818FE590E02068FC01208392
:100450008AE790E0FC0120818AE790E02068FC01B7
:1004600020838CE790E0FC0120818CE790E0206401
:10047000FC0120830E9455050E941A019A838983FA
:1004800040E050E060E070E08BE291E00E94750295
:1004900089819A8140E050E06EE070E00E946D0337
:1004A0000E9469019C838B8342E050E060E070E031
:1004B0008BE391E00E9475028B819C8142E050E0C9
:1004C0006CE070E00E946D030E9453000E949A004D
:1004D0000E942F0420E83EE340E050E060E070E03E
:1004E00080E090E00E944B09C7CFCF93DF9300D00C
:1004F00000D000D0CDB7DEB79C838B836D834E8355
:100500008E81482F880F550B8D81082E000C990B7A
:1005100065E1649F9001659F300D1124820F931F48
:100520008A5F9B4F9A838983C6C08B819C81FC0123
:10053000808181348CF08B819C81FC0180818B35A2
:100540005CF48B819C81FC0180818054282F8981FF
:100550009A81FC012083A5C08B819C81FC01808154
:1005600080338CF08B819C81FC0180818A335CF428
:100570008B819C81FC0180818551282F89819A8102
:10058000FC0120838EC08B819C81FC0180818032A4
:1005900029F489819A81FC01108283C08B819C811E
:1005A000FC0180818A3331F489819A8125E2FC0142
:1005B000208377C08B819C81FC018081813231F462
:1005C00089819A8126E2FC0120836BC08B819C810A
:1005D000FC0180818D3231F489819A8127E2FC010E
:1005E00020835FC08B819C81FC0180818C3331F43E
:1005F00089819A8128E2FC01208353C08B819C81F0
:10060000FC0180818E3331F489819A8129E2FC01D9
:10061000208347C08B819C81FC018081863731F427
:1006200089819A812AE2FC0120833BC08B819C81D5
:10063000FC0180818E3531F489819A812BE2FC01A5
:1006400020832FC08B819C81FC0180818C3731F409
:1006500089819A812CE2FC01208323C08B819C81BB
:10066000FC0180818C3231F489819A812DE2FC0178
:10067000208317C08B819C81FC0180818E3231F4F4
:1006800089819A812EE2FC0120830BC08B819C81A1
:10069000FC0180818F3629F489819A812FE2FC0147
:1006A00020838B819C8101969C838B8389819A8195
:1006B00001969A8389838B819C81FC0180818823A8
:1006C00009F033CF0000000026960FB6F894DEBF85
:1006D0000FBECDBFDF91CF910895CF93DF9300D0B0
:1006E00000D00F92CDB7DEB78B836C834D838D81A5
:1006F000482F880F550B8C81082E000C990B65E153
:10070000649F9001659F300D1124820F931F8A5FB3
:100710009B4F9A8389838B81843608F19B8189E280
:10072000989F812D112482958F704BE1480F89810C
:100730009A819C012F5F3F4F3A832983242FFC012C
:1007400020838B8199E2899F912D1124292F229555
:100750002F7094E6299F902D1124891B8B838B8108
:100760008A30B0F19B818DEC989F812D1124282F28
:100770002695269526958DEC289F812D1124982F5E
:10078000969596959695892F880F880F890F880FD3
:10079000922F981B4BE1490F89819A819C012F5F11
:1007A0003F4F3A832983242FFC0120839B818DECCA
:1007B000989F812D1124282F269526952695822FE6
:1007C000880F880F820F880FF92FF81B8F2F8B83CC
:1007D0008B81855E282F89819A81FC01208300000E
:1007E0000F900F900F900F900F90DF91CF91089581
:1007F000CF93DF9300D000D0CDB7DEB71A82198235
:1008000021C01C821B8215C089819A8145E1489FC5
:100810009001499F300D11248B819C81820F931F81
:100820008A5F9B4FFC0110828B819C8101969C8387
:100830008B838B819C8145973CF389819A810196BA
:100840009A83898389819A810897DCF200000000ED
:100850000F900F900F900F90DF91CF910895CF934D
:10086000DF93CDB7DEB7CA58D1090FB6F894DEBF13
:100870000FBECDBF8BE290E0FC0120818BE290E0C7
:100880002F7BFC01208380E090E00E943D0580E109
:1008900090E00E943D058BE290E0FC0120818BE21C
:1008A00090E02064FC0120831A821982D5C029813E
:1008B0003A8145E1429FC001439F900D11248A5F18
:1008C0009B4F98878F831C821B8298C08B819C8151
:1008D0002F813885820F931FFC018081282F880F7C
:1008E000330BC901880F991F820F931F880F991F1F
:1008F000875B9E4F9A8789872B813C81C901880F2E
:10090000991F820F931F880F991F9C0189859A85D3
:10091000FC014081CE010B96820F931FFC014083A6
:100920002B813C81C901880F991F820F931F880F6B
:10093000991F019629853A85F90141819E01255F1C
:100940003F4F820F931FFC0140832B813C81C901E3
:10095000880F991F820F931F880F991F0296298570
:100960003A85F90142819E01255F3F4F820F931F17
:10097000FC0140832B813C81C901880F991F820FA4
:10098000931F880F991F039629853A85F9014381A2
:100990009E01255F3F4F820F931FFC0140832B81F7
:1009A0003C81C901880F991F820F931F880F991FDF
:1009B000049629853A85F90144819E01255F3F4FC0
:1009C000820F931FFC0140832B813C81C901880F5A
:1009D000991F820F931F880F991F059629853A85C5
:1009E000F90145819E01255F3F4F820F931FFC0156
:1009F00040838B819C8101969C838B838B819C811E
:100A000045970CF463CFCE0187579F4FFC011082AE
:100A1000CE0186579F4FFC0110821E821D8212C09C
:100A20009E01255F3F4F8D819E81820F931FFC01A8
:100A30008081882F90E00E943D058D819E810196E6
:100A40009E838D838D819E81803891054CF38981B1
:100A50009A8101969A83898389819A8108970CF4F7
:100A600026CF00000000C657DF4F0FB6F894DEBF58
:100A70000FBECDBFDF91CF910895CF93DF930F923B
:100A8000CDB7DEB789838EE490E02981FC01208315
:100A900000008DE490E0FC0180818823D4F7000001
:100AA00000000F90DF91CF910895CF93DF9300D096
:100AB0000F92CDB7DEB78AE290E0FC0120818AE296
:100AC00090E02064FC0120838AE290E0FC01208118
:100AD0008AE290E02068FC01208384E290E0FC013F
:100AE000208184E290E02160FC01208385E290E097
:100AF000FC01208185E290E02460FC0120838CE4ED
:100B000090E020E5FC0120838AE290E0FC01208156
:100B10008AE290E02068FC01208384E290E0FC01FE
:100B2000208184E290E02062FC01208384E290E056
:100B3000FC01208184E290E02860FC01208385E2B2
:100B400090E0FC01208185E290E02160FC0120839F
:100B50008BE290E0FC0120818BE290E02F7BFC0196
:100B6000208319820CC0898191E0980F9983882F86
:100B700090E080509F4FFC0180810E943D0589815B
:100B80008B3088F38BE290E0FC0120818BE290E0D7
:100B90002064FC0120831B821A8208C080E00E942E
:100BA0003D058A819B8101969B838A838A819B81F3
:100BB000811594409CF30E94F80300000F900F9061
:100BC0000F90DF91CF910895CF93DF93CDB7DEB72C
:100BD0001092980381E080939A0310929B0388E21D
:100BE00090E0FC018081482F82E1282F30E081E0F5
:100BF00090E002C0880F991F2A95E2F7242F282B36
:100C000088E290E0FC01208388E290E0FC01808192
:100C1000482F83E1282F30E081E090E002C0880F68
:100C2000991F2A95E2F7242F282B88E290E0FC01F7
:100C3000208389EB90E0FC01208189EB90E02E7FFE
:100C4000FC01208389EB90E0FC01208189EB90E09E
:100C50002D7FFC01208388EB90E028E4FC012083B9
:100C60008CEB90E025E4FC0120830000DF91CF9124
:100C70000895CF93DF930F92CDB7DEB789838AEBC8
:100C800090E02981220FFC01208300000F90DF916A
:100C9000CF910895CF93DF9300D000D000D0CDB78F
:100CA000DEB78A837C836B834D832E838D81813273
:100CB00018F080E061C00000809198038823D9F784
:100CC00081E0809398038E8180939A038FEF8093C5
:100CD00005041092C0038D8181508093C10381E08F
:100CE000809399038A81882F90E0880F991F982F0D
:100CF00080919903892B8093990380919B03813084
:100D000071F410929B038BEB90E020919903FC010E
:100D100020838CEB90E025ECFC01208307C08CEB5A
:100D200090E025EEFC01208301C000008091980333
:100D30008130D9F38091C0039D81891718F4809187
:100D4000C0038D83198213C08981282F30E08981E7
:100D5000882F90E04B815C81840F951F20563C4F7B
:100D6000F9012081FC01208389818F5F898399812A
:100D70008D81981748F38D8126960FB6F894DEBFC3
:100D80000FBECDBFDF91CF9108950F93CF93DF9327
:100D900000D000D000D00F92CDB7DEB78A837C831D
:100DA0006B834D832E830F838D81813218F081E018
:100DB0006CC00000809198038823D9F782E080936B
:100DC00098038F8180939A038FEF8093050410928C
:100DD000C0038D818093C103198213C08981882F3C
:100DE00090E02B813C81280F391F8981882F90E06A
:100DF000F901208180569C4FFC01208389818F5FFF
:100E0000898399818D81981748F3109299038A817B
:100E1000882F90E0880F991F982F80919903892B34
:100E20008093990380919B03813071F410929B030E
:100E30008BEB90E020919903FC0120838CEB90E0F8
:100E400025ECFC01208307C08CEB90E025EEFC0133
:100E5000208301C000008E81882321F080919803B7
:100E60008230C1F3809105048F3F11F480E00DC002
:100E700080910504803211F482E007C0809105045E
:100E8000803311F483E001C084E027960FB6F89414
:100E9000DEBF0FBECDBFDF91CF910F910895CF93ED
:100EA000DF9300D000D0CDB7DEB79B838A836C83FD
:100EB0008C81813210F081E023C0809198038430CE
:100EC00011F082E01DC08C818093E303198213C06E
:100ED0008981882F90E02A813B81280F391F8981E1
:100EE000882F90E0F90120818E539C4FFC012083D4
:100EF00089818F5F898399818C81981748F380E07D
:100F00000F900F900F900F90DF91CF910895CF9396
:100F1000DF9300D0CDB7DEB79A83898389819A8128
:100F200090939F0380939E0300000F900F90DF919A
:100F3000CF910895CF93DF9300D0CDB7DEB79A83DA
:100F4000898389819A8190939D0380939C030000FB
:100F50000F900F90DF91CF910895CF93DF930F9271
:100F6000CDB7DEB789838981882331F08CEB90E09F
:100F700025ECFC01208305C08CEB90E025E8FC010A
:100F8000208300000F90DF91CF910895CF93DF93DE
:100F9000CDB7DEB78CEB90E025EDFC01208301C0DE
:100FA00000008CEB90E0FC018081882F90E0807144
:100FB0009927892BA9F7109298030000DF91CF9110
:100FC0000895CF93DF93CDB7DEB78CEB90E025EC9F
:100FD000FC012083109298030000DF91CF910895C7
:100FE0001F920F920FB60F9211242F933F934F939E
:100FF0005F936F937F938F939F93AF93BF93EF9381
:10100000FF93CF93DF93CDB7DEB789EB90E0FC0180
:101010008081882F90E0887F9927893C91050CF08A
:1010200025C199230CF423C1092E000CAA0BBB0B7C
:10103000893C9105A105B10508F019C18956954F64
:10104000FC010C94680A8BEB90E020919903FC0161
:10105000208381E00E94AD070AC19091C003809176
:10106000C1039817A0F48091C00391E0980F90936A
:10107000C003282F30E08BEB90E020563C4FF90165
:101080002081FC01208381E00E94AD07F0C08091A7
:101090009A03882319F00E94C607E9C081E0809373
:1010A0009B038CEB90E024EAFC01208310929803D0
:1010B000DEC080E2809305040E94C607D8C080E3AA
:1010C000809305040E94C607D2C088E3809305047C
:1010D0000E94E107CCC02BEB30E08091C00391E08F
:1010E000980F9093C003882F90E0F90120818056DB
:1010F0009C4FFC0120839091C0038091C1039817FD
:1011000020F481E00E94AD07B2C080E00E94AD07EC
:10111000AEC02BEB30E08091C00391E0980F90932C
:10112000C003882F90E0F901208180569C4FFC017C
:10113000208380919A03882319F00E94C60797C0E4
:1011400081E080939B038CEB90E024EAFC012083F8
:10115000109298038CC00E94C60789C083E08093D8
:1011600098031092040481E00E94AD0780C0809132
:1011700004048032A0F42BEB30E08091040491E071
:10118000980F90930404882F90E0F90120818C51EE
:101190009C4FFC01208381E00E94AD0768C080E085
:1011A0000E94AD0764C080910404803240F48091B5
:1011B0000404882F90E08C519C4FFC0110820E9407
:1011C000C60720919E0330919F0380910404882FCD
:1011D00090E0BC0184EE93E0F901099510920404BB
:1011E0000E94E10744C080E00E94AD0740C084E057
:1011F000809398031092E2031092E30380919C0382
:1012000090919D03FC0109958091E303882329F4C3
:1012100081E08093E3031092C2038091E20391E0A6
:10122000980F9093E203282F30E08BEB90E02E5341
:101230003C4FF9012081FC0120839091E2038091D1
:10124000E303981720F481E00E94AD0710C080E00E
:101250000E94AD070CC081E00E94AD071092980378
:1012600006C0109205040E94C60701C000000000DD
:10127000DF91CF91FF91EF91BF91AF919F918F91AE
:101280007F916F915F914F913F912F910F900FBE82
:101290000F901F9018958F929F92AF92BF92CF920E
:1012A000DF92EF92FF92CF93DF93CDB7DEB728970F
:1012B0000FB6F894DEBF0FBECDBF29833A834B83B0
:1012C0005C836D837E838F839887000089809A80FA
:1012D000AB80BC80CD80DE80EF80F884282D392D56
:1012E0004A2D5B2D6C2D7D2D8E2D9F2DAFEF0E94F5
:1012F0007D0A29833A834B835C836D837E838F834E
:101300009887282D392D4A2D5B2D6C2D7D2D8E2D06
:101310009F2DA0E00E94890AC9F6000000002896CF
:101320000FB6F894DEBF0FBECDBFDF91CF91FF9017
:10133000EF90DF90CF90BF90AF909F908F900895E7
:10134000CF93DF93CDB7DEB784EC90E028E0FC01CB
:10135000208381EC90E0FC01208181EC90E028600A
:10136000FC01208382EC90E026E0FC012083000059
:10137000DF91CF910895CF93DF930F92CDB7DEB772
:101380008983000080EC90E0FC018081882F90E050
:1013900080729927892BB1F386EC90E02981FC01BA
:1013A000208300000F90DF91CF910895CF93DF93BA
:1013B00000D0CDB7DEB79A8389830BC089819A812B
:1013C000FC0180810E94BB0989819A8101969A83E0
:1013D000898389819A81FC018081882379F70000C3
:1013E00000000F900F90DF91CF910895CF93DF937E
:1013F00000D0CDB7DEB79A83898389819A810A9715
:1014000068F189819A819C01ADECBCEC0E946E0A66
:101410009695879596958795969587950E94F60956
:1014200049815A819A01ADECBCEC0E946E0A9C0184
:10143000369527953695279536952795C901880FB6
:10144000991F880F991F820F931F880F991F9A0168
:10145000281B390BC9010E94F60904C08981805DEF
:101460000E94BB0900000F900F90DF91CF9108956B
:10147000CF93DF930F92CDB7DEB7898389818A300E
:10148000F0F099818DEC989F812D11248695869599
:1014900086950E94380A29818DEC289F812D112480
:1014A000982F969596959695892F880F880F890F76
:1014B000880F922F981B892F0E94380A04C08981B7
:1014C000805D0E94BB0900000F90DF91CF910895CD
:1014D000EE0FFF1F0590F491E02D0994A29FB0013B
:1014E000B39FC001A39F700D811D1124911DB29F58
:1014F000700D811D1124911D08950024A7FD0094F5
:101500002A0F301D401D501D601D701D801D901D37
:1015100008950024A7FD00942A17300540055005C2
:1015200060057005800590050895F894FFCF310996
:1015300037093709370937093709370937092308C0
:1015400037093709370937093709370937092308B0
:1015500037093709370937093709370937092D0896
:10156000370937093709370937093709370959085A
:1015700037093709370937093709370937092D0876
:1015800037093709370937093709370937095F0834
:10159000370937093709370937093709370965081E
:1015A00037093709370937093709370937097B08F8
:1015B0003709370937093709370937093709AB08B8
:1015C00037093709370937093709370937096B08E8
:1015D00037093709370937093709370937098908BA
:1015E0003709370937093709370937093709AE0885
:1015F0003709370937093709370937093709AE0875
:101600003709370937093709370937093709AE0864
:101610003709370937093709370937093709AE0854
:101620003709370937093709370937093709B7083B
:101630003709370937093709370937093709F308EF
:101640003709370937093709370937093709B7081B
:101650003709370937093709370937093709F308CF
:101660003709370937093709370937093709D308DF
:101670003709370937093709370937093709F708AB
:101680003709370937093709370937093709F7089B
:1016900037093709370937093709370937090D0974
:1016A00037093709370937093709370937092B0946
:1016B00037093709370937093709370937092B0936
:1016C000AE408D142000A1C8A4A6AF54454D50458E
:1016D0005241545552453A202020202020202000FD
:1016E0002D002E35002E30006F43004C554D494ED5
:1016F0004F534954453A202020200048554D494435
:101700004954453A20202020000000000000007CC1
:101710000A090A7C007F49494E30003E414141227E
:10172000007F4141221C007F49494941007F09094E
:101730000901003E4149493A007F0808087F00003E
:10174000417F4100000020413F01007F08142241F9
:10175000007F40404040007F020C027F007F06086F
:10176000307F003E4141413E007F09090906003EAD
:101770004151215E007F09192946004649494931F6
:101780000001017F0101003F4040403F001F204019
:10179000201F003F4038403F0063140814630007D7
:1017A00008700807006151494543003E5149453ED4
:1017B0000000427F400000426151494600214145FE
:1017C0004B31001814127F10004745454539003C45
:1017D0004A49493000017109050300364949493633
:1017E00000064949291E0000363600000000005F4F
:1017F000000000080808080800081C2A080800085B
:10180000082A1C080010207E20100008047E04080E
:101810000000007E0000000000603000000000605A
:10182000600000000002050200000000000000004F
:1018300000000000000000000000000000000000A8
:101840000000000000000000000000000000000098
:101850000000000000000000000000000000000088
:101860000000000000000000000000000000000078
:101870000000000000000000000000000000000068
:101880000000000000000000000000000000000058
:101890000000000000000000000000000000000048
:1018A0000000000000000000000000000000000038
:1018B0000000000000000000000000000000000028
:1018C0000000000000000000000000000000000018
:1018D0000000000000000000000000000000000008
:1018E00000000000000000000000000000000000F8
:1018F00000000000000000000000000000000000E8
:1019000000000000000000000000000000000000D7
:1019100000000000000000000000000000000000C7
:1019200000000000000000000000000000000000B7
:1019300000000000000000000000000000000000A7
:101940000000000000000000000A0B0C0D12130E36
:081950000F1011121314150011
:00000001FF
