:100000000C945A000C9477000C94BF060C94770063
:100010000C9477000C9477000C9477000C94770084
:100020000C9477000C9477000C9477000C94770074
:100030000C9477000C9477000C9477000C94770064
:100040000C9477000C9477000C9477000C94770054
:100050000C9477000C9477000C9477000C94770044
:100060000C941C0F0C9477000C9477000C94770080
:100070000C9477000C9477000C9477000C94770024
:100080000C9477000C9477000C9477000C94770014
:100090000C9477000C9477000C9477000C94770004
:1000A0000C9477000C9477000C9477000C947700F4
:1000B0000C94770011241FBECFEFD8E0DEBFCDBF78
:1000C00014E0A0E0B1E0E6E3FEE202C005900D928C
:1000D000A833B107D9F725E0A8E3B4E001C01D9229
:1000E000AF34B207E1F70E9492070C9450160C94BB
:1000F0000000CF93DF9300D00F92CDB7DEB79A8385
:1001000089836B8300008FE390E0FC018081882F5E
:1001100090E082709927892BB1F781E490E02981E2
:100120003A81FC013183208380E490E02B81FC0143
:1001300020838FE390E0FC0120818FE390E0246036
:10014000FC0120838FE390E0FC0120818FE390E0AD
:100150002260FC01208300000F900F900F90DF9130
:10016000CF910895CF93DF9300D0CDB7DEB79A83B8
:10017000898300008FE390E0FC018081882F90E06C
:1001800082709927892BB1F781E490E029813A8127
:10019000FC01318320838FE390E0FC0120818FE319
:1001A00090E02160FC01208380E490E0FC018081EC
:1001B0000F900F90DF91CF910895CF93DF93CDB73C
:1001C000DEB728970FB6F894DEBF0FBECDBF9C8375
:1001D0008B837E836D8358874F831A82198216C062
:1001E0002F81388589819A81820F931FFC0140817C
:1001F0002B813C8189819A81820F931F642F0E94F9
:10020000790089819A8101969A83898329813A812B
:100210008D819E812817390718F300000000289669
:100220000FB6F894DEBF0FBECDBFDF91CF9108951A
:100230000F931F93CF93DF93CDB7DEB728970FB6F9
:10024000F894DEBF0FBECDBF9C838B837E836D830E
:1002500058874F831A82198218C02B813C8189816B
:100260009A81A901480F591F2F81388589819A8168
:100270008901080F191FCA010E94B200F80180838A
:1002800089819A8101969A83898329813A818D8116
:100290009E812817390708F30000000028960FB642
:1002A000F894DEBF0FBECDBFDF91CF911F910F91AC
:1002B0000895CF93DF9300D0CDB7DEB79A838983BB
:1002C00089819A8148E050E06EE071E00E946813F5
:1002D00089819A81089620910000FC012083898100
:1002E0009A8109962091C800FC01208389819A8116
:1002F0000A9620910000FC01208389819A810B9647
:1003000020917800FC01208389819A810C962091AC
:100310001E00FC01208389819A810D96209118008E
:10032000FC01208389819A810E9620910200FC01B4
:10033000208389819A810F9628B7FC0120838981C7
:100340009A81409620910100FC01208389819A8145
:1003500041962CB1FC01208389819A81429648E024
:1003600050E067E171E00E94681389819A814A96A2
:1003700020910000FC01208389819A814B96209175
:10038000C800FC01208389819A814C96209100004D
:10039000FC01208389819A814D9620917800FC018F
:1003A000208389819A814E9620911E00FC01208332
:1003B00089819A814F9620911800FC0120838981C0
:1003C0009A81809620910200FC01208389819A8184
:1003D000819628B7FC01208389819A818296209199
:1003E0000100FC01208389819A8183962CB1FC0154
:1003F000208300000F900F90DF91CF910895CF934D
:10040000DF93CDB7DEB7A4970FB6F894DEBF0FBE6B
:10041000CDBFCE0101960E945901CE010196AC01DB
:1004200064E270E080E090E00E94DD000000A496AD
:100430000FB6F894DEBF0FBECDBFDF91CF91089508
:100440000F931F93CF93DF93CDB7DEB7C75ED14035
:100450000FB6F894DEBF0FBECDBF9E012E513E4FAA
:10046000F90191838083CE018C519E4FFC017183F1
:100470006083CE018A519E4FFC015183408320E866
:100480003EE340E050E060E070E080E090E00E94F9
:10049000771080E291E00E940B1120E432E44FE0FB
:1004A00050E060E070E080E090E00E9477108DE422
:1004B00091E00E940B112AEA31E144E050E060E053
:1004C00070E080E090E00E9477108CE591E00E945F
:1004D0000B112AEA31E144E050E060E070E080E096
:1004E00090E00E947710CE018C519E4FFC018081DC
:1004F00091810E9471138C01CE018A519E4FFC01A3
:10050000808191810E947113080F191FCE018E51B5
:100510009E4FFC01808191810E947113800F911F79
:10052000C8969A8389831E821D8218861F829E0127
:100530002B5F3F4F89819A8143E0B9010E94F311FB
:1005400089819A8183589F4F9C838B8388E5E7EA52
:10055000F1E0DE01199601900D928A95E1F7CE0146
:100560008F599F4F27E3EFEFF1E0DC0101900D92EF
:100570002A95E1F7CE0188569F4F23E1E6E3F2E0AA
:10058000DC0101900D922A95E1F7CE0185559F4F30
:1005900021E1E9E4F2E0DC0101900D922A95E1F716
:1005A000CE0184549F4F23E1EAE5F2E0DC010190A3
:1005B0000D922A95E1F7CE0181539F4F25E0EDE69C
:1005C000F2E0DC0101900D922A95E1F78C818F9386
:1005D0008B818F9384E891E0892F8F9384E891E059
:1005E0008F93CE018C529F4F292F2F938F930E9470
:1005F0007A130F900F900F900F900F900F90CE01E5
:100600008C529F4F0E940B1120E031E742E050E0F6
:1006100060E070E080E090E00E947710CE018153AE
:100620009F4F292F2F938F93CE018E519E4FFC0108
:1006300021812F93FC0180818F93CE0184549F4FA1
:10064000292F2F938F93CE018A519E4FFC01218138
:100650002F93FC0180818F93CE0185559F4F292FC9
:100660002F938F93CE018C519E4FFC0121812F93AC
:10067000FC0180818F93CE018F599F4F292F2F939B
:100680008F93CE010596292F2F938F93CE01099634
:10069000292F2F938F9384E991E0892F8F9384E9F9
:1006A00091E08F93CE0188519F4F292F2F938F93E5
:1006B0000E947A138DB79EB746960FB6F894DEBFA8
:1006C0000FBECDBFCE0188519F4F0E940B1120E875
:1006D0003AE146E050E060E070E080E090E00E94A7
:1006E00077100000C951DE4F0FB6F894DEBF0FBE81
:1006F000CDBFDF91CF911F910F910895CF93DF93DD
:100700000F92CDB7DEB719820AC08981482F60E009
:1007100082E792E00E94480889818F5F89838981FE
:10072000883098F381E00F90DF91CF910895CF93B7
:10073000DF9300D000D0CDB7DEB79A8389837C8366
:100740006B8389819A81FC018081883031F48981B1
:100750009A8123E1FC0120830BC089819A81FC01ED
:100760008081833129F489819A8128E0FC012083EA
:1007700000000F900F900F900F90DF91CF91089590
:10078000CF93DF9300D000D0CDB7DEB79A838983B3
:100790007C836B8389E290E0FC018081882F90E06C
:1007A00080719927892BA9F18B819C81FC01808123
:1007B000282F89819A81FC018081422F682F87E848
:1007C00092E00E9448088B819C81FC01808121E09D
:1007D000280F8B819C81FC0120838B819C81FC01F3
:1007E0008081883060F02B813C8189819A81B901B8
:1007F0000E9497038B819C8123E0FC01208320E8E9
:100800003EE340E050E060E070E080E090E00E9475
:10081000771089E290E0FC018081882F90E080725F
:100820009927892BA9F18B819C81FC018081282F3C
:1008300089819A81FC018081422F682F87E892E0AC
:100840000E9448088B819C81FC0180812FEF280F3A
:100850008B819C81FC0120838B819C81FC018081A8
:10086000833060F42B813C8189819A81B9010E9497
:1008700097038B819C8127E0FC01208320E83EE3E5
:1008800040E050E060E070E080E090E00E9477108F
:1008900000000F900F900F900F90DF91CF9108956F
:1008A000CF93DF93CDB7DEB728970FB6F894DEBFAE
:1008B0000FBECDBF40E062E089E892E00E944808A8
:1008C00041E067E08AE992E00E944808CE01019683
:1008D000AC0168E070E080E090E00E94180143E025
:1008E00060E0CE0101960E944808CE010196AC015D
:1008F00068E070E082E190E00E94180144E060E06E
:10090000CE0101960E944808000028960FB6F89480
:10091000DEBF0FBECDBFDF91CF910895CF93DF93A0
:10092000CDB7DEB762E071E081E091E00E94C003E4
:100930000E94500480910201982F80910101492F5B
:10094000682F81EA92E00E9448088091010182317B
:1009500011F485E001C080E090910201890F82507E
:100960008093A6040E945A0B0000DF91CF91089556
:100970000F93CF93DF93CDB7DEB7A2970FB6F8945E
:10098000DEBF0FBECDBF88E48A8319820DC0898186
:1009900091E0980F9983882F90E09E012D5F3F4F43
:1009A000820F931FFC0110828981803280F301E065
:1009B00021E041E060E070E08A810E94F10DCE010B
:1009C000039621E042E0BC018A810E94760D01E09D
:1009D00021E040E060E070E08A810E94F10D8B81AF
:1009E000882F90E0382F22278C81882F90E0822B4F
:1009F000932BA2960FB6F894DEBF0FBECDBFDF914A
:100A0000CF910F910895CF93DF93CDB7DEB72C9799
:100A10000FB6F894DEBF0FBECDBF9A8389837C8367
:100A20006B838B819C8166E00E94C51244E060E08C
:100A300083EA92E00E94480889819A8199235CF4B4
:100A400044E06DE089EB92E00E9448088B819C8134
:100A50002DE2FC01208389819A819F779A83898383
:100A600089819A81892F990F990B9C01990F440BC9
:100A7000550B2D833E834F83588724E04EE06D81D4
:100A80007E818F8198850E944C0989819A81892F66
:100A9000990F990B9C018B819C8146E0BC01C90197
:100AA0000E94F31189819A81892F990F990B0A97D6
:100AB00014F020E101C02FE089819A81892F990FDC
:100AC000990B31E0843691050CF430E0832F820FCE
:100AD00044E0682F8BEB92E00E94480889819A815C
:100AE000892F990F990B0A9714F021E101C020E199
:100AF00089819A81892F990F990B31E0843691056C
:100B00000CF430E0832F820FE82F89819A8195952C
:100B100087959595879595958795959587959595BD
:100B20008795877099272DE7289FA001299F500D51
:100B3000112424E630E0CA01B9010E94F112CB0170
:100B40009C01990F440B550B29873A874B875C878B
:100B500024E04E2F69857A858B859C850E944C09FF
:100B60008B819C816BEB72E00E948D12FC0189816C
:100B70009A8195958795959587959595879595955E
:100B8000879595958795877099272DE7289FA001D0
:100B9000299F500D112424E630E0CA01B9010E94BA
:100BA000F112CB0142E0BF010E94F31189819A81C9
:100BB000892F990F990B0A9714F022E101C021E1C6
:100BC00089819A81892F990F990B31E0843691059B
:100BD0000CF430E0832F820F44E0682F8DEB92E01D
:100BE0000E94480800002C960FB6F894DEBF0FBE96
:100BF000CDBFDF91CF910895CF93DF9300D0CDB7D4
:100C0000DEB71A8219828CE790E0FC0120818CE724
:100C100090E0277FFC0120838CE790E0FC0120819D
:100C20008CE790E02B7FFC0120838CE790E0FC01B7
:100C300020818CE790E02260FC0120838CE790E02B
:100C4000FC0120818CE790E02160FC0120838AE791
:100C500090E0FC0120818AE790E02064FC01208381
:100C600000008AE790E0FC018081882F90E080748A
:100C70009927892BB1F788E790E0FC018081282F24
:100C800030E089E790E0FC018081882F90E0982F88
:100C9000882788279370822B932B9A838983898155
:100CA0009A810F900F90DF91CF910895CF93DF93AA
:100CB00000D0CDB7DEB71A8219828CE790E0FC0134
:100CC00020818CE790E02260FC0120838CE790E09B
:100CD000FC0120818CE790E02E7FFC0120838CE7D3
:100CE00090E0FC0120818CE790E02B7FFC012083C9
:100CF0008CE790E0FC0120818CE790E0277FFC01ED
:100D000020838AE790E0FC0120818AE790E020645C
:100D1000FC01208300008AE790E0FC018081882F9D
:100D200090E080749927892BB1F788E790E0FC0167
:100D30008081282F30E089E790E0FC018081882FB6
:100D400090E0982F882788279370822B932B9A8383
:100D500089832FEF33E089819A81A901481B590BC0
:100D6000CA019C01ADECBCEC0E942D1396958795B1
:100D7000969587950F900F90DF91CF9108951F92D0
:100D80000F920FB60F9211242F933F934F935F93BF
:100D90006F937F938F939F93AF93BF93EF93FF9343
:100DA000CF93DF93CDB7DEB70E947E039091000111
:100DB00081E0992309F080E0809300012AEA39E27A
:100DC00040E050E060E070E080E090E00E9477104A
:100DD0000000DF91CF91FF91EF91BF91AF919F9173
:100DE0008F917F916F915F914F913F912F910F90D4
:100DF0000FBE0F901F901895CF93DF93CDB7DEB73E
:100E00006B970FB6F894DEBF0FBECDBF9F878E875E
:100E1000798B688B5B8B4A8B9091A60482E1989FBB
:100E2000802D1124825189838E859F850E94FC0527
:100E30009B838A8340E060E080EC92E00E94480857
:100E40008A819B819C0140E050E02C8B3D8B4E8B36
:100E50005F8B20E04DE06C897D898E899F890E949F
:100E60004C098E859F8565E00E94C5122E853F85C1
:100E70008A819B8145E0B9010E94F3110E945606C8
:100E80009D838C8342E060E085ED92E00E944808FB
:100E90008C819D819C0140E050E0288F398F4A8FE2
:100EA0005B8F22E04DE0688D798D8A8D9B8D0E944D
:100EB0004C098889998965E00E94C5122889398979
:100EC0008C819D8145E0B9010E94F3110E94B80414
:100ED0009C018A899B89BC01C9010E94030546E0E7
:100EE00060E088EE92E00E9448088981882F90E0B7
:100EF0009E012A5F3F4FA90168E070E00E9418013F
:100F0000CE01069646E06BE00E9448080E945A0B0C
:100F100000006B960FB6F894DEBF0FBECDBFDF9119
:100F2000CF910895CF93DF93CDB7DEB762970FB619
:100F3000F894DEBF0FBECDBF8AE793E09A83898322
:100F400085E0E3EFF2E0DE01139601900D928A95C1
:100F5000E1F785E0E3EFF2E0DE01189601900D92F3
:100F60008A95E1F786E0E8EFF2E0DE011D96019058
:100F70000D928A95E1F789E690E0FC01208189E6EF
:100F800090E02C60FC0120838FE590E0FC01208143
:100F90008FE590E02068FC0120838DE390E0FC0168
:100FA00020818DE390E02260FC0120838AE790E0BD
:100FB000FC0120818AE790E02068FC0120838CE717
:100FC00090E0FC0120818CE790E02064FC0120830C
:100FD00020E031E742E050E060E070E080E090E047
:100FE0000E9477100E94810C0E94CC1020E031E713
:100FF00042E050E060E070E080E090E00E94771016
:1010000080910001813019F40E948E0436C0AE0137
:10101000435F5F4F9E01285F3F4FCE010396B901AA
:101020000E94FC0689819A819C012F5F3F4F3A8381
:1010300029838438934009F5CE01039641E060E0AE
:101040000E944808CE010D9645E060E00E944808E5
:10105000CE01089643E060E00E9448080E945A0BC7
:10106000AE01485F5F4F9E01235F3F4FCE01039665
:10107000B9010E9420021A82198220E43FE140E077
:1010800050E060E070E080E090E00E947710B8CF20
:10109000CF93DF9300D000D000D0CDB7DEB79C83D4
:1010A0008B836D834E838E81482F880F550B8D81E6
:1010B000082E000C990B65E1649F9001659F300D2F
:1010C0001124820F931F89559B4F9A838983D2C025
:1010D0008B819C81FC01808181348CF08B819C818F
:1010E000FC0180818B355CF48B819C81FC018081CB
:1010F0008054282F89819A81FC012083B1C08B8183
:101100009C81FC01808180338CF08B819C81FC016F
:1011100080818A335CF48B819C81FC0180818551C4
:10112000282F89819A81FC0120839AC08B819C8120
:10113000FC018081803229F489819A81FC0110822E
:101140008FC08B819C81FC0180818A3331F489813D
:101150009A8125E2FC01208383C08B819C81FC0164
:101160008081813231F489819A8126E2FC012083D9
:1011700077C08B819C81FC0180818D3231F4898123
:101180009A8127E2FC0120836BC08B819C81FC014A
:1011900080818C3331F489819A8128E2FC0120839B
:1011A0005FC08B819C81FC0180818E3331F4898109
:1011B0009A8129E2FC01208353C08B819C81FC0130
:1011C0008081863731F489819A812AE2FC0120836B
:1011D00047C08B819C81FC0180818E3531F48981EF
:1011E0009A812BE2FC0120833BC08B819C81FC0116
:1011F00080818C3731F489819A812CE2FC01208333
:101200002FC08B819C81FC0180818C3231F48981DB
:101210009A812DE2FC01208323C08B819C81FC01FB
:1012200080818E3231F489819A812EE2FC01208303
:1012300017C08B819C81FC0180818F3631F48981BC
:101240009A812FE2FC0120830BC08B819C81FC01E1
:101250008081853229F489819A8120E3FC012083F1
:101260008B819C8101969C838B8389819A810196D5
:101270009A8389838B819C81FC018081882309F07A
:1012800027CF0000000026960FB6F894DEBF0FBEF1
:10129000CDBFDF91CF9108950F931F93CF93DF932D
:1012A000CDB7DEB7CC54D1090FB6F894DEBF0FBE70
:1012B000CDBF6B837C838D839E834F8328878885F6
:1012C000482F880F550B8F81082E000C990B65E174
:1012D000649F9001659F300D1124820F931F8955E3
:1012E0009B4F9A8389838B819C81AD81BE81883E8F
:1012F0009340A105B10508F497C08B819C81AD8115
:10130000BE818D879E87AF87B88B08EE13E020E003
:1013100030E06D857E858F859889A90198010E94AE
:101320000513DA01C9014BE1480F89819A819C01BB
:101330002F5F3F4F3A832983242FDC012C938B812D
:101340009C81AD81BE81898B9A8BAB8BBC8B08EE67
:1013500013E020E030E069897A898B899C89A901B2
:1013600098010E9405136D8B7E8B8F8B988F8D89D2
:101370009E89AF89B88D84369105A105B10550F4D9
:1013800089819A819C012F5F3F4F3A8329832BE10A
:10139000DC012C938B819C81AD81BE81898F9A8FDA
:1013A000AB8FBC8F08EE13E020E030E0698D7A8DC2
:1013B0008B8D9C8DA90198010E9405136D8F7E8FE6
:1013C0008F8F98A38D8D9E8DAF8DB8A10A97A105A3
:1013D000B10550F489819A819C012F5F3F4F3A8378
:1013E00029832BE1DC012C938B819C81AD81BE8113
:1013F00089A39AA3ABA3BCA308EE13E020E030E0DE
:1014000069A17AA18BA19CA1A90198010E94051351
:101410006DA37EA38FA398A78DA19EA1AFA1B8A510
:101420008B839C83AD83BE838B819C81AD81BE8188
:1014300084369105A105B10508F46CC08B819C81AF
:10144000AD81BE8189A79AA7ABA7BCA704E610E02F
:1014500020E030E069A57AA58BA59CA5A90198019B
:101460000E940513DA01C9014BE1480F89819A8175
:101470009C012F5F3F4F3A832983242FDC012C935B
:101480008B819C81AD81BE818DA79EA7AFA7B8AB94
:1014900004E610E020E030E06DA57EA58FA598A9B8
:1014A000A90198010E94051369AB7AAB8BAB9CAB89
:1014B00089A99AA9ABA9BCA90A97A105B10550F4BD
:1014C00089819A819C012F5F3F4F3A8329832BE1C9
:1014D000DC012C938B819C81AD81BE818DAB9EAB59
:1014E000AFABB8AF04E610E020E030E06DA97EA914
:1014F0008FA998ADA90198010E94051369AF7AAF31
:101500008BAF9CAF89AD9AADABADBCAD8B839C83EB
:10151000AD83BE838B819C81AD81BE810A97A1057D
:10152000B10508F46AC08B819C81AD81BE81219692
:101530008CAF9DAFAEAFBFAF21970AE010E020E0C7
:1015400030E021966CAD7DAD8EAD9FAD2197A901A8
:1015500098010E940513DA01C90189879A87AB8730
:10156000BC870AE010E020E030E069857A858B8551
:101570009C85A90198010E94051325966CAF7DAF4B
:101580008EAF9FAF259725968CAD9DADAEADBFAD0F
:1015900025974BE1480F89819A819C012F5F3F4F2E
:1015A0003A832983242FDC012C938B819C81AD818C
:1015B000BE8129968CAF9DAFAEAFBFAF29970AE031
:1015C00010E020E030E029966CAD7DAD8EAD9FAD92
:1015D0002997A90198010E9405132D966CAF7DAF44
:1015E0008EAF9FAF2D972D968CAD9DADAEADBFAD9F
:1015F0002D978B839C83AD83BE838B814BE1480FFA
:1016000089819A819C012F5F3F4F3A832983242F40
:10161000DC012C930000C45BDF4F0FB6F894DEBFF3
:101620000FBECDBFDF91CF911F910F910895CF9342
:10163000DF9300D000D0CDB7DEB71A82198221C067
:101640001C821B8215C089819A8145E1489F9001C7
:10165000499F300D11248B819C81820F931F8955E6
:101660009B4FFC0110828B819C8101969C838B8314
:101670008B819C8145973CF389819A8101969A835D
:10168000898389819A810897DCF2000000000F901D
:101690000F900F900F90DF91CF910895CF93DF932C
:1016A000CDB7DEB70E94170B0E945A0B0000DF91E6
:1016B000CF910895CF93DF93CDB7DEB7CA58D10944
:1016C0000FB6F894DEBF0FBECDBF8BE290E0FC01F9
:1016D00020818BE290E02F7BFC01208380E090E072
:1016E0000E94690C80E190E00E94690C8BE290E01E
:1016F000FC0120818BE290E02064FC0120831A82AF
:101700001982D6C029813A8145E1429FC001439F99
:10171000900D112489559B4F98878F831C821B82C3
:1017200098C08B819C812F813885820F931FFC018B
:101730008081282F880F330BC901880F991F820FD2
:10174000931F880F991F82509D4F9A8789872B81FD
:101750003C81C901880F991F820F931F880F991F21
:101760009C0189859A85FC014081CE010B96820FF0
:10177000931FFC0140832B813C81C901880F991F75
:10178000820F931F880F991F019629853A85F901C9
:1017900041819E01255F3F4F820F931FFC014083D3
:1017A0002B813C81C901880F991F820F931F880FDD
:1017B000991F029629853A85F90142819E01255F8C
:1017C0003F4F820F931FFC0140832B813C81C90155
:1017D000880F991F820F931F880F991F03962985E1
:1017E0003A85F90143819E01255F3F4F820F931F88
:1017F000FC0140832B813C81C901880F991F820F16
:10180000931F880F991F049629853A85F901448111
:101810009E01255F3F4F820F931FFC0140832B8168
:101820003C81C901880F991F820F931F880F991F50
:10183000059629853A85F90145819E01255F3F4F2F
:10184000820F931FFC0140838B819C8101969C83B6
:101850008B838B819C8145970CF463CFCE01875796
:101860009F4FFC011082CE0186579F4FFC011082D2
:101870008FE790E09E838D8312C09E01255F3F4FCE
:101880008D819E81820F931FFC018081882F90E0C3
:101890000E94690C8D819E8101979E838D838D812D
:1018A0009E81992354F789819A8101969A8389832D
:1018B00089819A8108970CF425CF00000000C65753
:1018C000DF4F0FB6F894DEBF0FBECDBFDF91CF91D3
:1018D0000895CF93DF930F92CDB7DEB789838EEA59
:1018E00090E02981FC01208300008DEA90E0FC015A
:1018F00080818823D4F7000000000F90DF91CF9102
:101900000895CF93DF9300D00F92CDB7DEB78AE270
:1019100090E0FC0120818AE290E02064FC012083B9
:101920008AE290E0FC0120818AE290E02068FC01DC
:10193000208384E290E0FC01208184E290E0216039
:10194000FC01208385E290E0FC01208185E290E0AB
:101950002460FC0120838CEA90E020E5FC012083D8
:101960008AE290E0FC0120818AE290E02068FC019C
:10197000208387E290E0FC01208187E290E02260F2
:10198000FC0120838DE290E0FC0120818DE290E05B
:101990002860FC01208385E290E0FC01208185E243
:1019A00090E02160FC0120838BE290E0FC0120812B
:1019B0008BE290E02F7BFC01208319820CC089818F
:1019C00091E0980F9983882F90E08D5F9E4FFC01E6
:1019D00080810E94690C89818B3088F38BE290E0D2
:1019E000FC0120818BE290E02064FC0120831B82BB
:1019F0001A8208C080E00E94690C8A819B8101964E
:101A00009B838A838A819B81811594409CF30E94E9
:101A1000170B00000F900F900F90DF91CF9108955A
:101A2000CF93DF93CDB7DEB71092380481E0809377
:101A30003A0410923B0488E290E0FC018081482F38
:101A400082E1282F30E081E090E002C0880F991FEA
:101A50002A95E2F7242F282B88E290E0FC012083CE
:101A600088E290E0FC018081482F83E1282F30E05C
:101A700081E090E002C0880F991F2A95E2F7242F99
:101A8000282B88E290E0FC01208389EB90E0FC01A8
:101A9000208189EB90E02E7FFC01208389EB90E090
:101AA000FC01208189EB90E02D7FFC01208388EBF5
:101AB00090E020E2FC0120838CEB90E025E4FC0127
:101AC00020830000DF91CF910895CF93DF930F9291
:101AD000CDB7DEB789838AEB90E02981220FFC0124
:101AE000208300000F90DF91CF910895CF93DF9373
:101AF00000D000D000D0CDB7DEB78A837C836B8363
:101B00004D832E838D81813218F080E061C000000A
:101B1000809138048823D9F781E0809338048E813E
:101B200080933A048FEF8093A504109260048D8116
:101B300081508093610481E0809339048A81882FE9
:101B400090E0880F991F982F80913904892B8093FA
:101B5000390480913B04813071F410923B048BEB8B
:101B600090E020913904FC0120838CEB90E025EC7F
:101B7000FC01208307C08CEB90E025EEFC01208364
:101B800001C00000809138048130D9F38091600455
:101B90009D81891718F4809160048D83198213C088
:101BA0008981282F30E08981882F90E04B815C81EA
:101BB000840F951F205C3B4FF9012081FC0120839D
:101BC00089818F5F898399818D81981748F38D81F1
:101BD00026960FB6F894DEBF0FBECDBFDF91CF9132
:101BE00008950F93CF93DF9300D000D000D00F92D1
:101BF000CDB7DEB78A837C836B834D832E830F83BF
:101C00008D81813218F081E06CC000008091380431
:101C10008823D9F782E0809338048F8180933A0437
:101C20008FEF8093A504109260048D8180936104EE
:101C3000198213C08981882F90E02B813C81280F65
:101C4000391F8981882F90E0F9012081805C9B4FAA
:101C5000FC01208389818F5F898399818D81981709
:101C600048F3109239048A81882F90E0880F991FD9
:101C7000982F80913904892B8093390480913B04FB
:101C8000813071F410923B048BEB90E02091390489
:101C9000FC0120838CEB90E025ECFC01208307C045
:101CA0008CEB90E025EEFC01208301C000008E81CA
:101CB000882321F0809138048230C1F38091A504FB
:101CC0008F3F11F480E00DC08091A504803211F4A3
:101CD00082E007C08091A504803311F483E001C045
:101CE00084E027960FB6F894DEBF0FBECDBFDF911C
:101CF000CF910F910895CF93DF9300D000D0CDB74F
:101D0000DEB79B838A836C838C81813210F081E003
:101D100023C080913804843011F082E01DC08C8192
:101D200080938304198213C08981882F90E02A81CF
:101D30003B81280F391F8981882F90E0F90120818C
:101D40008E599B4FFC01208389818F5F8983998104
:101D50008C81981748F380E00F900F900F900F90B0
:101D6000DF91CF910895CF93DF9300D0CDB7DEB749
:101D70009A83898389819A8190933F0480933E045A
:101D800000000F900F90DF91CF910895CF93DF93D4
:101D900000D0CDB7DEB79A83898389819A819093E9
:101DA0003D0480933C0400000F900F90DF91CF9191
:101DB0000895CF93DF930F92CDB7DEB789838981E2
:101DC000882331F08CEB90E025ECFC01208305C0EA
:101DD0008CEB90E025E8FC01208300000F90DF9160
:101DE000CF910895CF93DF93CDB7DEB78CEB90E022
:101DF00025EDFC01208301C000008CEB90E0FC018C
:101E00008081882F90E080719927892BA9F7109203
:101E100038040000DF91CF910895CF93DF93CDB7C1
:101E2000DEB78CEB90E025ECFC01208310923804A7
:101E30000000DF91CF9108951F920F920FB60F927D
:101E400011242F933F934F935F936F937F938F93BF
:101E50009F93AF93BF93EF93FF93CF93DF93CDB750
:101E6000DEB789EB90E0FC018081882F90E0887FCD
:101E70009927893C91050CF025C199230CF423C1C5
:101E8000092E000CAA0BBB0B893C9105A105B105DD
:101E900008F019C18E5A994EFC010C9427138BEB54
:101EA00090E020913904FC01208381E00E94D90E4A
:101EB0000AC190916004809161049817A0F4809108
:101EC000600491E0980F90936004282F30E08BEB32
:101ED00090E0205C3B4FF9012081FC01208381E0F0
:101EE0000E94D90EF0C080913A04882319F00E9414
:101EF000F20EE9C081E080933B048CEB90E024EA91
:101F0000FC01208310923804DEC080E28093A50497
:101F10000E94F20ED8C080E38093A5040E94F20EC6
:101F2000D2C088E38093A5040E940D0FCCC02BEB98
:101F300030E08091600491E0980F90936004882FC6
:101F400090E0F9012081805C9B4FFC0120839091FF
:101F5000600480916104981720F481E00E94D90EFA
:101F6000B2C080E00E94D90EAEC02BEB30E0809171
:101F7000600491E0980F90936004882F90E0F9013D
:101F80002081805C9B4FFC01208380913A04882350
:101F900019F00E94F20E97C081E080933B048CEB15
:101FA00090E024EAFC012083109238048CC00E9447
:101FB000F20E89C083E0809338041092A40481E07B
:101FC0000E94D90E80C08091A4048032A0F42BEB33
:101FD00030E08091A40491E0980F9093A404882F9E
:101FE00090E0F90120818C579B4FFC01208381E018
:101FF0000E94D90E68C080E00E94D90E64C0809112
:10200000A404803240F48091A404882F90E08C577F
:102010009B4FFC0110820E94F20E20913E043091F1
:102020003F048091A404882F90E0BC0184E894E0F0
:10203000F90109951092A4040E940D0F44C080E09C
:102040000E94D90E40C084E080933804109282042C
:102050001092830480913C0490913D04FC01099509
:1020600080918304882329F481E080938304109273
:1020700062048091820491E0980F90938204282F4B
:1020800030E08BEB90E02E593B4FF9012081FC01B1
:1020900020839091820480918304981720F481E03A
:1020A0000E94D90E10C080E00E94D90E0CC081E0C1
:1020B0000E94D90E1092380406C01092A5040E9406
:1020C000F20E01C000000000DF91CF91FF91EF916F
:1020D000BF91AF919F918F917F916F915F914F9140
:1020E0003F912F910F900FBE0F901F9018958F92D8
:1020F0009F92AF92BF92CF92DF92EF92FF92CF93D7
:10210000DF93CDB7DEB728970FB6F894DEBF0FBECA
:10211000CDBF29833A834B835C836D837E838F831A
:102120009887000089809A80AB80BC80CD80DE805B
:10213000EF80F884282D392D4A2D5B2D6C2D7D2DB7
:102140008E2D9F2DAFEF0E943C1329833A834B8342
:102150005C836D837E838F839887282D392D4A2D4C
:102160005B2D6C2D7D2D8E2D9F2DA0E00E944813A0
:10217000C9F60000000028960FB6F894DEBF0FBE27
:10218000CDBFDF91CF91FF90EF90DF90CF90BF90C8
:10219000AF909F908F900895CF93DF93CDB7DEB728
:1021A00084EC90E023E3FC01208381EC90E0FC01CF
:1021B000208181EC90E02860FC01208381EC90E09C
:1021C000FC01208181EC90E02061FC01208382EC05
:1021D00090E026E0FC0120830000DF91CF9108957C
:1021E000CF93DF930F92CDB7DEB78983000080ECE9
:1021F00090E0FC018081882F90E080729927892BE4
:10220000B1F386EC90E02981FC01208300000F905F
:10221000DF91CF910895CF93DF9300D0CDB7DEB794
:102220009A8389830BC089819A81FC0180810E94F5
:10223000F01089819A8101969A83898389819A8194
:10224000FC018081882379F7000000000F900F9037
:10225000DF91CF910895CF93DF93CDB7DEB78CECAC
:1022600090E023E3FC01208389EC90E0FC012081D5
:1022700089EC90E02860FC0120838AEC90E026E065
:10228000FC0120830000DF91CF910895CF93DF936D
:102290000F92CDB7DEB78983000088EC90E0FC0197
:1022A0008081882F90E080729927892BB1F38EEC82
:1022B00090E02981FC01208300000F90DF91CF91F5
:1022C0000895CF93DF9300D0CDB7DEB79A8389838B
:1022D0000BC089819A81FC0180810E94461189810D
:1022E0009A8101969A83898389819A81FC018081F0
:1022F000882379F7000000000F900F90DF91CF91B5
:102300000895CF93DF9300D0CDB7DEB79A8389834A
:1023100089819A810A9768F189819A819C01ADEC43
:10232000BCEC0E942D13969587959695879596956A
:1023300087950E94811149815A819A01ADECBCECCC
:102340000E942D139C013695279536952795369535
:102350002795C901880F991F880F991F820F931F16
:10236000880F991F9A01281B390BC9010E948111FE
:1023700004C08981805D0E94F01000000F900F90D2
:10238000DF91CF910895CF93DF930F92CDB7DEB752
:10239000898389818A30F0F099818DEC989F812D15
:1023A00011248695869586950E94C31129818DEC0E
:1023B000289F812D1124982F969596959695892F73
:1023C000880F880F890F880F922F981B892F0E94E2
:1023D000C31104C08981805D0E94F01000000F903D
:1023E000DF91CF910895CF93DF9300D000D000D03C
:1023F0000F92CDB7DEB79C838B837E836D834F8333
:102400008F81882309F480C08D819E81892B09F4F6
:102410007BC08F81882F90E001972D813E81820FB4
:10242000931FFC0110828D819E81FC018081882395
:1024300029F08D819E8101969E838D838B819C8165
:10244000892B31F48D819E8120E3FC0120835CC0C7
:1024500081E090E09A8389838B819C810A9760F068
:102460008B819C818436910518F482E090E002C053
:1024700083E090E09A8389838B819C81883E93409E
:10248000D0F184E090E09A83898335C04B815C81F0
:102490009A01ADECBCEC0E942D139C01369527955A
:1024A0003695279536952795C901880F991F880F6E
:1024B000991F820F931F880F991F9A01281B390BB0
:1024C000822F40E3480F89819A812D813E81820FBE
:1024D000931F242FFC0120838B819C819C01ADECF8
:1024E000BCEC0E942D1396958795969587959695A9
:1024F00087959C838B8389819A8101979A838983AD
:1025000089819A81992314F627960FB6F894DEBF35
:102510000FBECDBFDF91CF910895CF93DF9300D051
:1025200000D0CDB7DEB79A8389837C836B8305C0E7
:1025300089819A8101969A83898389819A81FC0194
:1025400080818823A9F712C08B819C81FC012081A6
:1025500089819A81FC01208389819A8101969A83DD
:1025600089838B819C8101969C838B838B819C8149
:10257000FC018081882341F789819A810F900F9017
:102580000F900F90DF91CF910895CF93DF9300D0FC
:1025900000D00F92CDB7DEB79C838B836D831A82F8
:1025A00019820DC089819A812B813C81820F931FF2
:1025B000FC01108289819A8101969A8389838D8199
:1025C000882F90E029813A81281739075CF30000B1
:1025D00000000F900F900F900F900F90DF91CF9110
:1025E000089597FB072E16F4009407D077FD09D0C5
:1025F0000E94541307FC05D03EF4909581959F4F9F
:102600000895709561957F4F0895A1E21A2EAA1B37
:10261000BB1BFD010DC0AA1FBB1FEE1FFF1FA21792
:10262000B307E407F50720F0A21BB30BE40BF50B8F
:10263000661F771F881F991F1A9469F76095709518
:10264000809590959B01AC01BD01CF010895EE0FDF
:10265000FF1F0590F491E02D0994A29FB001B39F54
:10266000C001A39F700D811D1124911DB29F700D9B
:10267000811D1124911D08950024A7FD00942A0FA7
:10268000301D401D501D601D701D801D901D089542
:102690000024A7FD00942A17300540055005600569
:1026A0007005800590050895AA1BBB1B51E107C06A
:1026B000AA1FBB1FA617B70710F0A61BB70B881FD2
:1026C000991F5A95A9F780959095BC01CD01089561
:1026D000FB01DC0102C001900D9241505040D8F73F
:1026E0000895FC0101900020E9F7809590958E0FE8
:1026F0009F1F0895AEE0B0E0E0E8F3E10C942716E8
:102700000D891E8986E08C831A8309838FEF9FE7EA
:102710009E838D83AE01475E5F4F6F89788DCE01BA
:1027200001960E949D132F813885020F131FF80117
:1027300010822E96E4E00C944316AFE0B0E0E3EA9A
:10274000F3E10C9419167C013B018A01DC01179618
:102750001C921E92169713968C9181FFC3C19AE02A
:10276000292EFE0131964F01D70113969C91F3015A
:1027700093FD859193FF81913F01882309F448C11E
:10278000853239F493FD859193FF81913F01853224
:1027900029F4B70190E00E948B15E6CFB12C412CB3
:1027A000512CBFE1B51538F08B3209F188F4803235
:1027B00001F1833221F157FC3AC020ED280F2A3075
:1027C00040F556FE1FC0B29C200D1124B22E06C04B
:1027D0008D3291F0803379F7689450F8F30193FDCE
:1027E000859193FF81913F018111DBCF20C06894D7
:1027F00051F8689452F8F2CF689453F8EFCF689488
:1028000054F8ECCF429C200D1124422E689455F8C8
:10281000E5CF8E3229F456FCFBC0689456F8DECF23
:102820008C3619F4689457F8D9CF8836B9F2982FB6
:102830009F7D95549330C0F08336A1F18337C1F169
:10284000833509F05BC0D801CD90DD908D016B2DF3
:1028500070E056FC02C06FEF7FEFC6010E94751555
:102860005C01689457F80AC00C5F1F4FEFE3E983DF
:10287000AA24A394B12C6401E89457F853FC04C033
:102880004A141B0409F018F5342CA114B10431F5D5
:10289000332009F469CFB70180E290E00E948B15E4
:1028A0003A94F6CFD8018C9189830E5F1F4FE0CF09
:1028B000F801C190D1908F016B2D70E056FC02C0E1
:1028C0006FEF7FEFC6010E9480155C01D5CFB70185
:1028D00080E290E00E948B154A94D2CFF60157FC1B
:1028E000859157FE81916F01B70190E00E948B1591
:1028F00031103A94B1E0AB1AB108C7CF843619F061
:10290000893609F074C0F80157FE6AC0619171916F
:10291000819191918F01E52DEF76DE2E97FF09C011
:1029200090958095709561957F4F8F4F9F4F6894DC
:10293000D7F82AE030E0A4010E94BB15C82EC818C1
:10294000AC2C5D2CD6FE0CC0E89450F8CB1440F4AF
:10295000D4FE05C0D2FC03C05D2D5E7E552EAB2C8F
:1029600054FE98C0FE01EC0DF11D8081803309F00A
:102970008AC0652D697E562E752D7870372E53FCD2
:1029800098C050FE92C0BC2CA41418F44C0CB42C6B
:10299000BA1854FE94C0B70180E390E00E948B15F2
:1029A00052FE09C088E790E051FE02C088E590E041
:1029B000B7010E948B15CB1408F48DC0CA94D12C9A
:1029C0008FEFC81AD80AC80CD91CD6018E916D0198
:1029D000B70190E00E948B158C149D04B1F758CF7D
:1029E00061917191072E000C880B990B93CFD52C18
:1029F000E894D4F82AE030E0853739F1F52DF97FF5
:102A0000DF2E8037A9F058F48835A9F08F36D9F039
:102A1000F701868197812F96E2E10C94351688376D
:102A2000B9F7D4FE02C06894D2F820E130E00DC0BE
:102A30006894D4F8F6CF54FE03C02F2F2660D22E10
:102A400020E132E002C028E030E0F801D7FE15C0F6
:102A500041915191619171914C875D876E877F871C
:102A60008F01A4016C857D858E859F850E94BB1595
:102A7000C82EC818E894D7F863CF81919191AC0122
:102A800070E060E0E9CF52FC02C0A39475CFA3943C
:102A9000A39472CF852D867809F46ECFF6CFB70157
:102AA00080E290E00E948B15A394A414C0F3312C13
:102AB00070CF342C3A18A41408F46BCFF8CF852DBE
:102AC000867809F478CF8BE251FE80E257FC8DE2E4
:102AD000B70190E06ECFB70180E390E00E948B15C4
:102AE000BA9469CF8FEF9FEF96CFFC0105906150AC
:102AF00070400110D8F7809590958E0F9F1F089514
:102B0000FC016150704001900110D8F780959095BC
:102B10008E0F9F1F08950F931F93CF93DF93182F4E
:102B2000092FEB018B8181FD09C01FEF0FEF812F72
:102B3000902FDF91CF911F910F91089582FF14C0C4
:102B40002E813F818C819D81281739073CF4E881D3
:102B5000F981CF0101969983888310838E819F81AB
:102B600001969F838E83E3CFE885F985812F0995B0
:102B7000892BA1F3DACFFA01AA27283051F12031AD
:102B800081F1E8946F936E7F6E5F7F4F8F4F9F4F01
:102B9000AF4FB1E03ED0B4E03CD0670F781F891F43
:102BA0009A1FA11D680F791F8A1F911DA11D6A0F11
:102BB000711D811D911DA11D20D009F468943F91C4
:102BC0002AE0269F11243019305D3193DEF6CF01C3
:102BD0000895462F4770405D4193B3E00FD0C9F789
:102BE000F6CF462F4F70405D4A3318F0495D31FDF6
:102BF0004052419302D0A9F7EACFB4E0A695979549
:102C0000879577956795BA95C9F70097610571051E
:102C100008959B01AC010A2E069457954795379568
:102C20002795BA95C9F7620F731F841F951FA01DC2
:102C300008952F923F924F925F926F927F928F9260
:102C40009F92AF92BF92CF92DF92EF92FF920F933B
:102C50001F93CF93DF93CDB7DEB7CA1BDB0B0FB645
:102C6000F894DEBF0FBECDBF09942A883988488802
:102C70005F846E847D848C849B84AA84B984C88498
:102C8000DF80EE80FD800C811B81AA81B981CE0F8F
:102C9000D11D0FB6F894DEBF0FBECDBFED01089574
:102CA000F894FFCF5D10631063106310631063101E
:102CB000631063104F0F6310631063106310631091
:102CC000631063104F0F6310631063106310631081
:102CD00063106310590F6310631063106310631067
:102CE00063106310850F631063106310631063102B
:102CF00063106310590F6310631063106310631047
:102D0000631063108B0F6310631063106310631004
:102D100063106310910F63106310631063106310EE
:102D200063106310A70F63106310631063106310C8
:102D300063106310D70F6310631063106310631088
:102D400063106310970F63106310631063106310B8
:102D500063106310B50F631063106310631063108A
:102D600063106310DA0F6310631063106310631055
:102D700063106310DA0F6310631063106310631045
:102D800063106310DA0F6310631063106310631035
:102D900063106310DA0F6310631063106310631025
:102DA00063106310E30F631063106310631063100C
:102DB000631063101F1063106310631063106310BF
:102DC00063106310E30F63106310631063106310EC
:102DD000631063101F10631063106310631063109F
:102DE00063106310FF0F63106310631063106310B0
:102DF000631063102310631063106310631063107B
:102E0000631063102310631063106310631063106A
:102E10006310631039106310631063106310631044
:102E20006310631057106310631063106310631016
:062E30006310631057104F
:102E3600010803AE408D142000A1C0A4A6AF4341F3
:102E460043545553000000504554554E4941000027
:102E560041542B43574A41505F4355523D225069D6
:102E660078656C5F36303233222C22393269746EC3
:102E76003635726D6E7135696A220D0A0041542B22
:102E86004349505354415455530D0A0041542B4362
:102E9600495053544152543D22544350222C223817
:102EA600372E38392E3139342E3238222C34303000
:102EB600300D0A0041542B43495053454E443D259D
:102EC600640D0A00257325732573257325732573F1
:102ED60025732573257300504F5354202F61706955
:102EE6002F696E7365727420485454502F312E30FA
:102EF6000D0A486F73743A2038372E38392E313917
:102F0600342E32380D0A436F6E6E656374696F6EC8
:102F16003A206B6565702D616C6976650D0A436FA5
:102F26006E74656E742D4C656E6774683A20000D7C
:102F36000A436F6E74656E742D547970653A20611C
:102F460070706C69636174696F6E2F6A736F6E0D52
:102F56000A0D0A7B0D0A2274656D706572617475BF
:102F66007265223A22007B0D0A2274656D706572C5
:102F76006174757265223A2200222C0D0A22687548
:102F86006D6964697465223A2200222C0D0A226C4E
:102F9600756D696E6F73697465223A2200220D0A97
:102FA6007D002020202020202020202020202020DE
:102FB60020202020202000200043484F4953495319
:102FC60053455A20564F54524500455350454345A4
:102FD600003C0054454D50455241545552453A2007
:102FE6002020202020202020002D002E006F4300CE
:102FF6004C554D494E4F534954453A2020202020E8
:10300600202020200048554D49444954453A202067
:1030160020202020202520004553504543453A20B6
:10302600202000000000000000000000000000005A
:10303600000000007C0A090A7C007F49494E3000E6
:103046003E41414122007F4141221C007F494949BE
:1030560041007F09090901003E4149493A007F08BC
:1030660008087F0000417F4100000020413F010029
:103076007F08142241007F40404040007F020C023E
:103086007F007F0608307F003E4141413E007F09B8
:10309600090906003E4151215E007F0919294600B3
:1030A60046494949310001017F0101003F40404046
:1030B6003F001F2040201F003F4038403F00631460
:1030C600081463000708700807006151494543006A
:1030D6003E5149453E0000427F4000004261514951
:1030E60046002141454B31001814127F1000474518
:1030F600454539003C4A494930000171090503003C
:10310600364949493600064949291E000036360027
:10311600000000005F000000080808080800081CFE
:103126002A08080008082A1C080010207E20100023
:1031360008047E04080000007E00000000006030E5
:10314600000000006060000000000205020023137A
:10315600080432310000000000000A0B0C0D1213A7
:083166000E0F101112131415D5
:00000001FF
