:100000000C945A000C9477000C943D050C947700E6
:100010000C9477000C9477000C9477000C94770084
:100020000C9477000C9477000C9477000C94770074
:100030000C9477000C9477000C9477000C94770064
:100040000C9477000C9477000C9477000C94770054
:100050000C9477000C9477000C9477000C94770044
:100060000C94210E0C9477000C9477000C9477007C
:100070000C9477000C9477000C9477000C94770024
:100080000C9477000C9477000C9477000C94770014
:100090000C9477000C9477000C9477000C94770004
:1000A0000C9477000C9477000C9477000C947700F4
:1000B0000C94770011241FBECFEFD8E0DEBFCDBF78
:1000C00014E0A0E0B1E0EEE2FCE202C005900D9287
:1000D000A031B107D9F725E0A0E1B4E001C01D923D
:1000E000A733B207E1F70E94E9050C944C150C9474
:1000F0000000CF93DF9300D00F92CDB7DEB79A8385
:1001000089836B8300008FE390E0FC018081882F5E
:1001100090E082709927892BB1F781E490E02981E2
:100120003A81FC013183208380E490E02B81FC0143
:1001300020838FE390E0FC0120818FE390E0246036
:10014000FC0120838FE390E0FC0120818FE390E0AD
:100150002260FC01208300000F900F900F90DF9130
:10016000CF910895CF93DF9300D0CDB7DEB79A83B8
:10017000898300008FE390E0FC018081882F90E06C
:1001800082709927892BB1F781E490E029813A8127
:10019000FC01318320838FE390E0FC0120818FE319
:1001A00090E02160FC01208380E490E0FC018081EC
:1001B0000F900F90DF91CF910895CF93DF93CDB73C
:1001C000DEB728970FB6F894DEBF0FBECDBF9C8375
:1001D0008B837E836D8358874F831A82198216C062
:1001E0002F81388589819A81820F931FFC0140817C
:1001F0002B813C8189819A81820F931F642F0E94F9
:10020000790089819A8101969A83898329813A812B
:100210008D819E812817390718F300000000289669
:100220000FB6F894DEBF0FBECDBFDF91CF9108951A
:100230000F931F93CF93DF93CDB7DEB728970FB6F9
:10024000F894DEBF0FBECDBF9C838B837E836D830E
:1002500058874F831A82198218C02B813C8189816B
:100260009A81A901480F591F2F81388589819A8168
:100270008901080F191FCA010E94B200F80180838A
:1002800089819A8101969A83898329813A818D8116
:100290009E812817390708F30000000028960FB642
:1002A000F894DEBF0FBECDBFDF91CF911F910F91AC
:1002B0000895CF93DF9300D0CDB7DEB79A838983BB
:1002C00089819A8148E050E06EE071E00E946412FA
:1002D00089819A81089620910000FC012083898100
:1002E0009A8109962091C800FC01208389819A8116
:1002F0000A9620910000FC01208389819A810B9647
:1003000020917800FC01208389819A810C962091AC
:100310001E00FC01208389819A810D96209118008E
:10032000FC01208389819A810E9620910200FC01B4
:10033000208389819A810F9628B7FC0120838981C7
:100340009A81409620910100FC01208389819A8145
:1003500041962CB1FC01208389819A81429648E024
:1003600050E067E171E00E94641289819A814A96A7
:1003700020910000FC01208389819A814B96209175
:10038000C800FC01208389819A814C96209100004D
:10039000FC01208389819A814D9620917800FC018F
:1003A000208389819A814E9620911E00FC01208332
:1003B00089819A814F9620911800FC0120838981C0
:1003C0009A81809620910200FC01208389819A8184
:1003D000819628B7FC01208389819A818296209199
:1003E0000100FC01208389819A8183962CB1FC0154
:1003F000208300000F900F90DF91CF910895CF934D
:10040000DF93CDB7DEB7A4970FB6F894DEBF0FBE6B
:10041000CDBFCE0101960E945901CE010196AC01DB
:1004200064E270E080E090E00E94DD000000A496AD
:100430000FB6F894DEBF0FBECDBFDF91CF91089508
:10044000CF93DF930F92CDB7DEB719820AC08981AF
:10045000482F60E080E291E00E944D0789818F5F24
:1004600089838981883098F381E00F90DF91CF9163
:100470000895CF93DF9300D000D0CDB7DEB79A8335
:1004800089837C836B8389819A81FC018081883098
:1004900031F489819A8123E1FC0120830BC0898199
:1004A0009A81FC018081833129F489819A8128E035
:1004B000FC01208300000F900F900F900F90DF91B0
:1004C000CF910895CF93DF9300D000D0CDB7DEB7A2
:1004D0009A8389837C836B8389E290E0FC0180812D
:1004E000882F90E080719927892BA9F18B819C81BD
:1004F000FC018081282F89819A81FC018081422F13
:10050000682F85E391E00E944D078B819C81FC015F
:10051000808121E0280F8B819C81FC0120838B81CD
:100520009C81FC018081883060F02B813C81898135
:100530009A81B9010E9439028B819C8123E0FC01E0
:10054000208320E83EE340E050E060E070E080E09F
:1005500090E00E947C0F89E290E0FC018081882F6E
:1005600090E080729927892BA9F18B819C81FC01F5
:100570008081282F89819A81FC018081422F682FF8
:1005800085E391E00E944D078B819C81FC01808175
:100590002FEF280F8B819C81FC0120838B819C8114
:1005A000FC018081833060F42B813C8189819A81B8
:1005B000B9010E9439028B819C8127E0FC012083D4
:1005C00020E83EE340E050E060E070E080E090E052
:1005D0000E947C0F00000F900F900F900F90DF9102
:1005E000CF910895CF93DF93CDB7DEB728970FB69D
:1005F000F894DEBF0FBECDBF40E062E087E391E03C
:100600000E944D0741E067E088E491E00E944D07B9
:10061000CE010196AC0168E070E080E090E00E94BD
:10062000180143E060E0CE0101960E944D07CE0123
:100630000196AC0168E070E082E190E00E94180150
:1006400044E060E0CE0101960E944D07000028962C
:100650000FB6F894DEBF0FBECDBFDF91CF910895E6
:10066000CF93DF93CDB7DEB762E071E081E091E038
:100670000E9462020E94F20280910201982F8091F2
:100680000101492F682F8FE491E00E944D0780916E
:100690000101823111F485E001C080E090910201F6
:1006A000890F825080938E040E945F0A0000DF91C0
:1006B000CF9108950F93CF93DF93CDB7DEB7A29775
:1006C0000FB6F894DEBF0FBECDBF88E48A831982CF
:1006D0000DC0898191E0980F9983882F90E09E0149
:1006E0002D5F3F4F820F931FFC0110828981803262
:1006F00080F301E021E041E060E070E08A810E9447
:10070000F60CCE01039621E042E0BC018A810E94F2
:100710007B0C01E021E040E060E070E08A810E9413
:10072000F60C8B81882F90E0382F22278C81882F20
:1007300090E0822B932BA2960FB6F894DEBF0FBEEB
:10074000CDBFDF91CF910F910895CF93DF93CDB7B8
:10075000DEB72A970FB6F894DEBF0FBECDBF9A83DF
:10076000898366E08AE194E00E94C11144E060E080
:1007700081E591E00E944D0789819A81992334F4A3
:1007800044E06DE087E691E00E944D0789819A81FF
:100790009F779A83898389819A81892F990F990BF1
:1007A0009C01990F440B550B2B833C834D835E8337
:1007B00024E04EE06B817C818D819E810E945108F6
:1007C00089819A81892F990F990B0A9714F020E15A
:1007D00001C02FE089819A81892F990F990B31E00F
:1007E000843691050CF430E0832F820F44E0682FAB
:1007F00089E691E00E944D0789819A81892F990F9E
:10080000990B0A9714F021E101C020E189819A81B6
:10081000892F990F990B31E0843691050CF430E063
:10082000832F820FE82F89819A81959587959595D9
:1008300087959595879595958795959587958770D3
:1008400099272DE7289FA001299F500D112424E608
:1008500030E0CA01B9010E94ED11CB019C01990F52
:10086000440B550B2F83388749875A8724E04E2F36
:100870006F81788589859A850E94510889819A813E
:10088000892F990F990B0A9714F022E101C021E1F9
:1008900089819A81892F990F990B31E084369105CE
:1008A0000CF430E0832F820F44E0682F8BE691E058
:1008B0000E944D0700002A960FB6F894DEBF0FBEC7
:1008C000CDBFDF91CF910895CF93DF9300D0CDB707
:1008D000DEB71A8219828CE790E0FC0120818CE758
:1008E00090E0277FFC0120838CE790E0FC012081D1
:1008F0008CE790E02B7FFC0120838CE790E0FC01EB
:1009000020818CE790E02260FC0120838CE790E05E
:10091000FC0120818CE790E02160FC0120838AE7C4
:1009200090E0FC0120818AE790E02064FC012083B4
:1009300000008AE790E0FC018081882F90E08074BD
:100940009927892BB1F788E790E0FC018081282F57
:1009500030E089E790E0FC018081882F90E0982FBB
:10096000882788279370822B932B9A83898365E04D
:1009700085E194E00E94C111898145E060E174E065
:100980000E94EF1089819A810F900F90DF91CF9193
:100990000895CF93DF9300D0CDB7DEB71A821982C6
:1009A0008CE790E0FC0120818CE790E02260FC0164
:1009B00020838CE790E0FC0120818CE790E02E7F83
:1009C000FC0120838CE790E0FC0120818CE790E023
:1009D0002B7FFC0120838CE790E0FC0120818CE7D9
:1009E00090E0277FFC0120838AE790E0FC012081D2
:1009F0008AE790E02064FC01208300008AE790E011
:100A0000FC018081882F90E080749927892BB1F7B1
:100A100088E790E0FC018081282F30E089E790E0B2
:100A2000FC018081882F90E0982F88278827937079
:100A3000822B932B9A83898365E085E194E00E9461
:100A4000C111898145E065E174E00E94EF102FEF4C
:100A500033E089819A81A901481B590BCA019C0185
:100A6000ADECBCEC0E9429129695879596958795DA
:100A70000F900F90DF91CF9108951F920F920FB6B4
:100A80000F9211242F933F934F935F936F937F9314
:100A90008F939F93AF93BF93EF93FF93CF93DF9386
:100AA000CDB7DEB70E9420029091000181E099232A
:100AB00009F080E0809300012AEA39E240E050E04A
:100AC00060E070E080E090E00E947C0F0000DF9129
:100AD000CF91FF91EF91BF91AF919F918F917F91B6
:100AE0006F915F914F913F912F910F900FBE0F909B
:100AF0001F901895CF93DF93CDB7DEB765970FB6EC
:100B0000F894DEBF0FBECDBF90918E0482E1989F16
:100B1000802D1124825189830E9464049B838A83DF
:100B200040E060E08EE691E00E944D078A819B8163
:100B30009C0140E050E02E873F87488B598B20E096
:100B40004DE06E857F85888999890E9451080E94B1
:100B5000C9049D838C8342E060E083E891E00E94B9
:100B60004D078C819D819C0140E050E02A8B3B8B9E
:100B70004C8B5D8B22E04DE06A897B898C899D8955
:100B80000E9451080E945A030E94A50346E060E0BB
:100B900086E991E00E944D078981882F90E09E01AF
:100BA0002A5F3F4FA90168E070E00E941801CE0162
:100BB000069646E06BE00E944D070E945F0A000027
:100BC00065960FB6F894DEBF0FBECDBFDF91CF9113
:100BD00008951F93CF93DF93CDB7DEB7CC5CD140A0
:100BE0000FB6F894DEBF0FBECDBF89E690E0FC01E2
:100BF000208189E690E02C60FC0120838FE590E065
:100C0000FC0120818FE590E02068FC0120838DE3CA
:100C100090E0FC0120818DE390E02260FC012083C4
:100C20008AE790E0FC0120818AE790E02068FC01DF
:100C300020838CE790E0FC0120818CE790E0206429
:100C4000FC01208320E031E742E050E060E070E00A
:100C500080E090E00E947C0F0E94860B0E94D10FE2
:100C600081EA91E00E945D1020E035E34CE050E025
:100C700060E070E080E090E00E947C0F84EC91E006
:100C80000E945D1020E031E742E050E060E070E05B
:100C900080E090E00E947C0F83ED91E00E945D1067
:100CA00020E031E742E050E060E070E080E090E07A
:100CB0000E947C0F8AE194E00E946D12182F85E15A
:100CC00094E00E946D12180F80E194E00E946D1272
:100CD000810F885C89831D821C821E82CE0104964E
:100CE00043E0BC0189810E94EF108981882F90E048
:100CF00083589F4F9B838A8388E5EEE1F2E0DE0113
:100D0000179601900D928A95E1F7CE01815A9F4F77
:100D100027E3E6E7F2E0DC0101900D922A95E1F786
:100D2000CE018A569F4F21E1EDEAF2E0DC0101900D
:100D30000D922A95E1F7CE0189559F4F23E1EEEB05
:100D4000F2E0DC0101900D922A95E1F7CE01865484
:100D50009F4F25E0E1EDF2E0DC0101900D922A9534
:100D6000E1F78A819B810E946D12292F2F938F9327
:100D70008BEF91E0892F8F938BEF91E08F93CE01D2
:100D800081549F4F292F2F938F930E9476120F909B
:100D90000F900F900F900F900F90CE0181549F4FA6
:100DA0000E945D1020E031E742E050E060E070E03A
:100DB00080E090E00E947C0FCE0186549F4F292F47
:100DC0002F938F9380E194E0892F8F9380E194E0BB
:100DD0008F93CE0189559F4F292F2F938F9385E1B4
:100DE00094E0892F8F9385E194E08F93CE018A560A
:100DF0009F4F292F2F938F938AE194E0892F8F9310
:100E00008AE194E08F93CE01815A9F4F292F2F932F
:100E10008F93CE010496292F2F938F93CE0107969F
:100E2000292F2F938F938BE092E0892F8F938BE064
:100E300092E08F93CE018D529F4F292F2F938F9346
:100E40000E9476128DB79EB746960FB6F894DEBF15
:100E50000FBECDBFCE018D529F4F0E945D1020E886
:100E60003AE146E050E060E070E080E090E00E940F
:100E70007C0F80910001813019F40E94300302C080
:100E80000E947A0520E43FE140E050E060E070E03D
:100E900080E090E00E947C0FECCFCF93DF9300D0F6
:100EA00000D000D0CDB7DEB79C838B836D834E839B
:100EB0008E81482F880F550B8D81082E000C990BC1
:100EC00065E1649F9001659F300D1124820F931F8F
:100ED00081579B4F9A838983D2C08B819C81FC016F
:100EE000808181348CF08B819C81FC0180818B35E9
:100EF0005CF48B819C81FC0180818054282F898146
:100F00009A81FC012083B1C08B819C81FC0180818E
:100F100080338CF08B819C81FC0180818A335CF46E
:100F20008B819C81FC0180818551282F89819A8148
:100F3000FC0120839AC08B819C81FC0180818032DE
:100F400029F489819A81FC0110828FC08B819C8158
:100F5000FC0180818A3331F489819A8125E2FC0188
:100F6000208383C08B819C81FC018081813231F49C
:100F700089819A8126E2FC01208377C08B819C8144
:100F8000FC0180818D3231F489819A8127E2FC0154
:100F900020836BC08B819C81FC0180818C3331F478
:100FA00089819A8128E2FC0120835FC08B819C812A
:100FB000FC0180818E3331F489819A8129E2FC0120
:100FC000208353C08B819C81FC018081863731F462
:100FD00089819A812AE2FC01208347C08B819C8110
:100FE000FC0180818E3531F489819A812BE2FC01EC
:100FF00020833BC08B819C81FC0180818C3731F444
:1010000089819A812CE2FC0120832FC08B819C81F5
:10101000FC0180818C3231F489819A812DE2FC01BE
:10102000208323C08B819C81FC0180818E3231F42E
:1010300089819A812EE2FC01208317C08B819C81DB
:10104000FC0180818F3631F489819A812FE2FC0185
:1010500020830BC08B819C81FC018081853229F427
:1010600089819A8120E3FC0120838B819C810196F8
:101070009C838B8389819A8101969A8389838B8152
:101080009C81FC018081882309F027CF00000000AB
:1010900026960FB6F894DEBF0FBECDBFDF91CF917D
:1010A00008950F931F93CF93DF93CDB7DEB7CC5442
:1010B000D1090FB6F894DEBF0FBECDBF6B837C8322
:1010C0008D839E834F8328878885482F880F550BF3
:1010D0008F81082E000C990B65E1649F9001659F3C
:1010E000300D1124820F931F81579B4F9A83898360
:1010F0008B819C81AD81BE81883E9340A105B10565
:1011000008F497C08B819C81AD81BE818D879E87BD
:10111000AF87B88B08EE13E020E030E06D857E8568
:101120008F859889A90198010E940112DA01C901ED
:101130004BE1480F89819A819C012F5F3F4F3A8391
:101140002983242FDC012C938B819C81AD81BE816E
:10115000898B9A8BAB8BBC8B08EE13E020E030E0E0
:1011600069897A898B899C89A90198010E94011259
:101170006D8B7E8B8F8B988F8D899E89AF89B88D73
:1011800084369105A105B10550F489819A819C01AD
:101190002F5F3F4F3A8329832BE1DC012C938B8116
:1011A0009C81AD81BE81898F9A8FAB8FBC8F08EEF9
:1011B00013E020E030E0698D7A8D8B8D9C8DA90144
:1011C00098010E9401126D8F7E8F8F8F98A38D8D55
:1011D0009E8DAF8DB8A10A97A105B10550F4898104
:1011E0009A819C012F5F3F4F3A8329832BE1DC01D9
:1011F0002C938B819C81AD81BE8189A39AA3ABA3E3
:10120000BCA308EE13E020E030E069A17AA18BA135
:101210009CA1A90198010E9401126DA37EA38FA336
:1012200098A78DA19EA1AFA1B8A58B839C83AD8308
:10123000BE838B819C81AD81BE8184369105A105E1
:10124000B10508F46CC08B819C81AD81BE8189A7FA
:101250009AA7ABA7BCA704E610E020E030E069A5A0
:101260007AA58BA59CA5A90198010E940112DA011B
:10127000C9014BE1480F89819A819C012F5F3F4F43
:101280003A832983242FDC012C938B819C81AD81AF
:10129000BE818DA79EA7AFA7B8AB04E610E020E003
:1012A00030E06DA57EA58FA598A9A90198010E949F
:1012B000011269AB7AAB8BAB9CAB89A99AA9ABA99C
:1012C000BCA90A97A105B10550F489819A819C01B6
:1012D0002F5F3F4F3A8329832BE1DC012C938B81D5
:1012E0009C81AD81BE818DAB9EABAFABB8AF04E648
:1012F00010E020E030E06DA97EA98FA998ADA9018A
:1013000098010E94011269AF7AAF8BAF9CAF89AD93
:101310009AADABADBCAD8B839C83AD83BE838B811B
:101320009C81AD81BE810A97A105B10508F46AC010
:101330008B819C81AD81BE8121968CAF9DAFAEAF7C
:10134000BFAF21970AE010E020E030E021966CADBD
:101350007DAD8EAD9FAD2197A90198010E9401122C
:10136000DA01C90189879A87AB87BC870AE010E058
:1013700020E030E069857A858B859C85A9019801FC
:101380000E94011225966CAF7DAF8EAF9FAF25975F
:1013900025968CAD9DADAEADBFAD25974BE1480F09
:1013A00089819A819C012F5F3F4F3A832983242FA3
:1013B000DC012C938B819C81AD81BE8129968CAF01
:1013C0009DAFAEAFBFAF29970AE010E020E030E05C
:1013D00029966CAD7DAD8EAD9FAD2997A901980181
:1013E0000E9401122D966CAF7DAF8EAF9FAF2D97EF
:1013F0002D968CAD9DADAEADBFAD2D978B839C83EF
:10140000AD83BE838B814BE1480F89819A819C011A
:101410002F5F3F4F3A832983242FDC012C93000058
:10142000C45BDF4F0FB6F894DEBF0FBECDBFDF91B8
:10143000CF911F910F910895CF93DF9300D000D0EB
:10144000CDB7DEB71A82198221C01C821B8215C05B
:1014500089819A8145E1489F9001499F300D11246F
:101460008B819C81820F931F81579B4FFC011082BF
:101470008B819C8101969C838B838B819C8145977A
:101480003CF389819A8101969A83898389819A8123
:101490000897DCF2000000000F900F900F900F9063
:1014A000DF91CF910895CF93DF93CDB7DEB70E9440
:1014B0001C0A0E945F0A0000DF91CF910895CF932C
:1014C000DF93CDB7DEB7CA58D1090FB6F894DEBFA7
:1014D0000FBECDBF8BE290E0FC0120818BE290E05B
:1014E0002F7BFC01208380E090E00E946E0B80E166
:1014F00090E00E946E0B8BE290E0FC0120818BE279
:1015000090E02064FC0120831A821982D6C02981D0
:101510003A8145E1429FC001439F900D11248157BC
:101520009B4F98878F831C821B8298C08B819C81E4
:101530002F813885820F931FFC018081282F880F0F
:10154000330BC901880F991F820F931F880F991FB2
:101550008A529D4F9A8789872B813C81C901880FC8
:10156000991F820F931F880F991F9C0189859A8567
:10157000FC014081CE010B96820F931FFC0140833A
:101580002B813C81C901880F991F820F931F880FFF
:10159000991F019629853A85F90141819E01255FB0
:1015A0003F4F820F931FFC0140832B813C81C90177
:1015B000880F991F820F931F880F991F0296298504
:1015C0003A85F90142819E01255F3F4F820F931FAB
:1015D000FC0140832B813C81C901880F991F820F38
:1015E000931F880F991F039629853A85F901438136
:1015F0009E01255F3F4F820F931FFC0140832B818B
:101600003C81C901880F991F820F931F880F991F72
:10161000049629853A85F90144819E01255F3F4F53
:10162000820F931FFC0140832B813C81C901880FED
:10163000991F820F931F880F991F059629853A8558
:10164000F90145819E01255F3F4F820F931FFC01E9
:1016500040838B819C8101969C838B838B819C81B1
:1016600045970CF463CFCE0187579F4FFC01108242
:10167000CE0186579F4FFC0110828FE790E09E833A
:101680008D8312C09E01255F3F4F8D819E81820F09
:10169000931FFC018081882F90E00E946E0B8D814A
:1016A0009E8101979E838D838D819E81992354F71E
:1016B00089819A8101969A83898389819A81089781
:1016C0000CF425CF00000000C657DF4F0FB6F8948A
:1016D000DEBF0FBECDBFDF91CF910895CF93DF93D3
:1016E0000F92CDB7DEB789838EEA90E02981FC01A5
:1016F000208300008DEA90E0FC0180818823D4F7EC
:10170000000000000F90DF91CF910895CF93DF93F9
:1017100000D00F92CDB7DEB78AE290E0FC012081C5
:101720008AE290E02064FC0120838AE290E0FC01E0
:1017300020818AE290E02068FC01208384E290E02E
:10174000FC01208184E290E02160FC01208385E29D
:1017500090E0FC01208185E290E02460FC01208380
:101760008CEA90E020E5FC0120838AE290E0FC0115
:1017700020818AE290E02068FC01208387E290E0EB
:10178000FC01208187E290E02260FC0120838DE251
:1017900090E0FC0120818DE290E02860FC01208334
:1017A00085E290E0FC01208185E290E02160FC016F
:1017B00020838BE290E0FC0120818BE290E02F7B84
:1017C000FC01208319820CC0898191E0980F9983D4
:1017D000882F90E08D5F9E4FFC0180810E946E0BF0
:1017E00089818B3088F38BE290E0FC0120818BE2D1
:1017F00090E02064FC0120831B821A8208C080E0F4
:101800000E946E0B8A819B8101969B838A838A81C9
:101810009B81811594409CF30E941C0A00000F904C
:101820000F900F90DF91CF910895CF93DF93CDB7B5
:10183000DEB71092200481E08093220410922304EA
:1018400088E290E0FC018081482F82E1282F30E07F
:1018500081E090E002C0880F991F2A95E2F7242FBB
:10186000282B88E290E0FC01208388E290E0FC01D4
:101870008081482F83E1282F30E081E090E002C092
:10188000880F991F2A95E2F7242F282B88E290E0F1
:10189000FC01208389EB90E0FC01208189EB90E042
:1018A0002E7FFC01208389EB90E0FC01208189EBF5
:1018B00090E02D7FFC01208388EB90E020E2FC018A
:1018C00020838CEB90E025E4FC0120830000DF9175
:1018D000CF910895CF93DF930F92CDB7DEB7898371
:1018E0008AEB90E02981220FFC01208300000F90F9
:1018F000DF91CF910895CF93DF9300D000D000D037
:10190000CDB7DEB78A837C836B834D832E838D8135
:10191000813218F080E061C00000809120048823AB
:10192000D9F781E0809320048E81809322048FEF89
:1019300080938D04109248048D81815080934904D6
:1019400081E0809321048A81882F90E0880F991F7D
:10195000982F80912104892B809321048091230466
:10196000813071F4109223048BEB90E020912104DC
:10197000FC0120838CEB90E025ECFC01208307C068
:101980008CEB90E025EEFC01208301C000008091EB
:1019900020048130D9F3809148049D81891718F47F
:1019A000809148048D83198213C08981282F30E0EB
:1019B0008981882F90E04B815C81840F951F285D81
:1019C0003B4FF9012081FC01208389818F5F89834E
:1019D00099818D81981748F38D8126960FB6F894DA
:1019E000DEBF0FBECDBFDF91CF9108950F93CF9390
:1019F000DF9300D000D000D00F92CDB7DEB78A833E
:101A00007C836B834D832E830F838D81813218F00D
:101A100081E06CC00000809120048823D9F782E027
:101A2000809320048F81809322048FEF80938D0414
:101A3000109248048D8180934904198213C08981D2
:101A4000882F90E02B813C81280F391F8981882FB6
:101A500090E0F9012081885D9B4FFC012083898102
:101A60008F5F898399818D81981748F310922104A3
:101A70008A81882F90E0880F991F982F80912104E8
:101A8000892B8093210480912304813071F410927A
:101A900023048BEB90E020912104FC0120838CEB4C
:101AA00090E025ECFC01208307C08CEB90E025EE54
:101AB000FC01208301C000008E81882321F08091E9
:101AC00020048230C1F380918D048F3F11F480E0B7
:101AD0000DC080918D04803211F482E007C08091A6
:101AE0008D04803311F483E001C084E027960FB6A3
:101AF000F894DEBF0FBECDBFDF91CF910F91089557
:101B0000CF93DF9300D000D0CDB7DEB79B838A831D
:101B10006C838C81813210F081E023C0809120049D
:101B2000843011F082E01DC08C8180936B04198297
:101B300013C08981882F90E02A813B81280F391FAB
:101B40008981882F90E0F9012081865B9B4FFC0101
:101B5000208389818F5F898399818C81981748F3CD
:101B600080E00F900F900F900F90DF91CF9108952C
:101B7000CF93DF9300D0CDB7DEB79A838983898175
:101B80009A81909327048093260400000F900F9071
:101B9000DF91CF910895CF93DF9300D0CDB7DEB71B
:101BA0009A83898389819A81909325048093240460
:101BB00000000F900F90DF91CF910895CF93DF93A6
:101BC0000F92CDB7DEB789838981882331F08CEB02
:101BD00090E025ECFC01208305C08CEB90E025E82B
:101BE000FC01208300000F90DF91CF910895CF93E7
:101BF000DF93CDB7DEB78CEB90E025EDFC012083C1
:101C000001C000008CEB90E0FC018081882F90E007
:101C100080719927892BA9F7109220040000DF9189
:101C2000CF910895CF93DF93CDB7DEB78CEB90E0E3
:101C300025ECFC012083109220040000DF91CF915D
:101C400008951F920F920FB60F9211242F933F9376
:101C50004F935F936F937F938F939F93AF93BF93B4
:101C6000EF93FF93CF93DF93CDB7DEB789EB90E08F
:101C7000FC018081882F90E0887F9927893C91051D
:101C80000CF025C199230CF423C1092E000CAA0BDA
:101C9000BB0B893C9105A105B10508F019C1825B18
:101CA0009A4EFC010C9423128BEB90E020912104BE
:101CB000FC01208381E00E94DE0D0AC1909148045E
:101CC000809149049817A0F48091480491E0980FFE
:101CD00090934804282F30E08BEB90E0285D3B4F39
:101CE000F9012081FC01208381E00E94DE0DF0C01B
:101CF00080912204882319F00E94F70DE9C081E049
:101D0000809323048CEB90E024EAFC012083109262
:101D10002004DEC080E280938D040E94F70DD8C0BD
:101D200080E380938D040E94F70DD2C088E38093F6
:101D30008D040E94120ECCC02BEB30E08091480441
:101D400091E0980F90934804882F90E0F90120814A
:101D5000885D9B4FFC012083909148048091490449
:101D6000981720F481E00E94DE0DB2C080E00E944E
:101D7000DE0DAEC02BEB30E08091480491E0980F6F
:101D800090934804882F90E0F9012081885D9B4F53
:101D9000FC01208380912204882319F00E94F70D12
:101DA00097C081E0809323048CEB90E024EAFC014F
:101DB0002083109220048CC00E94F70D89C083E01C
:101DC0008093200410928C0481E00E94DE0D80C07C
:101DD00080918C048032A0F42BEB30E080918C0455
:101DE00091E0980F90938C04882F90E0F901208166
:101DF00084599B4FFC01208381E00E94DE0D68C066
:101E000080E00E94DE0D64C080918C04803240F43A
:101E100080918C04882F90E084599B4FFC011082A4
:101E20000E94F70D209126043091270480918C04A4
:101E3000882F90E0BC018CE694E0F901099510929E
:101E40008C040E94120E44C080E00E94DE0D40C04F
:101E500084E08093200410926A0410926B048091B5
:101E6000240490912504FC01099580916B0488233A
:101E700029F481E080936B0410924A0480916A04F3
:101E800091E0980F90936A04282F30E08BEB90E05C
:101E9000265B3B4FF9012081FC01208390916A046D
:101EA00080916B04981720F481E00E94DE0D10C031
:101EB00080E00E94DE0D0CC081E00E94DE0D1092D9
:101EC000200406C010928D040E94F70D01C000008E
:101ED0000000DF91CF91FF91EF91BF91AF919F9162
:101EE0008F917F916F915F914F913F912F910F90C3
:101EF0000FBE0F901F9018958F929F92AF92BF9236
:101F0000CF92DF92EF92FF92CF93DF93CDB7DEB700
:101F100028970FB6F894DEBF0FBECDBF29833A8352
:101F20004B835C836D837E838F83988700008980D9
:101F30009A80AB80BC80CD80DE80EF80F884282D35
:101F4000392D4A2D5B2D6C2D7D2D8E2D9F2DAFEFC4
:101F50000E94381229833A834B835C836D837E838E
:101F60008F839887282D392D4A2D5B2D6C2D7D2D43
:101F70008E2D9F2DA0E00E944412C9F600000000A3
:101F800028960FB6F894DEBF0FBECDBFDF91CF917C
:101F9000FF90EF90DF90CF90BF90AF909F908F9089
:101FA0000895CF93DF93CDB7DEB784EC90E028E0BF
:101FB000FC01208381EC90E0FC01208181EC90E029
:101FC0002860FC01208382EC90E026E0FC01208365
:101FD0000000DF91CF910895CF93DF930F92CDB79B
:101FE000DEB78983000080EC90E0FC018081882FBF
:101FF00090E080729927892BB1F386EC90E02981DB
:10200000FC01208300000F90DF91CF910895CF93C2
:10201000DF9300D0CDB7DEB79A8389830BC0898167
:102020009A81FC0180810E94EC0F89819A8101963E
:102030009A83898389819A81FC018081882379F739
:10204000000000000F900F90DF91CF910895CF9383
:10205000DF93CDB7DEB78CEC90E023E3FC01208367
:1020600089EC90E0FC01208189EC90E02860FC0183
:1020700020838AEC90E026E0FC0120830000DF91C1
:10208000CF910895CF93DF930F92CDB7DEB78983B9
:10209000000088EC90E0FC018081882F90E0807245
:1020A0009927892BB1F38EEC90E02981FC012083E4
:1020B00000000F90DF91CF910895CF93DF9300D070
:1020C000CDB7DEB79A8389830BC089819A81FC01E1
:1020D00080810E94421089819A8101969A83898326
:1020E00089819A81FC018081882379F700000000B2
:1020F0000F900F90DF91CF910895CF93DF9300D091
:10210000CDB7DEB79A83898389819A810A9768F16E
:1021100089819A819C01ADECBCEC0E9429129695B4
:10212000879596958795969587950E947D1049810C
:102130005A819A01ADECBCEC0E9429129C013695A3
:1021400027953695279536952795C901880F991FAC
:10215000880F991F820F931F880F991F9A01281BC0
:10216000390BC9010E947D1004C08981805D0E94E5
:10217000EC0F00000F900F90DF91CF910895CF9357
:10218000DF930F92CDB7DEB7898389818A30F0F073
:1021900099818DEC989F812D112486958695869541
:1021A0000E94BF1029818DEC289F812D1124982F2A
:1021B000969596959695892F880F880F890F880F89
:1021C000922F981B892F0E94BF1004C08981805DC7
:1021D0000E94EC0F00000F90DF91CF910895CF93F4
:1021E000DF9300D000D000D00F92CDB7DEB79C8334
:1021F0008B837E836D834F838F81882309F480C016
:102200008D819E81892B09F47BC08F81882F90E07E
:1022100001972D813E81820F931FFC0110828D81D9
:102220009E81FC018081882329F08D819E81019609
:102230009E838D838B819C81892B31F48D819E813E
:1022400020E3FC0120835CC081E090E09A838983D5
:102250008B819C810A9760F08B819C8184369105EB
:1022600018F482E090E002C083E090E09A838983D2
:102270008B819C81883E9340D0F184E090E09A83EA
:10228000898335C04B815C819A01ADECBCEC0E9426
:1022900029129C01369527953695279536952795D1
:1022A000C901880F991F880F991F820F931F880FEC
:1022B000991F9A01281B390B822F40E3480F89810F
:1022C0009A812D813E81820F931F242FFC01208350
:1022D0008B819C819C01ADECBCEC0E9429129695EF
:1022E000879596958795969587959C838B8389810D
:1022F0009A8101979A83898389819A81992314F617
:1023000027960FB6F894DEBF0FBECDBFDF91CF91F9
:102310000895CF93DF9300D000D0CDB7DEB79A8376
:1023200089837C836B8305C089819A8101969A8316
:10233000898389819A81FC0180818823A9F712C051
:102340008B819C81FC01208189819A81FC01208301
:1023500089819A8101969A8389838B819C810196D8
:102360009C838B838B819C81FC018081882341F736
:1023700089819A810F900F900F900F90DF91CF91EC
:102380000895CF93DF9300D000D00F92CDB7DEB782
:102390009C838B836D831A8219820DC089819A81F7
:1023A0002B813C81820F931FFC01108289819A81CD
:1023B00001969A8389838D81882F90E029813A81C3
:1023C000281739075CF3000000000F900F900F9062
:1023D0000F900F90DF91CF91089597FB072E16F481
:1023E000009407D077FD09D00E94501207FC05D059
:1023F0003EF4909581959F4F0895709561957F4F1C
:102400000895A1E21A2EAA1BBB1BFD010DC0AA1F35
:10241000BB1FEE1FFF1FA217B307E407F50720F04D
:10242000A21BB30BE40BF50B661F771F881F991FC8
:102430001A9469F760957095809590959B01AC0111
:10244000BD01CF010895EE0FFF1F0590F491E02D1F
:102450000994A29FB001B39FC001A39F700D811D7D
:102460001124911DB29F700D811D1124911D08959D
:102470000024A7FD00942A0F301D401D501D601D33
:10248000701D801D901D08950024A7FD00942A173B
:1024900030054005500560057005800590050895DC
:1024A000AA1BBB1B51E107C0AA1FBB1FA617B7077A
:1024B00010F0A61BB70B881F991F5A95A9F7809596
:1024C0009095BC01CD010895FB01DC0102C0019093
:1024D0000D9241505040D8F70895FC010190002022
:1024E000E9F7809590958E0F9F1F0895AEE0B0E0BC
:1024F000ECE7F2E10C9423150D891E8986E08C83AC
:102500001A8309838FEF9FE79E838D83AE01475E19
:102510005F4F6F89788DCE0101960E9499122F81AD
:102520003885020F131FF80110822E96E4E00C94F8
:102530003F15AFE0B0E0EFE9F2E10C9415157C0136
:102540003B018A01DC0117961C921E921697139686
:102550008C9181FFC3C19AE0292EFE0131964F0173
:10256000D70113969C91F30193FD859193FF81917F
:102570003F01882309F448C1853239F493FD8591E0
:1025800093FF81913F01853229F4B70190E00E94C9
:102590008714E6CFB12C412C512CBFE1B51538F092
:1025A0008B3209F188F4803201F1833221F157FC3A
:1025B0003AC020ED280F2A3040F556FE1FC0B29CCD
:1025C000200D1124B22E06C08D3291F0803379F7A0
:1025D000689450F8F30193FD859193FF81913F0139
:1025E0008111DBCF20C0689451F8689452F8F2CF83
:1025F000689453F8EFCF689454F8ECCF429C200DC8
:102600001124422E689455F8E5CF8E3229F456FCF9
:10261000FBC0689456F8DECF8C3619F4689457F8EE
:10262000D9CF8836B9F2982F9F7D95549330C0F05A
:102630008336A1F18337C1F1833509F05BC0D8013E
:10264000CD90DD908D016B2D70E056FC02C06FEFD8
:102650007FEFC6010E9471145C01689457F80AC0AC
:102660000C5F1F4FEFE3E983AA24A394B12C64010C
:10267000E89457F853FC04C04A141B0409F018F5F9
:10268000342CA114B10431F5332009F469CFB7011A
:1026900080E290E00E9487143A94F6CFD8018C91A2
:1026A00089830E5F1F4FE0CFF801C190D1908F0159
:1026B0006B2D70E056FC02C06FEF7FEFC6010E94E9
:1026C0007C145C01D5CFB70180E290E00E948714B2
:1026D0004A94D2CFF60157FC859157FE81916F0144
:1026E000B70190E00E94871431103A94B1E0AB1A20
:1026F000B108C7CF843619F0893609F074C0F801E3
:1027000057FE6AC061917191819191918F01E52D80
:10271000EF76DE2E97FF09C09095809570956195B4
:102720007F4F8F4F9F4F6894D7F82AE030E0A40185
:102730000E94B714C82EC818AC2C5D2CD6FE0CC055
:10274000E89450F8CB1440F4D4FE05C0D2FC03C08A
:102750005D2D5E7E552EAB2C54FE98C0FE01EC0D17
:10276000F11D8081803309F08AC0652D697E562E67
:10277000752D7870372E53FC98C050FE92C0BC2C3B
:10278000A41418F44C0CB42CBA1854FE94C0B7011D
:1027900080E390E00E94871452FE09C088E790E031
:1027A00051FE02C088E590E0B7010E948714CB1467
:1027B00008F48DC0CA94D12C8FEFC81AD80AC80C5F
:1027C000D91CD6018E916D01B70190E00E9487144B
:1027D0008C149D04B1F758CF61917191072E000CB4
:1027E000880B990B93CFD52CE894D4F82AE030E0ED
:1027F000853739F1F52DF97FDF2E8037A9F058F4B0
:102800008835A9F08F36D9F0F701868197812F9608
:10281000E2E10C9431158837B9F7D4FE02C0689410
:10282000D2F820E130E00DC06894D4F8F6CF54FE21
:1028300003C02F2F2660D22E20E132E002C028E014
:1028400030E0F801D7FE15C041915191619171912D
:102850004C875D876E877F878F01A4016C857D859E
:102860008E859F850E94B714C82EC818E894D7F8A3
:1028700063CF81919191AC0170E060E0E9CF52FCAF
:1028800002C0A39475CFA394A39472CF852D8678AC
:1028900009F46ECFF6CFB70180E290E00E94871472
:1028A000A394A414C0F3312C70CF342C3A18A41480
:1028B00008F46BCFF8CF852D867809F478CF8BE2BA
:1028C00051FE80E257FC8DE2B70190E06ECFB70178
:1028D00080E390E00E948714BA9469CF8FEF9FEF56
:1028E00096CFFC010590615070400110D8F780959B
:1028F00090958E0F9F1F0895FC01615070400190CC
:102900000110D8F7809590958E0F9F1F08950F9313
:102910001F93CF93DF93182F092FEB018B8181FD3C
:1029200009C01FEF0FEF812F902FDF91CF911F91E3
:102930000F91089582FF14C02E813F818C819D816B
:10294000281739073CF4E881F981CF010196998372
:10295000888310838E819F8101969F838E83E3CF2E
:10296000E885F985812F0995892BA1F3DACFFA0142
:10297000AA27283051F1203181F1E8946F936E7FBE
:102980006E5F7F4F8F4F9F4FAF4FB1E03ED0B4E0AF
:102990003CD0670F781F891F9A1FA11D680F791FF0
:1029A0008A1F911DA11D6A0F711D811D911DA11D01
:1029B00020D009F468943F912AE0269F1124301911
:1029C000305D3193DEF6CF010895462F4770405DAC
:1029D0004193B3E00FD0C9F7F6CF462F4F70405D5B
:1029E0004A3318F0495D31FD4052419302D0A9F7B6
:1029F000EACFB4E0A6959795879577956795BA95B0
:102A0000C9F700976105710508959B01AC010A2E75
:102A100006945795479537952795BA95C9F7620F4C
:102A2000731F841F951FA01D08952F923F924F92F0
:102A30005F926F927F928F929F92AF92BF92CF924E
:102A4000DF92EF92FF920F931F93CF93DF93CDB757
:102A5000DEB7CA1BDB0B0FB6F894DEBF0FBECDBFCF
:102A600009942A88398848885F846E847D848C84A0
:102A70009B84AA84B984C884DF80EE80FD800C81A9
:102A80001B81AA81B981CE0FD11D0FB6F894DEBF8C
:102A90000FBECDBFED010895F894FFCF620F680F10
:102AA000680F680F680F680F680F680F540E680F83
:102AB000680F680F680F680F680F680F540E680F73
:102AC000680F680F680F680F680F680F5E0E680F59
:102AD000680F680F680F680F680F680F8A0E680F1D
:102AE000680F680F680F680F680F680F5E0E680F39
:102AF000680F680F680F680F680F680F900E680FF7
:102B0000680F680F680F680F680F680F960E680FE0
:102B1000680F680F680F680F680F680FAC0E680FBA
:102B2000680F680F680F680F680F680FDC0E680F7A
:102B3000680F680F680F680F680F680F9C0E680FAA
:102B4000680F680F680F680F680F680FBA0E680F7C
:102B5000680F680F680F680F680F680FDF0E680F47
:102B6000680F680F680F680F680F680FDF0E680F37
:102B7000680F680F680F680F680F680FDF0E680F27
:102B8000680F680F680F680F680F680FDF0E680F17
:102B9000680F680F680F680F680F680FE80E680FFE
:102BA000680F680F680F680F680F680F240F680FB1
:102BB000680F680F680F680F680F680FE80E680FDE
:102BC000680F680F680F680F680F680F240F680F91
:102BD000680F680F680F680F680F680F040F680FA1
:102BE000680F680F680F680F680F680F280F680F6D
:102BF000680F680F680F680F680F680F280F680F5D
:102C0000680F680F680F680F680F680F3E0F680F36
:102C1000680F680F680F680F680F680F5C0F680F08
:0E2C2000680F680F680F680F680F680F5C0F71
:102C2E00010803AE408D142000A1C0A4A6AF4341FD
:102C3E0043545553000000504554554E4941000031
:102C4E002020202020202020202020202020202076
:102C5E002020202000200043484F4953495353451C
:102C6E005A20564F54524500455350454345003C5B
:102C7E000054454D50455241545552453A2020205E
:102C8E00202020202020002D002E006F43004C55C8
:102C9E004D494E4F534954453A20202020202020A4
:102CAE0020200048554D49444954453A20202020C3
:102CBE002020202520004553504543453A20202012
:102CCE000041542B43574A41505F4355523D2269B0
:102CDE0050686F6E65222C22506564726F393030E9
:102CEE00220D0A0041542B4349505354415455531D
:102CFE000D0A0041542B43495053544152543D2226
:102D0E00544350222C2238372E38392E3139342E56
:102D1E003238222C343030300D0A0041542B4349C6
:102D2E005053454E443D25640D0A002573257325E9
:102D3E007325732573257325732573257300504FE3
:102D4E005354202F6170692F696E73657274204819
:102D5E005454502F312E300D0A486F73743A203868
:102D6E00372E38392E3139342E32380D0A436F6EE4
:102D7E006E656374696F6E3A206B6565702D616C5C
:102D8E006976650D0A436F6E74656E742D4C656EB3
:102D9E006774683A20000D0A436F6E74656E742D69
:102DAE00547970653A206170706C69636174696FF3
:102DBE006E2F6A736F6E0D0A0D0A7B0D0A227465F3
:102DCE006D7065726174757265223A2200222C0D47
:102DDE000A2268756D6964697465223A2200222C94
:102DEE000D0A226C756D696E6F73697465223A22D5
:102DFE0000220D0A7D000000000000007C0A090A76
:102E0E007C007F49494E30003E41414122007F41C6
:102E1E0041221C007F49494941007F0909090100EF
:102E2E003E4149493A007F0808087F0000417F4132
:102E3E0000000020413F01007F08142241007F4026
:102E4E00404040007F020C027F007F0608307F006A
:102E5E003E4141413E007F09090906003E41512194
:102E6E005E007F0919294600464949493100010192
:102E7E007F0101003F4040403F001F2040201F00C7
:102E8E003F4038403F006314081463000708700881
:102E9E0007006151494543003E5149453E000042FD
:102EAE007F4000004261514946002141454B3100AF
:102EBE001814127F10004745454539003C4A4949D0
:102ECE0030000171090503003649494936000649AB
:102EDE0049291E0000363600000000005F00000089
:102EEE00080808080800081C2A08080008082A1CF8
:102EFE00080010207E20100008047E040800000048
:102F0E007E000000000060300000000060600000E5
:102F1E0000000205020023130804323100000000F5
:102F2E0000000A0B0C0D12130E0F101112131415B4
:00000001FF
