:100000000C9434000C9451000C9451000C94510049
:100010000C9451000C9451000C9451000C9451001C
:100020000C9451000C9451000C9451000C9451000C
:100030000C9451000C9451000C9451000C945100FC
:100040000C9451000C9451000C9451000C945100EC
:100050000C9451000C9451000C9451000C945100DC
:100060000C94C4060C94510011241FBECFEFD8E0AD
:10007000DEBFCDBF13E0A0E0B1E0E8E6F4E102C0EE
:1000800005900D92A237B107D9F724E0A2E7B3E0BB
:1000900001C01D92A838B207E1F70E94FA000C9443
:1000A00069090C940000CF93DF9300D0CDB7DEB781
:1000B0008CE790E0FC0120818CE790E0207FFC0140
:1000C00020838AE790E0FC0120818AE790E02064A9
:1000D000FC01208300008AE790E0FC018081882FEA
:1000E00090E080749927892BB1F788E790E0FC01B4
:1000F0008081882F90E09A83898389E790E0FC01D2
:100100008081882F90E081709927892B29F089813F
:100110009A8191609A83898389E790E0FC018081CC
:10012000882F90E082709927892B29F089819A8104
:1001300092609A83898389819A810F900F90DF91D1
:10014000CF910895CF93DF9300D0CDB7DEB78CE782
:1001500090E0FC0120818CE790E02160FC0120838D
:100160008CE790E0FC0120818CE790E0217FFC018E
:1001700020838AE790E0FC0120818AE790E02064F8
:10018000FC01208300008AE790E0FC018081882F39
:1001900090E080749927892BB1F788E790E0FC0103
:1001A0008081882F90E09A83898389E790E0FC0121
:1001B0008081882F90E081709927892B29F089818F
:1001C0009A8191609A83898389E790E0FC0180811C
:1001D000882F90E082709927892B29F089819A8154
:1001E00092609A83898389819A810F900F90DF9121
:1001F000CF910895CF93DF9300D000D0CDB7DEB775
:100200008AE790E0FC0120818AE790E02068FC0109
:1002100020838CE790E0FC0120818CE790E0206453
:10022000FC0120830E9429040E9453009A83898341
:1002300040E050E060E070E08BE091E00E94490116
:1002400089819A8140E050E06EE070E00E944102B6
:100250000E94A2009C838B8342E050E060E070E04B
:1002600088E191E00E9449018B819C8142E050E04D
:100270006CE070E00E9441020E94030320E83EE32C
:1002800040E050E060E070E080E090E00E941F08F5
:10029000CBCFCF93DF9300D000D000D0CDB7DEB767
:1002A0009C838B836D834E838E81482F880F550BE3
:1002B0008D81082E000C990B65E1649F9001659F6C
:1002C000300D1124820F931F80529C4F9A83898393
:1002D000C6C08B819C81FC01808181348CF08B8134
:1002E0009C81FC0180818B355CF48B819C81FC01BD
:1002F00080818054282F89819A81FC012083A5C0A8
:100300008B819C81FC01808180338CF08B819C816E
:10031000FC0180818A335CF48B819C81FC018081AB
:100320008551282F89819A81FC0120838EC08B8181
:100330009C81FC018081803229F489819A81FC01B1
:10034000108283C08B819C81FC0180818A3331F4CF
:1003500089819A8125E2FC01208377C08B819C8171
:10036000FC018081813231F489819A8126E2FC018D
:1003700020836BC08B819C81FC0180818D3231F4A4
:1003800089819A8127E2FC0120835FC08B819C8157
:10039000FC0180818C3331F489819A8128E2FC014F
:1003A000208353C08B819C81FC0180818E3331F48A
:1003B00089819A8129E2FC01208347C08B819C813D
:1003C000FC018081863731F489819A812AE2FC011F
:1003D00020833BC08B819C81FC0180818E3531F470
:1003E00089819A812BE2FC0120832FC08B819C8123
:1003F000FC0180818C3731F489819A812CE2FC01E7
:10040000208323C08B819C81FC0180818C3231F45C
:1004100089819A812DE2FC01208317C08B819C8108
:10042000FC0180818E3231F489819A812EE2FC01B7
:1004300020830BC08B819C81FC0180818F3629F445
:1004400089819A812FE2FC0120838B819C81019616
:100450009C838B8389819A8101969A8389838B817E
:100460009C81FC018081882309F033CF00000000CB
:1004700026960FB6F894DEBF0FBECDBFDF91CF91A9
:100480000895CF93DF9300D000D00F92CDB7DEB7A1
:100490008B836C834D838D81482F880F550B8C8106
:1004A000082E000C990B65E1649F9001659F300D4B
:1004B0001124820F931F80529C4F9A8389838B81D2
:1004C000843608F19B8189E2989F812D11248295C1
:1004D0008F704BE1480F89819A819C012F5F3F4FBC
:1004E0003A832983242FFC0120838B8199E2899F01
:1004F000912D1124292F22952F7094E6299F902D5C
:100500001124891B8B838B818A30B0F19B818DEC08
:10051000989F812D1124282F2695269526958DECC0
:10052000289F812D1124982F969596959695892F21
:10053000880F880F890F880F922F981B4BE1490F66
:1005400089819A819C012F5F3F4F3A832983242F11
:10055000FC0120839B818DEC989F812D1124282FF5
:10056000269526952695822F880F880F820F880F53
:10057000F92FF81B8F2F8B838B81855E282F898124
:100580009A81FC01208300000F900F900F900F9034
:100590000F90DF91CF910895CF93DF9300D000D0DB
:1005A000CDB7DEB71A82198221C01C821B8215C00A
:1005B00089819A8145E1489F9001499F300D11241E
:1005C0008B819C81820F931F80529C4FFC01108273
:1005D0008B819C8101969C838B838B819C81459729
:1005E0003CF389819A8101969A83898389819A81D2
:1005F0000897DCF2000000000F900F900F900F9012
:10060000DF91CF910895CF93DF93CDB7DEB7CA586E
:10061000D1090FB6F894DEBF0FBECDBF8BE290E0DC
:10062000FC0120818BE290E02F7BFC01208380E0A5
:1006300090E00E94110480E190E00E9411048BE29E
:1006400090E0FC0120818BE290E02064FC0120839B
:100650001A821982D5C029813A8145E1429FC001A1
:10066000439F900D112480529C4F98878F831C824A
:100670001B8298C08B819C812F813885820F931FAC
:10068000FC018081282F880F330BC901880F991F27
:10069000820F931F880F991F8D5D9E4F9A878987C0
:1006A0002B813C81C901880F991F820F931F880FEE
:1006B000991F9C0189859A85FC014081CE010B968A
:1006C000820F931FFC0140832B813C81C901880F5D
:1006D000991F820F931F880F991F019629853A85CC
:1006E000F90141819E01255F3F4F820F931FFC015D
:1006F00040832B813C81C901880F991F820F931F72
:10070000880F991F029629853A85F90142819E0139
:10071000255F3F4F820F931FFC0140832B813C815B
:10072000C901880F991F820F931F880F991F039685
:1007300029853A85F90143819E01255F3F4F820F4C
:10074000931FFC0140832B813C81C901880F991FB5
:10075000820F931F880F991F049629853A85F90106
:1007600044819E01255F3F4F820F931FFC01408310
:100770002B813C81C901880F991F820F931F880F1D
:10078000991F059629853A85F90145819E01255FC6
:100790003F4F820F931FFC0140838B819C81019608
:1007A0009C838B838B819C8145970CF463CFCE0116
:1007B00087579F4FFC011082CE0186579F4FFC0147
:1007C00010821E821D8212C09E01255F3F4F8D81C7
:1007D0009E81820F931FFC018081882F90E00E94F0
:1007E00011048D819E8101969E838D838D819E81D2
:1007F000803891054CF389819A8101969A83898387
:1008000089819A8108970CF426CF00000000C65712
:10081000DF4F0FB6F894DEBF0FBECDBFDF91CF9193
:100820000895CF93DF930F92CDB7DEB789838EE41F
:1008300090E02981FC01208300008DE490E0FC0120
:1008400080818823D4F7000000000F90DF91CF91C2
:100850000895CF93DF9300D00F92CDB7DEB78AE231
:1008600090E0FC0120818AE290E02064FC0120837A
:100870008AE290E0FC0120818AE290E02068FC019D
:10088000208384E290E0FC01208184E290E02160FA
:10089000FC01208385E290E0FC01208185E290E06C
:1008A0002460FC0120838CE490E020E5FC0120839F
:1008B0008AE290E0FC0120818AE290E02068FC015D
:1008C000208384E290E0FC01208184E290E02062B9
:1008D000FC01208384E290E0FC01208184E290E02E
:1008E0002860FC01208385E290E0FC01208185E204
:1008F00090E02160FC0120838BE290E0FC012081EC
:100900008BE290E02F7BFC01208319820CC089814F
:1009100091E0980F9983882F90E080509F4FFC01C1
:1009200080810E94110489818B3088F38BE290E0F2
:10093000FC0120818BE290E02064FC0120831B827B
:100940001A8208C080E00E9411048A819B8101966E
:100950009B838A838A819B81811594409CF30E94AA
:10096000CC0200000F900F900F90DF91CF9108956F
:10097000CF93DF93CDB7DEB71092720381E08093FF
:1009800074031092750388E290E0FC018081482F87
:1009900082E1282F30E081E090E002C0880F991FAB
:1009A0002A95E2F7242F282B88E290E0FC0120838F
:1009B00088E290E0FC018081482F83E1282F30E01D
:1009C00081E090E002C0880F991F2A95E2F7242F5A
:1009D000282B88E290E0FC01208389EB90E0FC0169
:1009E000208189EB90E02E7FFC01208389EB90E051
:1009F000FC01208189EB90E02D7FFC01208388EBB6
:100A000090E028E4FC0120838CEB90E025E4FC01DD
:100A100020830000DF91CF910895CF93DF930F9251
:100A2000CDB7DEB789838AEB90E02981220FFC01E4
:100A3000208300000F90DF91CF910895CF93DF9333
:100A400000D000D000D0CDB7DEB78A837C836B8323
:100A50004D832E838D81813218F080E061C00000CB
:100A6000809172038823D9F781E0809372038E818D
:100A7000809374038FEF8093DF0310929A038D812C
:100A8000815080939B0381E0809373038A81882F38
:100A900090E0880F991F982F80917303892B809382
:100AA000730380917503813071F4109275038BEBA1
:100AB00090E020917303FC0120838CEB90E025EC07
:100AC000FC01208307C08CEB90E025EEFC01208325
:100AD00001C00000809172038130D9F380919A03A4
:100AE0009D81891718F480919A038D83198213C010
:100AF0008981282F30E08981882F90E04B815C81AB
:100B0000840F951F26583C4FF9012081FC0120835A
:100B100089818F5F898399818D81981748F38D81B1
:100B200026960FB6F894DEBF0FBECDBFDF91CF91F2
:100B300008950F93CF93DF9300D000D000D00F9291
:100B4000CDB7DEB78A837C836B834D832E830F837F
:100B50008D81813218F081E06CC0000080917203B9
:100B60008823D9F782E0809372038F818093740386
:100B70008FEF8093DF0310929A038D8180939B0304
:100B8000198213C08981882F90E02B813C81280F26
:100B9000391F8981882F90E0F901208186589C4F68
:100BA000FC01208389818F5F898399818D819817CA
:100BB00048F3109273038A81882F90E0880F991F61
:100BC000982F80917303892B809373038091750311
:100BD000813071F4109275038BEB90E020917303D8
:100BE000FC0120838CEB90E025ECFC01208307C006
:100BF0008CEB90E025EEFC01208301C000008E818B
:100C0000882321F0809172038230C1F38091DF0349
:100C10008F3F11F480E00DC08091DF03803211F42A
:100C200082E007C08091DF03803311F483E001C0CC
:100C300084E027960FB6F894DEBF0FBECDBFDF91DC
:100C4000CF910F910895CF93DF9300D000D0CDB70F
:100C5000DEB79B838A836C838C81813210F081E0C4
:100C600023C080917203843011F082E01DC08C811A
:100C70008093BD03198213C08981882F90E02A8157
:100C80003B81280F391F8981882F90E0F90120814D
:100C900084569C4FFC01208389818F5F89839981D1
:100CA0008C81981748F380E00F900F900F900F9071
:100CB000DF91CF910895CF93DF9300D0CDB7DEB70A
:100CC0009A83898389819A819093790380937803A9
:100CD00000000F900F90DF91CF910895CF93DF9395
:100CE00000D0CDB7DEB79A83898389819A819093AA
:100CF00077038093760300000F900F90DF91CF91E0
:100D00000895CF93DF930F92CDB7DEB789838981A2
:100D1000882331F08CEB90E025ECFC01208305C0AA
:100D20008CEB90E025E8FC01208300000F90DF9120
:100D3000CF910895CF93DF93CDB7DEB78CEB90E0E2
:100D400025EDFC01208301C000008CEB90E0FC014C
:100D50008081882F90E080719927892BA9F71092C4
:100D600072030000DF91CF910895CF93DF93CDB749
:100D7000DEB78CEB90E025ECFC012083109272032F
:100D80000000DF91CF9108951F920F920FB60F923E
:100D900011242F933F934F935F936F937F938F9380
:100DA0009F93AF93BF93EF93FF93CF93DF93CDB711
:100DB000DEB789EB90E0FC018081882F90E0887F8E
:100DC0009927893C91050CF025C199230CF423C186
:100DD000092E000CAA0BBB0B893C9105A105B1059E
:100DE00008F019C18559964FFC010C943C098BEB16
:100DF00090E020917303FC01208381E00E94810632
:100E00000AC190919A0380919B039817A0F4809156
:100E10009A0391E0980F90939A03282F30E08BEB80
:100E200090E026583C4FF9012081FC01208381E0AD
:100E30000E948106F0C080917403882319F00E94FB
:100E40009A06E9C081E0809375038CEB90E024EA78
:100E5000FC01208310927203DEC080E28093DF03E6
:100E60000E949A06D8C080E38093DF030E949A060E
:100E7000D2C088E38093DF030E94B506CCC02BEB81
:100E800030E080919A0391E0980F90939A03882F15
:100E900090E0F901208186589C4FFC0120839091BD
:100EA0009A0380919B03981720F481E00E948106A9
:100EB000B2C080E00E948106AEC02BEB30E0809192
:100EC0009A0391E0980F90939A03882F90E0F9018C
:100ED000208186589C4FFC012083809174038823D5
:100EE00019F00E949A0697C081E0809375038CEBFD
:100EF00090E024EAFC012083109272038CC00E94CF
:100F00009A0689C083E0809372031092DE0381E029
:100F10000E94810680C08091DE038032A0F42BEB1A
:100F200030E08091DE0391E0980F9093DE03882FEC
:100F300090E0F901208182549C4FFC01208381E0E4
:100F40000E94810668C080E00E94810664C0809192
:100F5000DE03803240F48091DE03882F90E08254DB
:100F60009C4FFC0110820E949A06209178033091D8
:100F700079038091DE03882F90E0BC018EEB93E033
:100F8000F90109951092DE030E94B50644C080E085
:100F90000E94810640C084E0809372031092BC03DB
:100FA0001092BD038091760390917703FC0109951F
:100FB0008091BD03882329F481E08093BD031092C2
:100FC0009C038091BC0391E0980F9093BC03282F61
:100FD00030E08BEB90E024563C4FF9012081FC017E
:100FE00020839091BC038091BD03981720F481E089
:100FF0000E94810610C080E00E9481060CC081E042
:101000000E9481061092720306C01092DF030E94B4
:101010009A0601C000000000DF91CF91FF91EF918F
:10102000BF91AF919F918F917F916F915F914F9100
:101030003F912F910F900FBE0F901F9018958F9298
:101040009F92AF92BF92CF92DF92EF92FF92CF9397
:10105000DF93CDB7DEB728970FB6F894DEBF0FBE8B
:10106000CDBF29833A834B835C836D837E838F83DB
:101070009887000089809A80AB80BC80CD80DE801C
:10108000EF80F884282D392D4A2D5B2D6C2D7D2D78
:101090008E2D9F2DAFEF0E94510929833A834B83F8
:1010A0005C836D837E838F839887282D392D4A2D0D
:1010B0005B2D6C2D7D2D8E2D9F2DA0E00E945D0956
:1010C000C9F60000000028960FB6F894DEBF0FBEE8
:1010D000CDBFDF91CF91FF90EF90DF90CF90BF9089
:1010E000AF909F908F900895CF93DF93CDB7DEB7E9
:1010F00084EC90E028E0FC01208381EC90E0FC018E
:10110000208181EC90E02860FC01208382EC90E05B
:1011100026E0FC0120830000DF91CF910895CF935A
:10112000DF930F92CDB7DEB78983000080EC90E0AB
:10113000FC018081882F90E080729927892BB1F380
:1011400086EC90E02981FC01208300000F90DF9164
:10115000CF910895CF93DF9300D0CDB7DEB79A83B8
:1011600089830BC089819A81FC0180810E948F084C
:1011700089819A8101969A83898389819A81FC0168
:101180008081882379F7000000000F900F90DF9195
:10119000CF910895CF93DF9300D0CDB7DEB79A8378
:1011A000898389819A810A9768F189819A819C0152
:1011B000ADECBCEC0E944209969587959695879573
:1011C000969587950E94CA0849815A819A01ADEC8B
:1011D000BCEC0E9442099C013695279536952795CF
:1011E00036952795C901880F991F880F991F820F7F
:1011F000931F880F991F9A01281B390BC9010E9460
:10120000CA0804C08981805D0E948F0800000F9089
:101210000F90DF91CF910895CF93DF930F92CDB7C9
:10122000DEB7898389818A30F0F099818DEC989FAF
:10123000812D11248695869586950E940C09298119
:101240008DEC289F812D1124982F96959695969533
:10125000892F880F880F890F880F922F981B892F4D
:101260000E940C0904C08981805D0E948F080000E3
:101270000F90DF91CF910895EE0FFF1F0590F4912D
:10128000E02D0994A29FB001B39FC001A39F700DF0
:10129000811D1124911DB29F700D811D1124911D7E
:1012A00008950024A7FD00942A0F301D401D501DF5
:1012B000601D701D801D901D08950024A7FD0094E1
:1012C0002A1730054005500560057005800590051A
:1012D0000895F894FFCF05080B080B080B080B08BE
:1012E0000B080B080B08F7060B080B080B080B087C
:1012F0000B080B080B08F7060B080B080B080B086C
:101300000B080B080B0801070B080B080B080B0850
:101310000B080B080B082D070B080B080B080B0814
:101320000B080B080B0801070B080B080B080B0830
:101330000B080B080B0833070B080B080B080B08EE
:101340000B080B080B0839070B080B080B080B08D8
:101350000B080B080B084F070B080B080B080B08B2
:101360000B080B080B087F070B080B080B080B0872
:101370000B080B080B083F070B080B080B080B08A2
:101380000B080B080B085D070B080B080B080B0874
:101390000B080B080B0882070B080B080B080B083F
:1013A0000B080B080B0882070B080B080B080B082F
:1013B0000B080B080B0882070B080B080B080B081F
:1013C0000B080B080B0882070B080B080B080B080F
:1013D0000B080B080B088B070B080B080B080B08F6
:1013E0000B080B080B08C7070B080B080B080B08AA
:1013F0000B080B080B088B070B080B080B080B08D6
:101400000B080B080B08C7070B080B080B080B0889
:101410000B080B080B08A7070B080B080B080B0899
:101420000B080B080B08CB070B080B080B080B0865
:101430000B080B080B08CB070B080B080B080B0855
:101440000B080B080B08E1070B080B080B080B082F
:101450000B080B080B08FF070B080B080B080B0801
:081460000B080B080B08FF0745
:10146800AE408D142000A1C8A4A6AF4C554D494EDE
:101478004F534954453A200048554D49444954452D
:101488003A20000000000000007C0A090A7C007F66
:1014980049494E30003E41414122007F4141221CD2
:1014A800007F49494941007F09090901003E414936
:1014B800493A007F0808087F0000417F410000008A
:1014C80020413F01007F08142241007F40404040F6
:1014D800007F020C027F007F0608307F003E4141FA
:1014E800413E007F09090906003E4151215E007F07
:1014F800091929460046494949310001017F01017E
:10150800003F4040403F001F2040201F003F403820
:10151800403F00631408146300070870080700615F
:1015280051494543003E5149453E0000427F400035
:10153800004261514946002141454B3100181412BF
:101548007F10004745454539003C4A49493000016C
:101558007109050300364949493600064949291EDB
:101568000000363600000000005F00000008080890
:10157800080800081C2A08080008082A1C08001087
:10158800207E20100008047E04080000007E000071
:1015980000000060300000000060600000000002F1
:1015A800050200000000000000000000000000002C
:1015B8000000000000000000000000000000000023
:1015C8000000000000000000000000000000000013
:1015D8000000000000000000000000000000000003
:1015E80000000000000000000000000000000000F3
:1015F80000000000000000000000000000000000E3
:1016080000000000000000000000000000000000D2
:1016180000000000000000000000000000000000C2
:1016280000000000000000000000000000000000B2
:1016380000000000000000000000000000000000A2
:101648000000000000000000000000000000000092
:101658000000000000000000000000000000000082
:101668000000000000000000000000000000000072
:101678000000000000000000000000000000000062
:101688000000000000000000000000000000000052
:101698000000000000000000000000000000000042
:1016A8000000000000000000000000000000000032
:1016B8000000000000000000000000000000000022
:1016C8000000000A0B0C0D12130E0F101112131448
:0216D8001500FB
:00000001FF
