:100000000C945A000C9477000C94CA040C9477005A
:100010000C9477000C9477000C9477000C94770084
:100020000C9477000C9477000C9477000C94770074
:100030000C9477000C9477000C9477000C94770064
:100040000C9477000C9477000C9477000C94770054
:100050000C9477000C9477000C9477000C94770044
:100060000C94E60C0C9477000C9477000C947700B9
:100070000C9477000C9477000C9477000C94770024
:100080000C9477000C9477000C9477000C94770014
:100090000C9477000C9477000C9477000C94770004
:1000A0000C9477000C9477000C9477000C947700F4
:1000B0000C94770011241FBECFEFD8E0DEBFCDBF78
:1000C00013E0A0E0B1E0E8E2F7E202C005900D9293
:1000D000A83EB107D9F725E0A8EEB3E001C01D9214
:1000E000A130B207E1F70E9462050C94C9120C948A
:1000F0000000CF93DF9300D00F92CDB7DEB79A8385
:1001000089836B8300008FE390E0FC018081882F5E
:1001100090E082709927892BB1F781E490E02981E2
:100120003A81FC013183208380E490E02B81FC0143
:1001300020838FE390E0FC0120818FE390E0246036
:10014000FC0120838FE390E0FC0120818FE390E0AD
:100150002260FC01208300000F900F900F90DF9130
:10016000CF910895CF93DF9300D0CDB7DEB79A83B8
:10017000898300008FE390E0FC018081882F90E06C
:1001800082709927892BB1F781E490E029813A8127
:10019000FC01318320838FE390E0FC0120818FE319
:1001A00090E02160FC01208380E490E0FC018081EC
:1001B0000F900F90DF91CF910895CF93DF93CDB73C
:1001C000DEB728970FB6F894DEBF0FBECDBF9C8375
:1001D0008B837E836D8358874F831A82198216C062
:1001E0002F81388589819A81820F931FFC0140817C
:1001F0002B813C8189819A81820F931F642F0E94F9
:10020000790089819A8101969A83898329813A812B
:100210008D819E812817390718F300000000289669
:100220000FB6F894DEBF0FBECDBFDF91CF9108951A
:100230000F931F93CF93DF93CDB7DEB728970FB6F9
:10024000F894DEBF0FBECDBF9C838B837E836D830E
:1002500058874F831A82198218C02B813C8189816B
:100260009A81A901480F591F2F81388589819A8168
:100270008901080F191FCA010E94B200F80180838A
:1002800089819A8101969A83898329813A818D8116
:100290009E812817390708F30000000028960FB642
:1002A000F894DEBF0FBECDBFDF91CF911F910F91AC
:1002B0000895CF93DF9300D0CDB7DEB79A838983BB
:1002C00089819A8148E050E06DE071E00E94E10F81
:1002D00089819A81089620910000FC012083898100
:1002E0009A8109962091C800FC01208389819A8116
:1002F0000A9620910000FC01208389819A810B9647
:1003000020917800FC01208389819A810C962091AC
:100310001E00FC01208389819A810D96209118008E
:10032000FC01208389819A810E9620910200FC01B4
:10033000208389819A810F9628B7FC0120838981C7
:100340009A81409620910100FC01208389819A8145
:1003500041962CB1FC01208389819A81429648E024
:1003600050E066E171E00E94E10F89819A814A962E
:1003700020910000FC01208389819A814B96209175
:10038000C800FC01208389819A814C96209100004D
:10039000FC01208389819A814D9620917800FC018F
:1003A000208389819A814E9620911E00FC01208332
:1003B00089819A814F9620911800FC0120838981C0
:1003C0009A81809620910200FC01208389819A8184
:1003D000819628B7FC01208389819A818296209199
:1003E0000100FC01208389819A8183962CB1FC0154
:1003F000208300000F900F90DF91CF910895CF934D
:10040000DF93CDB7DEB7A4970FB6F894DEBF0FBE6B
:10041000CDBFCE0101960E945901CE010196AC01DB
:1004200064E270E080E090E00E94DD000000A496AD
:100430000FB6F894DEBF0FBECDBFDF91CF91089508
:10044000CF93DF930F92CDB7DEB719820AC08981AF
:10045000482F60E08FE191E00E94540689818F5F10
:1004600089838981883098F381E00F90DF91CF9163
:100470000895CF93DF9300D000D0CDB7DEB79A8335
:1004800089837C836B8389819A81FC018081883098
:1004900031F489819A8123E1FC0120830BC0898199
:1004A0009A81FC018081833129F489819A8128E035
:1004B000FC01208300000F900F900F900F90DF91B0
:1004C000CF910895CF93DF9300D000D0CDB7DEB7A2
:1004D0009A8389837C836B8389E290E0FC0180812D
:1004E000882F90E080719927892B59F18B819C810D
:1004F000FC018081282F89819A81FC018081422F13
:10050000682F84E391E00E9454068B819C81FC015A
:10051000808121E0280F8B819C81FC0120838B81CD
:100520009C81FC018081883060F02B813C81898135
:100530009A81B9010E9439028B819C8123E0FC01E0
:10054000208389E290E0FC018081882F90E0807216
:100550009927892B59F18B819C81FC018081282F5F
:1005600089819A81FC018081422F682F84E391E088
:100570000E9454068B819C81FC0180812FEF280F03
:100580008B819C81FC0120838B819C81FC0180817B
:10059000833060F42B813C8189819A81B9010E946A
:1005A00039028B819C8127E0FC01208300000F90A1
:1005B0000F900F900F90DF91CF910895CF93DF931D
:1005C000CDB7DEB740E062E086E391E00E945406DA
:1005D00041E067E087E491E00E9454060000DF916B
:1005E000CF910895CF93DF93CDB7DEB728970FB69D
:1005F000F894DEBF0FBECDBF0E94DE02CE01019691
:10060000AC0168E070E080E090E00E94180143E0F7
:1006100060E0CE0101960E945406CE010196AC0125
:1006200068E070E082E190E00E94180144E060E040
:10063000CE0101960E945406000028960FB6F89449
:10064000DEBF0FBECDBFDF91CF910895CF93DF9373
:10065000CDB7DEB761E071E080E091E00E94620218
:100660000E94F20280910101982F80910001492F90
:10067000682F8EE491E00E9454068091000182313F
:1006800011F485E001C080E090910101890F825052
:10069000809358040E9425090000DF91CF910895AE
:1006A0000F93CF93DF93CDB7DEB7A2970FB6F89431
:1006B000DEBF0FBECDBF88E48A8319820DC0898159
:1006C00091E0980F9983882F90E09E012D5F3F4F16
:1006D000820F931FFC0110828981803280F301E038
:1006E00021E041E060E070E08A810E94BB0BCE0116
:1006F000039621E042E0BC018A810E94400B01E0A8
:1007000021E040E060E070E08A810E94BB0BCE01F6
:100710000396FC0180819181A2960FB6F894DEBF0A
:100720000FBECDBFDF91CF910F910895CF93DF938F
:1007300000D000D000D00F92CDB7DEB79F838E835C
:10074000CE0106969A83898389819A81FC018081F2
:100750008F778B8389819A81FC018081881F88270C
:10076000881F8C8389819A8101969A8389838981E4
:100770009A81FC018081881F8827881F8D8344E02F
:1007800060E080E591E00E9454068C81882331F07E
:1007900044E06CE085E691E00E9454068B81882F4E
:1007A00090E044E06DE00E9458078D81882369F055
:1007B0008B818A3010F48EE001C08FE044E0682F16
:1007C00087E691E00E9454060CC08B818A3010F4B9
:1007D0008EE001C08FE044E0682F8AE691E00E943D
:1007E00054068B818A3010F480E101C081E144E03D
:1007F000682F8DE691E00E945406000027960FB600
:10080000F894DEBF0FBECDBFDF91CF910895CF9397
:10081000DF9300D0CDB7DEB71A8219828CE790E063
:10082000FC0120818CE790E0277FFC0120838CE78E
:1008300090E0FC0120818CE790E02B7FFC0120837D
:100840008CE790E0FC0120818CE790E02260FC01C5
:1008500020838CE790E0FC0120818CE790E0216010
:10086000FC0120838AE790E0FC0120818AE790E088
:100870002064FC01208300008AE790E0FC01808175
:10088000882F90E080749927892BB1F788E790E052
:10089000FC018081282F30E089E790E0FC01808115
:1008A000882F90E0982F882788279370822B932B8E
:1008B0009A83898389819A810F900F90DF91CF91DC
:1008C0000895CF93DF9300D0CDB7DEB71A82198297
:1008D0008CE790E0FC0120818CE790E02260FC0135
:1008E00020838CE790E0FC0120818CE790E02E7F54
:1008F000FC0120838CE790E0FC0120818CE790E0F4
:100900002B7FFC0120838CE790E0FC0120818CE7A9
:1009100090E0277FFC0120838AE790E0FC012081A2
:100920008AE790E02064FC01208300008AE790E0E1
:10093000FC018081882F90E080749927892BB1F782
:1009400088E790E0FC018081282F30E089E790E083
:10095000FC018081882F90E0982F8827882793704A
:10096000822B932B9A8389832FEF33E089819A819D
:10097000A901481B590BCA019C01ADECBCEC0E94BB
:10098000BA0F96958795969587950F900F90DF9162
:10099000CF9108951F920F920FB60F9211242F93AB
:1009A0003F934F935F936F937F938F939F93AF93F7
:1009B000BF93EF93FF93CF93DF93CDB7DEB70E9442
:1009C000200280915604882319F01092560403C027
:1009D00081E08093560420E436E040E050E060E09F
:1009E00070E080E090E00E94410E0000DF91CF9126
:1009F000FF91EF91BF91AF919F918F917F916F91F7
:100A00005F914F913F912F910F900FBE0F901F90CC
:100A10001895CF93DF93CDB7DEB72D970FB6F89427
:100A2000DEBF0FBECDBF9091580482E1989F802D0C
:100A30001124825189830E9407049B838A8340E0AA
:100A400060E080E791E00E9454068A819B8140E04B
:100A50006DE00E9458070E9461049D838C8342E0F0
:100A600060E085E891E00E9454068C819D8142E01F
:100A70006DE00E9458070E9450030E94960346E0D2
:100A800060E088E991E00E9454068981882F90E017
:100A90009E012A5F3F4FA90168E070E00E941801A3
:100AA000CE01069646E06BE00E9454060E9425099E
:100AB00000002D960FB6F894DEBF0FBECDBFDF91BC
:100AC000CF910895CF93DF93CDB7DEB7C45AD10944
:100AD0000FB6F894DEBF0FBECDBF198289E690E055
:100AE000FC01208189E690E02C60FC0120838FE5E9
:100AF00090E0FC0120818FE590E02068FC012083DC
:100B00008DE390E0FC0120818DE390E02260FC0108
:100B100020838AE790E0FC0120818AE790E020684A
:100B2000FC0120838CE790E0FC0120818CE790E0C1
:100B30002064FC0120830E944B0A81E080935604CC
:100B40000E94EC0E83EA91E00E94220F29E430E734
:100B500041E150E060E070E080E090E00E94410EF2
:100B600020E031E742E050E060E070E080E090E0BB
:100B70000E94410E20E031E742E050E060E070E08A
:100B800080E090E00E94410E20E031E742E050E03A
:100B900060E070E080E090E00E94410E20E031E7EC
:100BA00042E050E060E070E080E090E00E94410EA2
:100BB00020E031E742E050E060E070E080E090E06B
:100BC0000E94410E86EC91E00E94220F20E031E766
:100BD00042E050E060E070E080E090E00E94410E72
:100BE0008EEE91E00E94220F20E031E742E050E0DB
:100BF00060E070E080E090E00E94410E80EAEDE06D
:100C0000F2E0DE01129601900D928A95E1F7CE0195
:100C100002960E94EA0F292F2F938F938DEF91E078
:100C2000892F8F938DEF91E08F93CE018E559F4F3B
:100C3000292F2F938F930E94F30F0F900F900F90F7
:100C40000F900F900F90CE018E559F4F0E94220F54
:100C500020E83EE340E050E060E070E080E090E0BB
:100C60000E94410ECE0102960E94220F20E83AE136
:100C700046E050E060E070E080E090E00E94410ECD
:100C800080915604813019F40E94260302C00E940C
:100C9000090520E43FE140E050E060E070E080E0E2
:100CA00090E00E94410EECCFCF93DF9300D000D0B4
:100CB00000D0CDB7DEB79C838B836D834E838E814E
:100CC000482F880F550B8D81082E000C990B65E17C
:100CD000649F9001659F300D1124820F931F875AE6
:100CE0009B4F9A838983D2C08B819C81FC01808138
:100CF00081348CF08B819C81FC0180818B355CF48C
:100D00008B819C81FC0180818054282F89819A816C
:100D1000FC012083B1C08B819C81FC0180818033E8
:100D20008CF08B819C81FC0180818A335CF48B8107
:100D30009C81FC0180818551282F89819A81FC0149
:100D400020839AC08B819C81FC018081803229F4B0
:100D500089819A81FC0110828FC08B819C81FC016A
:100D600080818A3331F489819A8125E2FC012083D4
:100D700083C08B819C81FC018081813231F4898127
:100D80009A8126E2FC01208377C08B819C81FC0143
:100D900080818D3231F489819A8127E2FC012083A0
:100DA0006BC08B819C81FC0180818C3331F4898103
:100DB0009A8128E2FC0120835FC08B819C81FC0129
:100DC00080818E3331F489819A8129E2FC0120836C
:100DD00053C08B819C81FC018081863731F48981ED
:100DE0009A812AE2FC01208347C08B819C81FC010F
:100DF00080818E3531F489819A812BE2FC01208338
:100E00003BC08B819C81FC0180818C3731F48981CE
:100E10009A812CE2FC0120832FC08B819C81FC01F4
:100E200080818C3231F489819A812DE2FC0120830A
:100E300023C08B819C81FC0180818E3231F48981B9
:100E40009A812EE2FC01208317C08B819C81FC01DA
:100E500080818F3631F489819A812FE2FC012083D1
:100E60000BC08B819C81FC018081853229F48981B2
:100E70009A8120E3FC0120838B819C8101969C83D5
:100E80008B8389819A8101969A8389838B819C8146
:100E9000FC018081882309F027CF000000002696FE
:100EA0000FB6F894DEBF0FBECDBFDF91CF9108958E
:100EB000CF93DF9300D000D000D0CDB7DEB79C83B6
:100EC0008B836D834E838E81482F880F550B8D81C8
:100ED000082E000C990B65E1649F9001659F300D11
:100EE0001124820F931F875A9B4F9A8389838B818A
:100EF0009C81883E934008F49CC08B819C81969590
:100F0000879596958795969587959C01A5ECB0E277
:100F10000E94BA0F929582958F7089279F708927BA
:100F20004BE1480F89819A819C012F5F3F4F3A83A3
:100F30002983242FFC0120834B815C81CA01969573
:100F4000879596958795969587959C01A5ECB0E237
:100F50000E94BA0F929582958F7089279F7089277A
:100F600068EE73E0869F9001879F300D969F300D4D
:100F70001124CA01821B930B8436910550F4898198
:100F80009A819C012F5F3F4F3A8329832BE1FC011B
:100F900020834B815C81CA019695879596958795AC
:100FA000969587959C01A5ECB0E20E94BA0F9295A8
:100FB00082958F7089279F70892768EE73E0869FDE
:100FC0009001879F300D969F300D1124CA01821B1E
:100FD000930B0A9750F489819A819C012F5F3F4FB0
:100FE0003A8329832BE1FC0120834B815C81CA0178
:100FF0009695879596958795969587959C01A5ECEE
:10100000B0E20E94BA0FBC01729562956F706727BB
:101010007F70672728EE33E0629FC001639F900DC9
:10102000729F900D11249A01281B390BC9019C83D2
:101030008B838B819C818436910508F457C08B810A
:101040009C8196958795969587959C01ABE7B4E131
:101050000E94BA0F969587954BE1480F89819A8136
:101060009C012F5F3F4F3A832983242FFC0120836B
:101070004B815C81CA0196958795969587959C01D1
:10108000ABE7B4E10E94BA0F9695879564E6689F36
:101090009001699F300D1124CA01821B930B0A979E
:1010A00050F489819A819C012F5F3F4F3A832983B5
:1010B0002BE1FC0120834B815C81CA0196958795C9
:1010C000969587959C01ABE7B4E10E94BA0F9C010D
:1010D0003695279564E6629FC001639F900D1124A9
:1010E0009A01281B390BC9019C838B838B819C81BE
:1010F0000A9708F450C08B819C819C01ADECBCEC3C
:101100000E94BA0FAC01569547955695479556954E
:1011100047959A01ADECBCEC0E94BA0F9C01369544
:1011200027953695279536952795C901880F991FDC
:10113000880F991F820F931F880F991F9A01281BF0
:10114000390B822F4BE1480F89819A819C012F5FD7
:101150003F4F3A832983242FFC0120834B815C81FC
:101160009A01ADECBCEC0E94BA0F9C013695279514
:101170003695279536952795C901880F991F880FB1
:10118000991F820F931F880F991F9A01281B390BF3
:10119000C9019C838B838B814BE1480F89819A81A4
:1011A0009C012F5F3F4F3A832983242FFC0120832A
:1011B000000026960FB6F894DEBF0FBECDBFDF91BC
:1011C000CF910895CF93DF9300D000D0CDB7DEB795
:1011D0001A82198221C01C821B8215C089819A81C2
:1011E00045E1489F9001499F300D11248B819C81DE
:1011F000820F931F875A9B4FFC0110828B819C8129
:1012000001969C838B838B819C8145973CF38981DC
:101210009A8101969A83898389819A810897DCF261
:10122000000000000F900F900F900F90DF91CF9172
:101230000895CF93DF93CDB7DEB70E94E2080E94F6
:1012400025090000DF91CF910895CF93DF93CDB7AB
:10125000DEB7CA58D1090FB6F894DEBF0FBECDBFB6
:101260008BE290E0FC0120818BE290E02F7BFC017F
:10127000208380E090E00E94330A80E190E00E94A9
:10128000330A8BE290E0FC0120818BE290E0206445
:10129000FC0120831A821982D5C029813A8145E157
:1012A000429FC001439F900D1124875A9B4F9887FE
:1012B0008F831C821B8298C08B819C812F813885F3
:1012C000820F931FFC018081282F880F330BC901E7
:1012D000880F991F820F931F880F991F83559D4F69
:1012E0009A8789872B813C81C901880F991F820FBA
:1012F000931F880F991F9C0189859A85FC01408165
:10130000CE010B96820F931FFC0140832B813C8101
:10131000C901880F991F820F931F880F991F01968B
:1013200029853A85F90141819E01255F3F4F820F52
:10133000931FFC0140832B813C81C901880F991FB9
:10134000820F931F880F991F029629853A85F9010C
:1013500042819E01255F3F4F820F931FFC01408316
:101360002B813C81C901880F991F820F931F880F21
:10137000991F039629853A85F90143819E01255FCE
:101380003F4F820F931FFC0140832B813C81C90199
:10139000880F991F820F931F880F991F0496298524
:1013A0003A85F90144819E01255F3F4F820F931FCB
:1013B000FC0140832B813C81C901880F991F820F5A
:1013C000931F880F991F059629853A85F901458154
:1013D0009E01255F3F4F820F931FFC0140838B814D
:1013E0009C8101969C838B838B819C8145970CF417
:1013F00063CFCE0187579F4FFC011082CE018657E5
:101400009F4FFC0110821E821D8212C09E01255F2B
:101410003F4F8D819E81820F931FFC018081882F19
:1014200090E00E94330A8D819E8101969E838D8378
:101430008D819E81803891054CF389819A81019636
:101440009A83898389819A8108970CF426CF0000BA
:101450000000C657DF4F0FB6F894DEBF0FBECDBFFA
:10146000DF91CF910895CF93DF930F92CDB7DEB781
:1014700089838EEA90E02981FC01208300008DEAB7
:1014800090E0FC0180818823D4F7000000000F90D9
:10149000DF91CF910895CF93DF9300D00F92CDB716
:1014A000DEB78AE290E0FC0120818AE290E02064CD
:1014B000FC0120838AE290E0FC0120818AE290E036
:1014C0002068FC01208384E290E0FC01208184E21A
:1014D00090E02160FC01208385E290E0FC01208106
:1014E00085E290E02460FC0120838CEA90E020E516
:1014F000FC0120838AE290E0FC0120818AE290E0F6
:101500002068FC01208387E290E0FC01208187E2D3
:1015100090E02260FC0120838DE290E0FC012081BC
:101520008DE290E02860FC01208385E290E0FC01E0
:10153000208185E290E02160FC0120838BE290E035
:10154000FC0120818BE290E02F7BFC01208319823B
:101550000CC0898191E0980F9983882F90E08E5F6D
:101560009E4FFC0180810E94330A89818B3088F371
:101570008BE290E0FC0120818BE290E02064FC0192
:1015800020831B821A8208C080E00E94330A8A816D
:101590009B8101969B838A838A819B8181159440DC
:1015A0009CF30E94E20800000F900F900F90DF91D3
:1015B000CF910895CF93DF93CDB7DEB71092E803B4
:1015C00081E08093EA031092EB0388E290E0FC0153
:1015D0008081482F82E1282F30E081E090E002C036
:1015E000880F991F2A95E2F7242F282B88E290E094
:1015F000FC01208388E290E0FC018081482F83E198
:10160000282F30E081E090E002C0880F991F2A95D2
:10161000E2F7242F282B88E290E0FC01208389EB5D
:1016200090E0FC01208189EB90E02E7FFC0120837B
:1016300089EB90E0FC01208189EB90E02D7FFC019B
:10164000208388EB90E020E2FC0120838CEB90E08B
:1016500025E4FC0120830000DF91CF910895CF9312
:10166000DF930F92CDB7DEB789838AEB90E02981B3
:10167000220FFC01208300000F90DF91CF9108958D
:10168000CF93DF9300D000D000D0CDB7DEB78A83F0
:101690007C836B834D832E838D81813218F080E0B3
:1016A00061C000008091E8038823D9F781E080932E
:1016B000E8038E818093EA038FEF809355041092A4
:1016C00010048D8181508093110481E08093E9039F
:1016D0008A81882F90E0880F991F982F8091E903C5
:1016E000892B8093E9038091EB03813071F4109290
:1016F000EB038BEB90E02091E903FC0120838CEB62
:1017000090E025ECFC01208307C08CEB90E025EEF7
:10171000FC01208301C000008091E8038130D9F3EF
:10172000809110049D81891718F4809110048D8395
:10173000198213C08981282F30E08981882F90E099
:101740004B815C81840F951F20513C4FF901208112
:10175000FC01208389818F5F898399818D8198170E
:1017600048F38D8126960FB6F894DEBF0FBECDBF2D
:10177000DF91CF9108950F93CF93DF9300D000D0E6
:1017800000D00F92CDB7DEB78A837C836B834D8305
:101790002E830F838D81813218F081E06CC00000B0
:1017A0008091E8038823D9F782E08093E8038F8152
:1017B0008093EA038FEF80935504109210048D817B
:1017C00080931104198213C08981882F90E02B81A6
:1017D0003C81280F391F8981882F90E0F9012081F1
:1017E00080519C4FFC01208389818F5F898399817F
:1017F0008D81981748F31092E9038A81882F90E031
:10180000880F991F982F8091E903892B8093E90312
:101810008091EB03813071F41092EB038BEB90E03D
:101820002091E903FC0120838CEB90E025ECFC0186
:10183000208307C08CEB90E025EEFC01208301C0E3
:1018400000008E81882321F08091E8038230C1F36B
:10185000809155048F3F11F480E00DC080915504B4
:10186000803211F482E007C080915504803311F476
:1018700083E001C084E027960FB6F894DEBF0FBE68
:10188000CDBFDF91CF910F910895CF93DF9300D01B
:1018900000D0CDB7DEB79B838A836C838C81813285
:1018A00010F081E023C08091E803843011F082E0E1
:1018B0001DC08C8180933304198213C08981882FC5
:1018C00090E02A813B81280F391F8981882F90E081
:1018D000F90120818E5E9B4FFC01208389818F5FFF
:1018E000898399818C81981748F380E00F900F903D
:1018F0000F900F90DF91CF910895CF93DF9300D099
:10190000CDB7DEB79A83898389819A819093EF035B
:101910008093EE0300000F900F90DF91CF91089518
:10192000CF93DF9300D0CDB7DEB79A8389838981C7
:101930009A819093ED038093EC0300000F900F9039
:10194000DF91CF910895CF93DF930F92CDB7DEB79C
:1019500089838981882331F08CEB90E025ECFC01B0
:10196000208305C08CEB90E025E8FC01208300007B
:101970000F90DF91CF910895CF93DF93CDB7DEB76E
:101980008CEB90E025EDFC01208301C000008CEB86
:1019900090E0FC018081882F90E080719927892B4D
:1019A000A9F71092E8030000DF91CF910895CF933B
:1019B000DF93CDB7DEB78CEB90E025ECFC01208304
:1019C0001092E8030000DF91CF9108951F920F92CB
:1019D0000FB60F9211242F933F934F935F936F9302
:1019E0007F938F939F93AF93BF93EF93FF93CF9387
:1019F000DF93CDB7DEB789EB90E0FC018081882FC3
:101A000090E0887F9927893C91050CF025C19923A6
:101A10000CF423C1092E000CAA0BBB0B893C9105C9
:101A2000A105B10508F019C185539D4EFC010C9428
:101A3000B40F8BEB90E02091E903FC01208381E05F
:101A40000E94A30C0AC19091100480911104981770
:101A5000A0F48091100491E0980F90931004282F27
:101A600030E08BEB90E020513C4FF9012081FC01EC
:101A7000208381E00E94A30CF0C08091EA038823B8
:101A800019F00E94BC0CE9C081E08093EB038CEB61
:101A900090E024EAFC0120831092E803DEC080E29B
:101AA000809355040E94BC0CD8C080E380935504F9
:101AB0000E94BC0CD2C088E3809355040E94D70CCE
:101AC000CCC02BEB30E08091100491E0980F909304
:101AD0001004882F90E0F901208180519C4FFC0177
:101AE00020839091100480911104981720F481E0D4
:101AF0000E94A30CB2C080E00E94A30CAEC02BEBEE
:101B000030E08091100491E0980F90931004882F9A
:101B100090E0F901208180519C4FFC01208380914D
:101B2000EA03882319F00E94BC0C97C081E08093DF
:101B3000EB038CEB90E024EAFC0120831092E80395
:101B40008CC00E94BC0C89C083E08093E803109293
:101B5000540481E00E94A30C80C080915404803220
:101B6000A0F42BEB30E08091540491E0980F909317
:101B70005404882F90E0F90120818C5C9B4FFC017C
:101B8000208381E00E94A30C68C080E00E94A30C27
:101B900064C080915404803240F480915404882FB2
:101BA00090E08C5C9B4FFC0110820E94BC0C209149
:101BB000EE033091EF0380915404882F90E0BC0134
:101BC00084E394E0F9010995109254040E94D70C23
:101BD00044C080E00E94A30C40C084E08093E803EE
:101BE00010923204109233048091EC039091ED0333
:101BF000FC01099580913304882329F481E08093C6
:101C00003304109212048091320491E0980F909363
:101C10003204282F30E08BEB90E02E5E3B4FF90131
:101C20002081FC0120839091320480913304981725
:101C300020F481E00E94A30C10C080E00E94A30C5D
:101C40000CC081E00E94A30C1092E80306C0109221
:101C500055040E94BC0C01C000000000DF91CF9130
:101C6000FF91EF91BF91AF919F918F917F916F9174
:101C70005F914F913F912F910F900FBE0F901F904A
:101C800018958F929F92AF92BF92CF92DF92EF9270
:101C9000FF92CF93DF93CDB7DEB728970FB6F894B6
:101CA000DEBF0FBECDBF29833A834B835C836D8338
:101CB0007E838F839887000089809A80AB80BC8068
:101CC000CD80DE80EF80F884282D392D4A2D5B2DC4
:101CD0006C2D7D2D8E2D9F2DAFEF0E94C90F298376
:101CE0003A834B835C836D837E838F839887282D13
:101CF000392D4A2D5B2D6C2D7D2D8E2D9F2DA0E035
:101D00000E94D50FC9F60000000028960FB6F8947F
:101D1000DEBF0FBECDBFDF91CF91FF90EF90DF9080
:101D2000CF90BF90AF909F908F900895CF93DF9307
:101D3000CDB7DEB784EC90E028E0FC01208381EC95
:101D400090E0FC01208181EC90E02860FC01208380
:101D500082EC90E026E0FC0120830000DF91CF912F
:101D60000895CF93DF930F92CDB7DEB7898300003C
:101D700080EC90E0FC018081882F90E080729927B0
:101D8000892BB1F386EC90E02981FC0120830000CF
:101D90000F90DF91CF910895CF93DF9300D0CDB70F
:101DA000DEB79A8389830BC089819A81FC01808187
:101DB0000E94B10E89819A8101969A8389838981D3
:101DC0009A81FC018081882379F7000000000F9040
:101DD0000F90DF91CF910895CF93DF93CDB7DEB70A
:101DE0008CEC90E023E3FC01208389EC90E0FC0183
:101DF000208189EC90E02860FC0120838AEC90E04F
:101E000026E0FC0120830000DF91CF910895CF935D
:101E1000DF930F92CDB7DEB78983000088EC90E0A6
:101E2000FC018081882F90E080729927892BB1F383
:101E30008EEC90E02981FC01208300000F90DF915F
:101E4000CF910895CF93DF9300D0CDB7DEB79A83BB
:101E500089830BC089819A81FC0180810E94070FD0
:101E600089819A8101969A83898389819A81FC016B
:101E70008081882379F7000000000F900F90DF9198
:101E8000CF910895CF93DF9300D0CDB7DEB79A837B
:101E9000898389819A810A9768F189819A819C0155
:101EA000ADECBCEC0E94BA0F9695879596958795F8
:101EB000969587950E94420F49815A819A01ADEC0F
:101EC000BCEC0E94BA0F9C01369527953695279554
:101ED00036952795C901880F991F880F991F820F82
:101EE000931F880F991F9A01281B390BC9010E9463
:101EF000420F04C08981805D0E94B10E00000F90E6
:101F00000F90DF91CF910895CF93DF930F92CDB7CC
:101F1000DEB7898389818A30F0F099818DEC989FB2
:101F2000812D11248695869586950E94840F29819E
:101F30008DEC289F812D1124982F96959695969536
:101F4000892F880F880F890F880F922F981B892F50
:101F50000E94840F04C08981805D0E94B10E000040
:101F60000F90DF91CF910895EE0FFF1F0590F49130
:101F7000E02D0994A29FB001B39FC001A39F700DF3
:101F8000811D1124911DB29F700D811D1124911D81
:101F900008950024A7FD00942A0F301D401D501DF8
:101FA000601D701D801D901D08950024A7FD0094E4
:101FB0002A1730054005500560057005800590051D
:101FC0000895FB01DC0102C001900D924150504088
:101FD000D8F70895FC0101900020E9F780959095CD
:101FE0008E0F9F1F0895AEE0B0E0E9EFFFE00C9484
:101FF000A0120D891E8986E08C831A8309838FEFD6
:102000009FE79E838D83AE01475E5F4F6F89788D1A
:10201000CE0101960E9416102F813885020F131FE2
:10202000F80110822E96E4E00C94BC12AFE0B0E010
:10203000ECE1F0E10C9492127C013B018A01DC019D
:1020400017961C921E92169713968C9181FFC3C10E
:102050009AE0292EFE0131964F01D70113969C91EB
:10206000F30193FD859193FF81913F01882309F44A
:1020700048C1853239F493FD859193FF81913F01E9
:10208000853229F4B70190E00E940412E6CFB12C0A
:10209000412C512CBFE1B51538F08B3209F188F491
:1020A000803201F1833221F157FC3AC020ED280F34
:1020B0002A3040F556FE1FC0B29C200D1124B22ECE
:1020C00006C08D3291F0803379F7689450F8F301AF
:1020D00093FD859193FF81913F018111DBCF20C05A
:1020E000689451F8689452F8F2CF689453F8EFCF9F
:1020F000689454F8ECCF429C200D1124422E689431
:1021000055F8E5CF8E3229F456FCFBC0689456F89A
:10211000DECF8C3619F4689457F8D9CF8836B9F2E7
:10212000982F9F7D95549330C0F08336A1F183376B
:10213000C1F1833509F05BC0D801CD90DD908D01F0
:102140006B2D70E056FC02C06FEF7FEFC6010E945E
:10215000EE115C01689457F80AC00C5F1F4FEFE363
:10216000E983AA24A394B12C6401E89457F853FCA2
:1021700004C04A141B0409F018F5342CA114B1044E
:1021800031F5332009F469CFB70180E290E00E9475
:1021900004123A94F6CFD8018C9189830E5F1F4FB9
:1021A000E0CFF801C190D1908F016B2D70E056FC0B
:1021B00002C06FEF7FEFC6010E94F9115C01D5CF1D
:1021C000B70180E290E00E9404124A94D2CFF60157
:1021D00057FC859157FE81916F01B70190E00E94F5
:1021E000041231103A94B1E0AB1AB108C7CF84366B
:1021F00019F0893609F074C0F80157FE6AC0619180
:102200007191819191918F01E52DEF76DE2E97FFEF
:1022100009C090958095709561957F4F8F4F9F4F26
:102220006894D7F82AE030E0A4010E943412C82E46
:10223000C818AC2C5D2CD6FE0CC0E89450F8CB141A
:1022400040F4D4FE05C0D2FC03C05D2D5E7E552E49
:10225000AB2C54FE98C0FE01EC0DF11D8081803343
:1022600009F08AC0652D697E562E752D7870372E3F
:1022700053FC98C050FE92C0BC2CA41418F44C0C13
:10228000B42CBA1854FE94C0B70180E390E00E94C9
:10229000041252FE09C088E790E051FE02C088E5B2
:1022A00090E0B7010E940412CB1408F48DC0CA94C8
:1022B000D12C8FEFC81AD80AC80CD91CD6018E9120
:1022C0006D01B70190E00E9404128C149D04B1F7D7
:1022D00058CF61917191072E000C880B990B93CF09
:1022E000D52CE894D4F82AE030E0853739F1F52D83
:1022F000F97FDF2E8037A9F058F48835A9F08F36A2
:10230000D9F0F701868197812F96E2E10C94AE1205
:102310008837B9F7D4FE02C06894D2F820E130E0E3
:102320000DC06894D4F8F6CF54FE03C02F2F26605A
:10233000D22E20E132E002C028E030E0F801D7FEE2
:1023400015C041915191619171914C875D876E8764
:102350007F878F01A4016C857D858E859F850E9476
:102360003412C82EC818E894D7F863CF81919191A0
:10237000AC0170E060E0E9CF52FC02C0A39475CFDD
:10238000A394A39472CF852D867809F46ECFF6CFEF
:10239000B70180E290E00E940412A394A414C0F359
:1023A000312C70CF342C3A18A41408F46BCFF8CF2A
:1023B000852D867809F478CF8BE251FE80E257FCB8
:1023C0008DE2B70190E06ECFB70180E390E00E940C
:1023D0000412BA9469CF8FEF9FEF96CFFC0105905E
:1023E000615070400110D8F7809590958E0F9F1F17
:1023F0000895FC016150704001900110D8F780955C
:1024000090958E0F9F1F08950F931F93CF93DF9387
:10241000182F092FEB018B8181FD09C01FEF0FEFF2
:10242000812F902FDF91CF911F910F91089582FFFF
:1024300014C02E813F818C819D81281739073CF47F
:10244000E881F981CF0101969983888310838E8179
:102450009F8101969F838E83E3CFE885F985812F45
:102460000995892BA1F3DACFFA01AA27283051F177
:10247000203181F1E8946F936E7F6E5F7F4F8F4FB5
:102480009F4FAF4FB1E03ED0B4E03CD0670F781F14
:10249000891F9A1FA11D680F791F8A1F911DA11DF9
:1024A0006A0F711D811D911DA11D20D009F4689432
:1024B0003F912AE0269F11243019305D3193DEF6DA
:1024C000CF010895462F4770405D4193B3E00FD090
:1024D000C9F7F6CF462F4F70405D4A3318F0495D7B
:1024E00031FD4052419302D0A9F7EACFB4E0A6955E
:1024F0009795879577956795BA95C9F70097610580
:10250000710508959B01AC010A2E069457954795D5
:1025100037952795BA95C9F7620F731F841F951FCA
:10252000A01D08952F923F924F925F926F927F92DB
:102530008F929F92AF92BF92CF92DF92EF92FF92D3
:102540000F931F93CF93DF93CDB7DEB7CA1BDB0B7F
:102550000FB6F894DEBF0FBECDBF09942A88398824
:1025600048885F846E847D848C849B84AA84B9842B
:10257000C884DF80EE80FD800C811B81AA81B98137
:10258000CE0FD11D0FB6F894DEBF0FBECDBFED014B
:102590000895F894FFCF270E2D0E2D0E2D0E2D0E23
:1025A0002D0E2D0E2D0E190D2D0E2D0E2D0E2D0E68
:1025B0002D0E2D0E2D0E190D2D0E2D0E2D0E2D0E58
:1025C0002D0E2D0E2D0E230D2D0E2D0E2D0E2D0E3E
:1025D0002D0E2D0E2D0E4F0D2D0E2D0E2D0E2D0E02
:1025E0002D0E2D0E2D0E230D2D0E2D0E2D0E2D0E1E
:1025F0002D0E2D0E2D0E550D2D0E2D0E2D0E2D0EDC
:102600002D0E2D0E2D0E5B0D2D0E2D0E2D0E2D0EC5
:102610002D0E2D0E2D0E710D2D0E2D0E2D0E2D0E9F
:102620002D0E2D0E2D0EA10D2D0E2D0E2D0E2D0E5F
:102630002D0E2D0E2D0E610D2D0E2D0E2D0E2D0E8F
:102640002D0E2D0E2D0E7F0D2D0E2D0E2D0E2D0E61
:102650002D0E2D0E2D0EA40D2D0E2D0E2D0E2D0E2C
:102660002D0E2D0E2D0EA40D2D0E2D0E2D0E2D0E1C
:102670002D0E2D0E2D0EA40D2D0E2D0E2D0E2D0E0C
:102680002D0E2D0E2D0EA40D2D0E2D0E2D0E2D0EFC
:102690002D0E2D0E2D0EAD0D2D0E2D0E2D0E2D0EE3
:1026A0002D0E2D0E2D0EE90D2D0E2D0E2D0E2D0E97
:1026B0002D0E2D0E2D0EAD0D2D0E2D0E2D0E2D0EC3
:1026C0002D0E2D0E2D0EE90D2D0E2D0E2D0E2D0E77
:1026D0002D0E2D0E2D0EC90D2D0E2D0E2D0E2D0E87
:1026E0002D0E2D0E2D0EED0D2D0E2D0E2D0E2D0E53
:1026F0002D0E2D0E2D0EED0D2D0E2D0E2D0E2D0E43
:102700002D0E2D0E2D0E030E2D0E2D0E2D0E2D0E1B
:102710002D0E2D0E2D0E210E2D0E2D0E2D0E2D0EED
:082720002D0E2D0E2D0E210ED1
:102728000803AE408D142000A1C8A4A6AF434143BE
:10273800545553000000504554554E49410000205F
:102748002020202020202020202020202020202081
:1027580020202000200043484F4953495353455AED
:1027680020564F54524500455350454345003C00C0
:1027780054454D50455241545552453A2020202049
:1027880020202020002D002E35002E30006F430021
:102798004C554D494E4F534954453A20202020204E
:1027A800202020200048554D49444954453A2020CE
:1027B80020202020202520004553504543453A201D
:1027C80020200041542B43574A41505F4355523D06
:1027D800226950686F6E65222C22506564726F39C9
:1027E8003030220D0A0041542B4349505354415272
:1027F800543D22544350222C227777772E676F6FEF
:10280800676C652E636F6D222C38300D0A004154B9
:102818002B4349505354415455530D0A0041542BEE
:1028280043495053454E443D25640D0A00474554DD
:10283800202F696D616765732F6272616E64696EBE
:10284800672F676F6F676C656C6F676F2F32782FB4
:10285800676F6F676C656C6F676F5F636F6C6F72C4
:102868005F31323078343464702E706E672048548B
:1028780054502F312E300D0A486F73743A207777F1
:10288800772E676F6F676C652E636F6D0D0A5573D2
:1028980065722D4167656E743A204553503832365B
:1028A800360D0A4163636570743A20696D61676526
:1028B8000D0A436F6E6E656374696F6E3A206B65BF
:1028C80065702D616C6976650D0A0D0A00000000BF
:1028D8000000007C0A090A7C007F49494E30003E0E
:1028E80041414122007F4141221C007F4949494121
:1028F800007F09090901003E4149493A007F08085B
:10290800087F0000417F4100000020413F01007F17
:1029180008142241007F40404040007F020C027FA3
:10292800007F0608307F003E4141413E007F090993
:102938000906003E4151215E007F091929460046DB
:10294800494949310001017F0101003F4040403FB2
:10295800001F2040201F003F4038403F00631408FC
:102968001463000708700807006151494543003E99
:102978005149453E0000427F4000004261514946AE
:10298800002141454B31001814127F10004745457E
:102998004539003C4A4949300001710905030036B0
:1029A8004949493600064949291E000036360000C3
:1029B8000000005F000000080808080800081C2A3A
:1029C80008080008082A1C080010207E20100008AB
:1029D800047E04080000007E000000000060300053
:1029E80000000060600000000002050200231308D8
:1029F8000432310000000000000A0B0C0D12130E07
:082A08000F1011121314150048
:00000001FF
