:100000000C9434000C9449000C9449000C94490061
:100010000C9449000C9449000C9449000C9449003C
:100020000C9449000C9449000C9449000C9449002C
:100030000C9449000C9449000C9449000C9449001C
:100040000C9449000C9449000C9449000C9449000C
:100050000C9449000C9449000C9449000C944900FC
:100060000C9449000C94490011241FBECFEFD8E036
:10007000DEBFCDBF11E0A0E0B1E0EEECF3E002C0E6
:1000800005900D92AC30B107D9F70E9457000C943F
:10009000E5010C940000CF93DF93CDB7DEB780E08D
:1000A00091E00E941B010000DF91CF910895CF9352
:1000B000DF93CDB7DEB78AE290E0FC0120818AE2CF
:1000C00090E02460FC0120830E94D3000E944B003A
:1000D00087E091E00E941B010E94EE008F3469F4DA
:1000E0000E94EE008B3449F48BE290E0FC01208109
:1000F0008BE290E02460FC012083FFCF8F929F92DF
:10010000AF92BF92CF92DF92EF92FF92CF93DF93A5
:10011000CDB7DEB728970FB6F894DEBF0FBECDBFC0
:1001200029833A834B835C836D837E838F83988797
:10013000000089809A80AB80BC80CD80DE80EF801B
:10014000F884282D392D4A2D5B2D6C2D7D2D8E2D7B
:100150009F2DAFEF0E94CD0129833A834B835C83AF
:100160006D837E838F839887282D392D4A2D5B2DB3
:100170006C2D7D2D8E2D9F2DA0E00E94D901C9F6FA
:100180000000000028960FB6F894DEBF0FBECDBF6A
:10019000DF91CF91FF90EF90DF90CF90BF90AF9025
:1001A0009F908F900895CF93DF93CDB7DEB784EC07
:1001B00090E028E0FC01208381EC90E0FC012081AC
:1001C00081EC90E02860FC01208382EC90E026E046
:1001D000FC0120830000DF91CF910895CF93DF933E
:1001E000CDB7DEB7000080EC90E0FC018081882371
:1001F000D4F786EC90E0FC018081DF91CF910895E7
:10020000CF93DF930F92CDB7DEB78983000080ECE8
:1002100090E0FC018081882F90E080729927892BE3
:10022000B1F386EC90E02981FC01208300000F905F
:10023000DF91CF910895CF93DF9300D0CDB7DEB794
:100240009A8389830BC089819A81FC0180810E94F5
:10025000000189819A8101969A83898389819A8193
:10026000FC018081882379F7000000000F900F9037
:10027000DF91CF9108950F931F93CF93DF93CDB765
:10028000DEB768970FB6F894DEBF0FBECDBF6983A7
:100290007A838B839C8389819A81AB81BC810A9705
:1002A000A105B10508F447C089819A81AB81BC8161
:1002B0008D879E87AF87B88B0AE010E020E030E0A2
:1002C0006D857E858F859889A90198010E94AB0173
:1002D000DA01C9018D839E83AF83B8876D817E81EA
:1002E0008F8198850E943B0189819A81AB81BC8175
:1002F000898B9A8BAB8BBC8B0AE010E020E030E05E
:1003000069897A898B899C89A90198010E94AB012E
:100310006D8B7E8B8F8B988F8D899E89AF89B88DE1
:1003200089879A87AB87BC8769857A858B859C8509
:100330000E943B0104C08981805D0E940001000091
:1003400068960FB6F894DEBF0FBECDBFDF91CF9198
:100350001F910F910895A1E21A2EAA1BBB1BFD014C
:100360000DC0AA1FBB1FEE1FFF1FA217B307E40794
:10037000F50720F0A21BB30BE40BF50B661F771FEC
:10038000881F991F1A9469F76095709580959095CC
:100390009B01AC01BD01CF0108950024A7FD00948D
:1003A0002A0F301D401D501D601D701D801D901DA9
:1003B00008950024A7FD00942A1730054005500534
:0E03C00060057005800590050895F894FFCF44
:0C03CE00415445300D0A0041540D0A0056
:00000001FF
